{
	"contracts/ChatContract.sol": {
		"ChatContract": {
			"abi": [
				{
					"anonymous": false,
					"inputs": [
						{
							"indexed": true,
							"internalType": "address",
							"name": "sender",
							"type": "address"
						},
						{
							"indexed": true,
							"internalType": "address",
							"name": "receiver",
							"type": "address"
						},
						{
							"indexed": false,
							"internalType": "string",
							"name": "ipfsHash",
							"type": "string"
						}
					],
					"name": "MessageSent",
					"type": "event"
				},
				{
					"inputs": [
						{
							"internalType": "address",
							"name": "_receiver",
							"type": "address"
						}
					],
					"name": "getMessages",
					"outputs": [
						{
							"components": [
								{
									"internalType": "address",
									"name": "sender",
									"type": "address"
								},
								{
									"internalType": "address",
									"name": "receiver",
									"type": "address"
								},
								{
									"internalType": "string",
									"name": "ipfsHash",
									"type": "string"
								}
							],
							"internalType": "struct ChatContract.Message[]",
							"name": "",
							"type": "tuple[]"
						}
					],
					"stateMutability": "view",
					"type": "function"
				},
				{
					"inputs": [
						{
							"internalType": "address",
							"name": "_receiver",
							"type": "address"
						},
						{
							"internalType": "string",
							"name": "_ipfsHash",
							"type": "string"
						}
					],
					"name": "sendMessage",
					"outputs": [],
					"stateMutability": "nonpayable",
					"type": "function"
				}
			],
			"devdoc": {
				"kind": "dev",
				"methods": {},
				"version": 1
			},
			"evm": {
				"assembly": "    /* \"contracts/ChatContract.sol\":70:888  contract ChatContract {... */\n  mstore(0x40, 0x80)\n  callvalue\n  dup1\n  iszero\n  tag_1\n  jumpi\n  0x00\n  dup1\n  revert\ntag_1:\n  pop\n  dataSize(sub_0)\n  dup1\n  dataOffset(sub_0)\n  0x00\n  codecopy\n  0x00\n  return\nstop\n\nsub_0: assembly {\n        /* \"contracts/ChatContract.sol\":70:888  contract ChatContract {... */\n      mstore(0x40, 0x80)\n      callvalue\n      dup1\n      iszero\n      tag_1\n      jumpi\n      0x00\n      dup1\n      revert\n    tag_1:\n      pop\n      jumpi(tag_2, lt(calldatasize, 0x04))\n      shr(0xe0, calldataload(0x00))\n      dup1\n      0xb2f71322\n      eq\n      tag_3\n      jumpi\n      dup1\n      0xde6f24bb\n      eq\n      tag_4\n      jumpi\n    tag_2:\n      0x00\n      dup1\n      revert\n        /* \"contracts/ChatContract.sol\":752:886  function getMessages(address _receiver) public view returns (Message[] memory) {... */\n    tag_3:\n      tag_5\n      0x04\n      dup1\n      calldatasize\n      sub\n      dup2\n      add\n      swap1\n      tag_6\n      swap2\n      swap1\n      tag_7\n      jump\t// in\n    tag_6:\n      tag_8\n      jump\t// in\n    tag_5:\n      mload(0x40)\n      tag_9\n      swap2\n      swap1\n      tag_10\n      jump\t// in\n    tag_9:\n      mload(0x40)\n      dup1\n      swap2\n      sub\n      swap1\n      return\n        /* \"contracts/ChatContract.sol\":411:745  function sendMessage(address _receiver, string memory _ipfsHash) public {... */\n    tag_4:\n      tag_11\n      0x04\n      dup1\n      calldatasize\n      sub\n      dup2\n      add\n      swap1\n      tag_12\n      swap2\n      swap1\n      tag_13\n      jump\t// in\n    tag_12:\n      tag_14\n      jump\t// in\n    tag_11:\n      stop\n        /* \"contracts/ChatContract.sol\":752:886  function getMessages(address _receiver) public view returns (Message[] memory) {... */\n    tag_8:\n        /* \"contracts/ChatContract.sol\":813:829  Message[] memory */\n      0x60\n        /* \"contracts/ChatContract.sol\":848:856  messages */\n      0x00\n        /* \"contracts/ChatContract.sol\":848:868  messages[msg.sender] */\n      dup1\n        /* \"contracts/ChatContract.sol\":857:867  msg.sender */\n      caller\n        /* \"contracts/ChatContract.sol\":848:868  messages[msg.sender] */\n      0xffffffffffffffffffffffffffffffffffffffff\n      and\n      0xffffffffffffffffffffffffffffffffffffffff\n      and\n      dup2\n      mstore\n      0x20\n      add\n      swap1\n      dup2\n      mstore\n      0x20\n      add\n      0x00\n      keccak256\n        /* \"contracts/ChatContract.sol\":848:879  messages[msg.sender][_receiver] */\n      0x00\n        /* \"contracts/ChatContract.sol\":869:878  _receiver */\n      dup4\n        /* \"contracts/ChatContract.sol\":848:879  messages[msg.sender][_receiver] */\n      0xffffffffffffffffffffffffffffffffffffffff\n      and\n      0xffffffffffffffffffffffffffffffffffffffff\n      and\n      dup2\n      mstore\n      0x20\n      add\n      swap1\n      dup2\n      mstore\n      0x20\n      add\n      0x00\n      keccak256\n        /* \"contracts/ChatContract.sol\":841:879  return messages[msg.sender][_receiver] */\n      dup1\n      sload\n      dup1\n      0x20\n      mul\n      0x20\n      add\n      mload(0x40)\n      swap1\n      dup2\n      add\n      0x40\n      mstore\n      dup1\n      swap3\n      swap2\n      swap1\n      dup2\n      dup2\n      mstore\n      0x20\n      add\n      0x00\n      swap1\n    tag_16:\n      dup3\n      dup3\n      lt\n      iszero\n      tag_17\n      jumpi\n      dup4\n      dup3\n      swap1\n      0x00\n      mstore\n      keccak256(0x00, 0x20)\n      swap1\n      0x03\n      mul\n      add\n      mload(0x40)\n      dup1\n      0x60\n      add\n      0x40\n      mstore\n      swap1\n      dup2\n      0x00\n      dup3\n      add\n      0x00\n      swap1\n      sload\n      swap1\n      0x0100\n      exp\n      swap1\n      div\n      0xffffffffffffffffffffffffffffffffffffffff\n      and\n      0xffffffffffffffffffffffffffffffffffffffff\n      and\n      0xffffffffffffffffffffffffffffffffffffffff\n      and\n      dup2\n      mstore\n      0x20\n      add\n      0x01\n      dup3\n      add\n      0x00\n      swap1\n      sload\n      swap1\n      0x0100\n      exp\n      swap1\n      div\n      0xffffffffffffffffffffffffffffffffffffffff\n      and\n      0xffffffffffffffffffffffffffffffffffffffff\n      and\n      0xffffffffffffffffffffffffffffffffffffffff\n      and\n      dup2\n      mstore\n      0x20\n      add\n      0x02\n      dup3\n      add\n      dup1\n      sload\n      tag_19\n      swap1\n      tag_20\n      jump\t// in\n    tag_19:\n      dup1\n      0x1f\n      add\n      0x20\n      dup1\n      swap2\n      div\n      mul\n      0x20\n      add\n      mload(0x40)\n      swap1\n      dup2\n      add\n      0x40\n      mstore\n      dup1\n      swap3\n      swap2\n      swap1\n      dup2\n      dup2\n      mstore\n      0x20\n      add\n      dup3\n      dup1\n      sload\n      tag_21\n      swap1\n      tag_20\n      jump\t// in\n    tag_21:\n      dup1\n      iszero\n      tag_22\n      jumpi\n      dup1\n      0x1f\n      lt\n      tag_23\n      jumpi\n      0x0100\n      dup1\n      dup4\n      sload\n      div\n      mul\n      dup4\n      mstore\n      swap2\n      0x20\n      add\n      swap2\n      jump(tag_22)\n    tag_23:\n      dup3\n      add\n      swap2\n      swap1\n      0x00\n      mstore\n      keccak256(0x00, 0x20)\n      swap1\n    tag_24:\n      dup2\n      sload\n      dup2\n      mstore\n      swap1\n      0x01\n      add\n      swap1\n      0x20\n      add\n      dup1\n      dup4\n      gt\n      tag_24\n      jumpi\n      dup3\n      swap1\n      sub\n      0x1f\n      and\n      dup3\n      add\n      swap2\n    tag_22:\n      pop\n      pop\n      pop\n      pop\n      pop\n      dup2\n      mstore\n      pop\n      pop\n      dup2\n      mstore\n      0x20\n      add\n      swap1\n      0x01\n      add\n      swap1\n      jump(tag_16)\n    tag_17:\n      pop\n      pop\n      pop\n      pop\n      swap1\n      pop\n        /* \"contracts/ChatContract.sol\":752:886  function getMessages(address _receiver) public view returns (Message[] memory) {... */\n      swap2\n      swap1\n      pop\n      jump\t// out\n        /* \"contracts/ChatContract.sol\":411:745  function sendMessage(address _receiver, string memory _ipfsHash) public {... */\n    tag_14:\n        /* \"contracts/ChatContract.sol\":493:518  Message memory newMessage */\n      0x00\n        /* \"contracts/ChatContract.sol\":521:562  Message(msg.sender, _receiver, _ipfsHash) */\n      mload(0x40)\n      dup1\n      0x60\n      add\n      0x40\n      mstore\n      dup1\n        /* \"contracts/ChatContract.sol\":529:539  msg.sender */\n      caller\n        /* \"contracts/ChatContract.sol\":521:562  Message(msg.sender, _receiver, _ipfsHash) */\n      0xffffffffffffffffffffffffffffffffffffffff\n      and\n      dup2\n      mstore\n      0x20\n      add\n        /* \"contracts/ChatContract.sol\":541:550  _receiver */\n      dup5\n        /* \"contracts/ChatContract.sol\":521:562  Message(msg.sender, _receiver, _ipfsHash) */\n      0xffffffffffffffffffffffffffffffffffffffff\n      and\n      dup2\n      mstore\n      0x20\n      add\n        /* \"contracts/ChatContract.sol\":552:561  _ipfsHash */\n      dup4\n        /* \"contracts/ChatContract.sol\":521:562  Message(msg.sender, _receiver, _ipfsHash) */\n      dup2\n      mstore\n      pop\n        /* \"contracts/ChatContract.sol\":493:562  Message memory newMessage = Message(msg.sender, _receiver, _ipfsHash) */\n      swap1\n      pop\n        /* \"contracts/ChatContract.sol\":572:580  messages */\n      0x00\n        /* \"contracts/ChatContract.sol\":572:592  messages[msg.sender] */\n      dup1\n        /* \"contracts/ChatContract.sol\":581:591  msg.sender */\n      caller\n        /* \"contracts/ChatContract.sol\":572:592  messages[msg.sender] */\n      0xffffffffffffffffffffffffffffffffffffffff\n      and\n      0xffffffffffffffffffffffffffffffffffffffff\n      and\n      dup2\n      mstore\n      0x20\n      add\n      swap1\n      dup2\n      mstore\n      0x20\n      add\n      0x00\n      keccak256\n        /* \"contracts/ChatContract.sol\":572:603  messages[msg.sender][_receiver] */\n      0x00\n        /* \"contracts/ChatContract.sol\":593:602  _receiver */\n      dup5\n        /* \"contracts/ChatContract.sol\":572:603  messages[msg.sender][_receiver] */\n      0xffffffffffffffffffffffffffffffffffffffff\n      and\n      0xffffffffffffffffffffffffffffffffffffffff\n      and\n      dup2\n      mstore\n      0x20\n      add\n      swap1\n      dup2\n      mstore\n      0x20\n      add\n      0x00\n      keccak256\n        /* \"contracts/ChatContract.sol\":609:619  newMessage */\n      dup2\n        /* \"contracts/ChatContract.sol\":572:620  messages[msg.sender][_receiver].push(newMessage) */\n      swap1\n      dup1\n      0x01\n      dup2\n      sload\n      add\n      dup1\n      dup3\n      sstore\n      dup1\n      swap2\n      pop\n      pop\n      0x01\n      swap1\n      sub\n      swap1\n      0x00\n      mstore\n      keccak256(0x00, 0x20)\n      swap1\n      0x03\n      mul\n      add\n      0x00\n      swap1\n      swap2\n      swap1\n      swap2\n      swap1\n      swap2\n      pop\n      0x00\n      dup3\n      add\n      mload\n      dup2\n      0x00\n      add\n      exp(0x0100, 0x00)\n      dup2\n      sload\n      dup2\n      0xffffffffffffffffffffffffffffffffffffffff\n      mul\n      not\n      and\n      swap1\n      dup4\n      0xffffffffffffffffffffffffffffffffffffffff\n      and\n      mul\n      or\n      swap1\n      sstore\n      pop\n      0x20\n      dup3\n      add\n      mload\n      dup2\n      0x01\n      add\n      exp(0x0100, 0x00)\n      dup2\n      sload\n      dup2\n      0xffffffffffffffffffffffffffffffffffffffff\n      mul\n      not\n      and\n      swap1\n      dup4\n      0xffffffffffffffffffffffffffffffffffffffff\n      and\n      mul\n      or\n      swap1\n      sstore\n      pop\n      0x40\n      dup3\n      add\n      mload\n      dup2\n      0x02\n      add\n      swap1\n      dup2\n      tag_27\n      swap2\n      swap1\n      tag_28\n      jump\t// in\n    tag_27:\n      pop\n      pop\n      pop\n        /* \"contracts/ChatContract.sol\":630:638  messages */\n      0x00\n        /* \"contracts/ChatContract.sol\":630:649  messages[_receiver] */\n      dup1\n        /* \"contracts/ChatContract.sol\":639:648  _receiver */\n      dup5\n        /* \"contracts/ChatContract.sol\":630:649  messages[_receiver] */\n      0xffffffffffffffffffffffffffffffffffffffff\n      and\n      0xffffffffffffffffffffffffffffffffffffffff\n      and\n      dup2\n      mstore\n      0x20\n      add\n      swap1\n      dup2\n      mstore\n      0x20\n      add\n      0x00\n      keccak256\n        /* \"contracts/ChatContract.sol\":630:661  messages[_receiver][msg.sender] */\n      0x00\n        /* \"contracts/ChatContract.sol\":650:660  msg.sender */\n      caller\n        /* \"contracts/ChatContract.sol\":630:661  messages[_receiver][msg.sender] */\n      0xffffffffffffffffffffffffffffffffffffffff\n      and\n      0xffffffffffffffffffffffffffffffffffffffff\n      and\n      dup2\n      mstore\n      0x20\n      add\n      swap1\n      dup2\n      mstore\n      0x20\n      add\n      0x00\n      keccak256\n        /* \"contracts/ChatContract.sol\":667:677  newMessage */\n      dup2\n        /* \"contracts/ChatContract.sol\":630:678  messages[_receiver][msg.sender].push(newMessage) */\n      swap1\n      dup1\n      0x01\n      dup2\n      sload\n      add\n      dup1\n      dup3\n      sstore\n      dup1\n      swap2\n      pop\n      pop\n      0x01\n      swap1\n      sub\n      swap1\n      0x00\n      mstore\n      keccak256(0x00, 0x20)\n      swap1\n      0x03\n      mul\n      add\n      0x00\n      swap1\n      swap2\n      swap1\n      swap2\n      swap1\n      swap2\n      pop\n      0x00\n      dup3\n      add\n      mload\n      dup2\n      0x00\n      add\n      exp(0x0100, 0x00)\n      dup2\n      sload\n      dup2\n      0xffffffffffffffffffffffffffffffffffffffff\n      mul\n      not\n      and\n      swap1\n      dup4\n      0xffffffffffffffffffffffffffffffffffffffff\n      and\n      mul\n      or\n      swap1\n      sstore\n      pop\n      0x20\n      dup3\n      add\n      mload\n      dup2\n      0x01\n      add\n      exp(0x0100, 0x00)\n      dup2\n      sload\n      dup2\n      0xffffffffffffffffffffffffffffffffffffffff\n      mul\n      not\n      and\n      swap1\n      dup4\n      0xffffffffffffffffffffffffffffffffffffffff\n      and\n      mul\n      or\n      swap1\n      sstore\n      pop\n      0x40\n      dup3\n      add\n      mload\n      dup2\n      0x02\n      add\n      swap1\n      dup2\n      tag_30\n      swap2\n      swap1\n      tag_28\n      jump\t// in\n    tag_30:\n      pop\n      pop\n      pop\n        /* \"contracts/ChatContract.sol\":717:726  _receiver */\n      dup3\n        /* \"contracts/ChatContract.sol\":693:738  MessageSent(msg.sender, _receiver, _ipfsHash) */\n      0xffffffffffffffffffffffffffffffffffffffff\n      and\n        /* \"contracts/ChatContract.sol\":705:715  msg.sender */\n      caller\n        /* \"contracts/ChatContract.sol\":693:738  MessageSent(msg.sender, _receiver, _ipfsHash) */\n      0xffffffffffffffffffffffffffffffffffffffff\n      and\n      0xe2cf7446a11cbcd14cd99ea3a1bb77fb7653a64f4064d660140b5100d001e13c\n        /* \"contracts/ChatContract.sol\":728:737  _ipfsHash */\n      dup5\n        /* \"contracts/ChatContract.sol\":693:738  MessageSent(msg.sender, _receiver, _ipfsHash) */\n      mload(0x40)\n      tag_31\n      swap2\n      swap1\n      tag_32\n      jump\t// in\n    tag_31:\n      mload(0x40)\n      dup1\n      swap2\n      sub\n      swap1\n      log3\n        /* \"contracts/ChatContract.sol\":483:745  {... */\n      pop\n        /* \"contracts/ChatContract.sol\":411:745  function sendMessage(address _receiver, string memory _ipfsHash) public {... */\n      pop\n      pop\n      jump\t// out\n        /* \"#utility.yul\":7:82   */\n    tag_33:\n        /* \"#utility.yul\":40:46   */\n      0x00\n        /* \"#utility.yul\":73:75   */\n      0x40\n        /* \"#utility.yul\":67:76   */\n      mload\n        /* \"#utility.yul\":57:76   */\n      swap1\n      pop\n        /* \"#utility.yul\":7:82   */\n      swap1\n      jump\t// out\n        /* \"#utility.yul\":88:205   */\n    tag_34:\n        /* \"#utility.yul\":197:198   */\n      0x00\n        /* \"#utility.yul\":194:195   */\n      dup1\n        /* \"#utility.yul\":187:199   */\n      revert\n        /* \"#utility.yul\":211:328   */\n    tag_35:\n        /* \"#utility.yul\":320:321   */\n      0x00\n        /* \"#utility.yul\":317:318   */\n      dup1\n        /* \"#utility.yul\":310:322   */\n      revert\n        /* \"#utility.yul\":334:460   */\n    tag_36:\n        /* \"#utility.yul\":371:378   */\n      0x00\n        /* \"#utility.yul\":411:453   */\n      0xffffffffffffffffffffffffffffffffffffffff\n        /* \"#utility.yul\":404:409   */\n      dup3\n        /* \"#utility.yul\":400:454   */\n      and\n        /* \"#utility.yul\":389:454   */\n      swap1\n      pop\n        /* \"#utility.yul\":334:460   */\n      swap2\n      swap1\n      pop\n      jump\t// out\n        /* \"#utility.yul\":466:562   */\n    tag_37:\n        /* \"#utility.yul\":503:510   */\n      0x00\n        /* \"#utility.yul\":532:556   */\n      tag_87\n        /* \"#utility.yul\":550:555   */\n      dup3\n        /* \"#utility.yul\":532:556   */\n      tag_36\n      jump\t// in\n    tag_87:\n        /* \"#utility.yul\":521:556   */\n      swap1\n      pop\n        /* \"#utility.yul\":466:562   */\n      swap2\n      swap1\n      pop\n      jump\t// out\n        /* \"#utility.yul\":568:690   */\n    tag_38:\n        /* \"#utility.yul\":641:665   */\n      tag_89\n        /* \"#utility.yul\":659:664   */\n      dup2\n        /* \"#utility.yul\":641:665   */\n      tag_37\n      jump\t// in\n    tag_89:\n        /* \"#utility.yul\":634:639   */\n      dup2\n        /* \"#utility.yul\":631:666   */\n      eq\n        /* \"#utility.yul\":621:684   */\n      tag_90\n      jumpi\n        /* \"#utility.yul\":680:681   */\n      0x00\n        /* \"#utility.yul\":677:678   */\n      dup1\n        /* \"#utility.yul\":670:682   */\n      revert\n        /* \"#utility.yul\":621:684   */\n    tag_90:\n        /* \"#utility.yul\":568:690   */\n      pop\n      jump\t// out\n        /* \"#utility.yul\":696:835   */\n    tag_39:\n        /* \"#utility.yul\":742:747   */\n      0x00\n        /* \"#utility.yul\":780:786   */\n      dup2\n        /* \"#utility.yul\":767:787   */\n      calldataload\n        /* \"#utility.yul\":758:787   */\n      swap1\n      pop\n        /* \"#utility.yul\":796:829   */\n      tag_92\n        /* \"#utility.yul\":823:828   */\n      dup2\n        /* \"#utility.yul\":796:829   */\n      tag_38\n      jump\t// in\n    tag_92:\n        /* \"#utility.yul\":696:835   */\n      swap3\n      swap2\n      pop\n      pop\n      jump\t// out\n        /* \"#utility.yul\":841:1170   */\n    tag_7:\n        /* \"#utility.yul\":900:906   */\n      0x00\n        /* \"#utility.yul\":949:951   */\n      0x20\n        /* \"#utility.yul\":937:946   */\n      dup3\n        /* \"#utility.yul\":928:935   */\n      dup5\n        /* \"#utility.yul\":924:947   */\n      sub\n        /* \"#utility.yul\":920:952   */\n      slt\n        /* \"#utility.yul\":917:1036   */\n      iszero\n      tag_94\n      jumpi\n        /* \"#utility.yul\":955:1034   */\n      tag_95\n      tag_34\n      jump\t// in\n    tag_95:\n        /* \"#utility.yul\":917:1036   */\n    tag_94:\n        /* \"#utility.yul\":1075:1076   */\n      0x00\n        /* \"#utility.yul\":1100:1153   */\n      tag_96\n        /* \"#utility.yul\":1145:1152   */\n      dup5\n        /* \"#utility.yul\":1136:1142   */\n      dup3\n        /* \"#utility.yul\":1125:1134   */\n      dup6\n        /* \"#utility.yul\":1121:1143   */\n      add\n        /* \"#utility.yul\":1100:1153   */\n      tag_39\n      jump\t// in\n    tag_96:\n        /* \"#utility.yul\":1090:1153   */\n      swap2\n      pop\n        /* \"#utility.yul\":1046:1163   */\n      pop\n        /* \"#utility.yul\":841:1170   */\n      swap3\n      swap2\n      pop\n      pop\n      jump\t// out\n        /* \"#utility.yul\":1176:1312   */\n    tag_40:\n        /* \"#utility.yul\":1265:1271   */\n      0x00\n        /* \"#utility.yul\":1299:1304   */\n      dup2\n        /* \"#utility.yul\":1293:1305   */\n      mload\n        /* \"#utility.yul\":1283:1305   */\n      swap1\n      pop\n        /* \"#utility.yul\":1176:1312   */\n      swap2\n      swap1\n      pop\n      jump\t// out\n        /* \"#utility.yul\":1318:1524   */\n    tag_41:\n        /* \"#utility.yul\":1439:1450   */\n      0x00\n        /* \"#utility.yul\":1473:1479   */\n      dup3\n        /* \"#utility.yul\":1468:1471   */\n      dup3\n        /* \"#utility.yul\":1461:1480   */\n      mstore\n        /* \"#utility.yul\":1513:1517   */\n      0x20\n        /* \"#utility.yul\":1508:1511   */\n      dup3\n        /* \"#utility.yul\":1504:1518   */\n      add\n        /* \"#utility.yul\":1489:1518   */\n      swap1\n      pop\n        /* \"#utility.yul\":1318:1524   */\n      swap3\n      swap2\n      pop\n      pop\n      jump\t// out\n        /* \"#utility.yul\":1530:1684   */\n    tag_42:\n        /* \"#utility.yul\":1619:1623   */\n      0x00\n        /* \"#utility.yul\":1642:1645   */\n      dup2\n        /* \"#utility.yul\":1634:1645   */\n      swap1\n      pop\n        /* \"#utility.yul\":1672:1676   */\n      0x20\n        /* \"#utility.yul\":1667:1670   */\n      dup3\n        /* \"#utility.yul\":1663:1677   */\n      add\n        /* \"#utility.yul\":1655:1677   */\n      swap1\n      pop\n        /* \"#utility.yul\":1530:1684   */\n      swap2\n      swap1\n      pop\n      jump\t// out\n        /* \"#utility.yul\":1690:1798   */\n    tag_43:\n        /* \"#utility.yul\":1767:1791   */\n      tag_101\n        /* \"#utility.yul\":1785:1790   */\n      dup2\n        /* \"#utility.yul\":1767:1791   */\n      tag_37\n      jump\t// in\n    tag_101:\n        /* \"#utility.yul\":1762:1765   */\n      dup3\n        /* \"#utility.yul\":1755:1792   */\n      mstore\n        /* \"#utility.yul\":1690:1798   */\n      pop\n      pop\n      jump\t// out\n        /* \"#utility.yul\":1804:1903   */\n    tag_44:\n        /* \"#utility.yul\":1856:1862   */\n      0x00\n        /* \"#utility.yul\":1890:1895   */\n      dup2\n        /* \"#utility.yul\":1884:1896   */\n      mload\n        /* \"#utility.yul\":1874:1896   */\n      swap1\n      pop\n        /* \"#utility.yul\":1804:1903   */\n      swap2\n      swap1\n      pop\n      jump\t// out\n        /* \"#utility.yul\":1909:2068   */\n    tag_45:\n        /* \"#utility.yul\":1983:1994   */\n      0x00\n        /* \"#utility.yul\":2017:2023   */\n      dup3\n        /* \"#utility.yul\":2012:2015   */\n      dup3\n        /* \"#utility.yul\":2005:2024   */\n      mstore\n        /* \"#utility.yul\":2057:2061   */\n      0x20\n        /* \"#utility.yul\":2052:2055   */\n      dup3\n        /* \"#utility.yul\":2048:2062   */\n      add\n        /* \"#utility.yul\":2033:2062   */\n      swap1\n      pop\n        /* \"#utility.yul\":1909:2068   */\n      swap3\n      swap2\n      pop\n      pop\n      jump\t// out\n        /* \"#utility.yul\":2074:2320   */\n    tag_46:\n        /* \"#utility.yul\":2155:2156   */\n      0x00\n        /* \"#utility.yul\":2165:2278   */\n    tag_105:\n        /* \"#utility.yul\":2179:2185   */\n      dup4\n        /* \"#utility.yul\":2176:2177   */\n      dup2\n        /* \"#utility.yul\":2173:2186   */\n      lt\n        /* \"#utility.yul\":2165:2278   */\n      iszero\n      tag_107\n      jumpi\n        /* \"#utility.yul\":2264:2265   */\n      dup1\n        /* \"#utility.yul\":2259:2262   */\n      dup3\n        /* \"#utility.yul\":2255:2266   */\n      add\n        /* \"#utility.yul\":2249:2267   */\n      mload\n        /* \"#utility.yul\":2245:2246   */\n      dup2\n        /* \"#utility.yul\":2240:2243   */\n      dup5\n        /* \"#utility.yul\":2236:2247   */\n      add\n        /* \"#utility.yul\":2229:2268   */\n      mstore\n        /* \"#utility.yul\":2201:2203   */\n      0x20\n        /* \"#utility.yul\":2198:2199   */\n      dup2\n        /* \"#utility.yul\":2194:2204   */\n      add\n        /* \"#utility.yul\":2189:2204   */\n      swap1\n      pop\n        /* \"#utility.yul\":2165:2278   */\n      jump(tag_105)\n    tag_107:\n        /* \"#utility.yul\":2312:2313   */\n      0x00\n        /* \"#utility.yul\":2303:2309   */\n      dup5\n        /* \"#utility.yul\":2298:2301   */\n      dup5\n        /* \"#utility.yul\":2294:2310   */\n      add\n        /* \"#utility.yul\":2287:2314   */\n      mstore\n        /* \"#utility.yul\":2136:2320   */\n      pop\n        /* \"#utility.yul\":2074:2320   */\n      pop\n      pop\n      pop\n      jump\t// out\n        /* \"#utility.yul\":2326:2428   */\n    tag_47:\n        /* \"#utility.yul\":2367:2373   */\n      0x00\n        /* \"#utility.yul\":2418:2420   */\n      0x1f\n        /* \"#utility.yul\":2414:2421   */\n      not\n        /* \"#utility.yul\":2409:2411   */\n      0x1f\n        /* \"#utility.yul\":2402:2407   */\n      dup4\n        /* \"#utility.yul\":2398:2412   */\n      add\n        /* \"#utility.yul\":2394:2422   */\n      and\n        /* \"#utility.yul\":2384:2422   */\n      swap1\n      pop\n        /* \"#utility.yul\":2326:2428   */\n      swap2\n      swap1\n      pop\n      jump\t// out\n        /* \"#utility.yul\":2434:2791   */\n    tag_48:\n        /* \"#utility.yul\":2512:2515   */\n      0x00\n        /* \"#utility.yul\":2540:2579   */\n      tag_110\n        /* \"#utility.yul\":2573:2578   */\n      dup3\n        /* \"#utility.yul\":2540:2579   */\n      tag_44\n      jump\t// in\n    tag_110:\n        /* \"#utility.yul\":2595:2656   */\n      tag_111\n        /* \"#utility.yul\":2649:2655   */\n      dup2\n        /* \"#utility.yul\":2644:2647   */\n      dup6\n        /* \"#utility.yul\":2595:2656   */\n      tag_45\n      jump\t// in\n    tag_111:\n        /* \"#utility.yul\":2588:2656   */\n      swap4\n      pop\n        /* \"#utility.yul\":2665:2730   */\n      tag_112\n        /* \"#utility.yul\":2723:2729   */\n      dup2\n        /* \"#utility.yul\":2718:2721   */\n      dup6\n        /* \"#utility.yul\":2711:2715   */\n      0x20\n        /* \"#utility.yul\":2704:2709   */\n      dup7\n        /* \"#utility.yul\":2700:2716   */\n      add\n        /* \"#utility.yul\":2665:2730   */\n      tag_46\n      jump\t// in\n    tag_112:\n        /* \"#utility.yul\":2755:2784   */\n      tag_113\n        /* \"#utility.yul\":2777:2783   */\n      dup2\n        /* \"#utility.yul\":2755:2784   */\n      tag_47\n      jump\t// in\n    tag_113:\n        /* \"#utility.yul\":2750:2753   */\n      dup5\n        /* \"#utility.yul\":2746:2785   */\n      add\n        /* \"#utility.yul\":2739:2785   */\n      swap2\n      pop\n        /* \"#utility.yul\":2516:2791   */\n      pop\n        /* \"#utility.yul\":2434:2791   */\n      swap3\n      swap2\n      pop\n      pop\n      jump\t// out\n        /* \"#utility.yul\":2863:3637   */\n    tag_49:\n        /* \"#utility.yul\":2966:2969   */\n      0x00\n        /* \"#utility.yul\":3002:3006   */\n      0x60\n        /* \"#utility.yul\":2997:3000   */\n      dup4\n        /* \"#utility.yul\":2993:3007   */\n      add\n        /* \"#utility.yul\":3091:3095   */\n      0x00\n        /* \"#utility.yul\":3084:3089   */\n      dup4\n        /* \"#utility.yul\":3080:3096   */\n      add\n        /* \"#utility.yul\":3074:3097   */\n      mload\n        /* \"#utility.yul\":3110:3173   */\n      tag_115\n        /* \"#utility.yul\":3167:3171   */\n      0x00\n        /* \"#utility.yul\":3162:3165   */\n      dup7\n        /* \"#utility.yul\":3158:3172   */\n      add\n        /* \"#utility.yul\":3144:3156   */\n      dup3\n        /* \"#utility.yul\":3110:3173   */\n      tag_43\n      jump\t// in\n    tag_115:\n        /* \"#utility.yul\":3017:3183   */\n      pop\n        /* \"#utility.yul\":3269:3273   */\n      0x20\n        /* \"#utility.yul\":3262:3267   */\n      dup4\n        /* \"#utility.yul\":3258:3274   */\n      add\n        /* \"#utility.yul\":3252:3275   */\n      mload\n        /* \"#utility.yul\":3288:3351   */\n      tag_116\n        /* \"#utility.yul\":3345:3349   */\n      0x20\n        /* \"#utility.yul\":3340:3343   */\n      dup7\n        /* \"#utility.yul\":3336:3350   */\n      add\n        /* \"#utility.yul\":3322:3334   */\n      dup3\n        /* \"#utility.yul\":3288:3351   */\n      tag_43\n      jump\t// in\n    tag_116:\n        /* \"#utility.yul\":3193:3361   */\n      pop\n        /* \"#utility.yul\":3447:3451   */\n      0x40\n        /* \"#utility.yul\":3440:3445   */\n      dup4\n        /* \"#utility.yul\":3436:3452   */\n      add\n        /* \"#utility.yul\":3430:3453   */\n      mload\n        /* \"#utility.yul\":3500:3503   */\n      dup5\n        /* \"#utility.yul\":3494:3498   */\n      dup3\n        /* \"#utility.yul\":3490:3504   */\n      sub\n        /* \"#utility.yul\":3483:3487   */\n      0x40\n        /* \"#utility.yul\":3478:3481   */\n      dup7\n        /* \"#utility.yul\":3474:3488   */\n      add\n        /* \"#utility.yul\":3467:3505   */\n      mstore\n        /* \"#utility.yul\":3526:3599   */\n      tag_117\n        /* \"#utility.yul\":3594:3598   */\n      dup3\n        /* \"#utility.yul\":3580:3592   */\n      dup3\n        /* \"#utility.yul\":3526:3599   */\n      tag_48\n      jump\t// in\n    tag_117:\n        /* \"#utility.yul\":3518:3599   */\n      swap2\n      pop\n        /* \"#utility.yul\":3371:3610   */\n      pop\n        /* \"#utility.yul\":3627:3631   */\n      dup1\n        /* \"#utility.yul\":3620:3631   */\n      swap2\n      pop\n        /* \"#utility.yul\":2971:3637   */\n      pop\n        /* \"#utility.yul\":2863:3637   */\n      swap3\n      swap2\n      pop\n      pop\n      jump\t// out\n        /* \"#utility.yul\":3643:3887   */\n    tag_50:\n        /* \"#utility.yul\":3756:3766   */\n      0x00\n        /* \"#utility.yul\":3791:3881   */\n      tag_119\n        /* \"#utility.yul\":3877:3880   */\n      dup4\n        /* \"#utility.yul\":3869:3875   */\n      dup4\n        /* \"#utility.yul\":3791:3881   */\n      tag_49\n      jump\t// in\n    tag_119:\n        /* \"#utility.yul\":3777:3881   */\n      swap1\n      pop\n        /* \"#utility.yul\":3643:3887   */\n      swap3\n      swap2\n      pop\n      pop\n      jump\t// out\n        /* \"#utility.yul\":3893:4028   */\n    tag_51:\n        /* \"#utility.yul\":3985:3989   */\n      0x00\n        /* \"#utility.yul\":4017:4021   */\n      0x20\n        /* \"#utility.yul\":4012:4015   */\n      dup3\n        /* \"#utility.yul\":4008:4022   */\n      add\n        /* \"#utility.yul\":4000:4022   */\n      swap1\n      pop\n        /* \"#utility.yul\":3893:4028   */\n      swap2\n      swap1\n      pop\n      jump\t// out\n        /* \"#utility.yul\":4104:5191   */\n    tag_52:\n        /* \"#utility.yul\":4267:4270   */\n      0x00\n        /* \"#utility.yul\":4296:4372   */\n      tag_122\n        /* \"#utility.yul\":4366:4371   */\n      dup3\n        /* \"#utility.yul\":4296:4372   */\n      tag_40\n      jump\t// in\n    tag_122:\n        /* \"#utility.yul\":4388:4496   */\n      tag_123\n        /* \"#utility.yul\":4489:4495   */\n      dup2\n        /* \"#utility.yul\":4484:4487   */\n      dup6\n        /* \"#utility.yul\":4388:4496   */\n      tag_41\n      jump\t// in\n    tag_123:\n        /* \"#utility.yul\":4381:4496   */\n      swap4\n      pop\n        /* \"#utility.yul\":4522:4525   */\n      dup4\n        /* \"#utility.yul\":4567:4571   */\n      0x20\n        /* \"#utility.yul\":4559:4565   */\n      dup3\n        /* \"#utility.yul\":4555:4572   */\n      mul\n        /* \"#utility.yul\":4550:4553   */\n      dup6\n        /* \"#utility.yul\":4546:4573   */\n      add\n        /* \"#utility.yul\":4597:4675   */\n      tag_124\n        /* \"#utility.yul\":4669:4674   */\n      dup6\n        /* \"#utility.yul\":4597:4675   */\n      tag_42\n      jump\t// in\n    tag_124:\n        /* \"#utility.yul\":4698:4705   */\n      dup1\n        /* \"#utility.yul\":4729:4730   */\n      0x00\n        /* \"#utility.yul\":4714:5146   */\n    tag_125:\n        /* \"#utility.yul\":4739:4745   */\n      dup6\n        /* \"#utility.yul\":4736:4737   */\n      dup2\n        /* \"#utility.yul\":4733:4746   */\n      lt\n        /* \"#utility.yul\":4714:5146   */\n      iszero\n      tag_127\n      jumpi\n        /* \"#utility.yul\":4810:4819   */\n      dup5\n        /* \"#utility.yul\":4804:4808   */\n      dup5\n        /* \"#utility.yul\":4800:4820   */\n      sub\n        /* \"#utility.yul\":4795:4798   */\n      dup10\n        /* \"#utility.yul\":4788:4821   */\n      mstore\n        /* \"#utility.yul\":4861:4867   */\n      dup2\n        /* \"#utility.yul\":4855:4868   */\n      mload\n        /* \"#utility.yul\":4889:4997   */\n      tag_128\n        /* \"#utility.yul\":4992:4996   */\n      dup6\n        /* \"#utility.yul\":4977:4990   */\n      dup3\n        /* \"#utility.yul\":4889:4997   */\n      tag_50\n      jump\t// in\n    tag_128:\n        /* \"#utility.yul\":4881:4997   */\n      swap5\n      pop\n        /* \"#utility.yul\":5020:5102   */\n      tag_129\n        /* \"#utility.yul\":5095:5101   */\n      dup4\n        /* \"#utility.yul\":5020:5102   */\n      tag_51\n      jump\t// in\n    tag_129:\n        /* \"#utility.yul\":5010:5102   */\n      swap3\n      pop\n        /* \"#utility.yul\":5131:5135   */\n      0x20\n        /* \"#utility.yul\":5126:5129   */\n      dup11\n        /* \"#utility.yul\":5122:5136   */\n      add\n        /* \"#utility.yul\":5115:5136   */\n      swap10\n      pop\n        /* \"#utility.yul\":4774:5146   */\n      pop\n        /* \"#utility.yul\":4761:4762   */\n      0x01\n        /* \"#utility.yul\":4758:4759   */\n      dup2\n        /* \"#utility.yul\":4754:4763   */\n      add\n        /* \"#utility.yul\":4749:4763   */\n      swap1\n      pop\n        /* \"#utility.yul\":4714:5146   */\n      jump(tag_125)\n    tag_127:\n        /* \"#utility.yul\":4718:4732   */\n      pop\n        /* \"#utility.yul\":5162:5166   */\n      dup3\n        /* \"#utility.yul\":5155:5166   */\n      swap8\n      pop\n        /* \"#utility.yul\":5182:5185   */\n      dup8\n        /* \"#utility.yul\":5175:5185   */\n      swap6\n      pop\n        /* \"#utility.yul\":4272:5191   */\n      pop\n      pop\n      pop\n      pop\n      pop\n        /* \"#utility.yul\":4104:5191   */\n      swap3\n      swap2\n      pop\n      pop\n      jump\t// out\n        /* \"#utility.yul\":5197:5658   */\n    tag_10:\n        /* \"#utility.yul\":5384:5388   */\n      0x00\n        /* \"#utility.yul\":5422:5424   */\n      0x20\n        /* \"#utility.yul\":5411:5420   */\n      dup3\n        /* \"#utility.yul\":5407:5425   */\n      add\n        /* \"#utility.yul\":5399:5425   */\n      swap1\n      pop\n        /* \"#utility.yul\":5471:5480   */\n      dup2\n        /* \"#utility.yul\":5465:5469   */\n      dup2\n        /* \"#utility.yul\":5461:5481   */\n      sub\n        /* \"#utility.yul\":5457:5458   */\n      0x00\n        /* \"#utility.yul\":5446:5455   */\n      dup4\n        /* \"#utility.yul\":5442:5459   */\n      add\n        /* \"#utility.yul\":5435:5482   */\n      mstore\n        /* \"#utility.yul\":5499:5651   */\n      tag_131\n        /* \"#utility.yul\":5646:5650   */\n      dup2\n        /* \"#utility.yul\":5637:5643   */\n      dup5\n        /* \"#utility.yul\":5499:5651   */\n      tag_52\n      jump\t// in\n    tag_131:\n        /* \"#utility.yul\":5491:5651   */\n      swap1\n      pop\n        /* \"#utility.yul\":5197:5658   */\n      swap3\n      swap2\n      pop\n      pop\n      jump\t// out\n        /* \"#utility.yul\":5664:5781   */\n    tag_53:\n        /* \"#utility.yul\":5773:5774   */\n      0x00\n        /* \"#utility.yul\":5770:5771   */\n      dup1\n        /* \"#utility.yul\":5763:5775   */\n      revert\n        /* \"#utility.yul\":5787:5904   */\n    tag_54:\n        /* \"#utility.yul\":5896:5897   */\n      0x00\n        /* \"#utility.yul\":5893:5894   */\n      dup1\n        /* \"#utility.yul\":5886:5898   */\n      revert\n        /* \"#utility.yul\":5910:6090   */\n    tag_55:\n        /* \"#utility.yul\":5958:6035   */\n      0x4e487b7100000000000000000000000000000000000000000000000000000000\n        /* \"#utility.yul\":5955:5956   */\n      0x00\n        /* \"#utility.yul\":5948:6036   */\n      mstore\n        /* \"#utility.yul\":6055:6059   */\n      0x41\n        /* \"#utility.yul\":6052:6053   */\n      0x04\n        /* \"#utility.yul\":6045:6060   */\n      mstore\n        /* \"#utility.yul\":6079:6083   */\n      0x24\n        /* \"#utility.yul\":6076:6077   */\n      0x00\n        /* \"#utility.yul\":6069:6084   */\n      revert\n        /* \"#utility.yul\":6096:6377   */\n    tag_56:\n        /* \"#utility.yul\":6179:6206   */\n      tag_136\n        /* \"#utility.yul\":6201:6205   */\n      dup3\n        /* \"#utility.yul\":6179:6206   */\n      tag_47\n      jump\t// in\n    tag_136:\n        /* \"#utility.yul\":6171:6177   */\n      dup2\n        /* \"#utility.yul\":6167:6207   */\n      add\n        /* \"#utility.yul\":6309:6315   */\n      dup2\n        /* \"#utility.yul\":6297:6307   */\n      dup2\n        /* \"#utility.yul\":6294:6316   */\n      lt\n        /* \"#utility.yul\":6273:6291   */\n      0xffffffffffffffff\n        /* \"#utility.yul\":6261:6271   */\n      dup3\n        /* \"#utility.yul\":6258:6292   */\n      gt\n        /* \"#utility.yul\":6255:6317   */\n      or\n        /* \"#utility.yul\":6252:6340   */\n      iszero\n      tag_137\n      jumpi\n        /* \"#utility.yul\":6320:6338   */\n      tag_138\n      tag_55\n      jump\t// in\n    tag_138:\n        /* \"#utility.yul\":6252:6340   */\n    tag_137:\n        /* \"#utility.yul\":6360:6370   */\n      dup1\n        /* \"#utility.yul\":6356:6358   */\n      0x40\n        /* \"#utility.yul\":6349:6371   */\n      mstore\n        /* \"#utility.yul\":6139:6377   */\n      pop\n        /* \"#utility.yul\":6096:6377   */\n      pop\n      pop\n      jump\t// out\n        /* \"#utility.yul\":6383:6512   */\n    tag_57:\n        /* \"#utility.yul\":6417:6423   */\n      0x00\n        /* \"#utility.yul\":6444:6464   */\n      tag_140\n      tag_33\n      jump\t// in\n    tag_140:\n        /* \"#utility.yul\":6434:6464   */\n      swap1\n      pop\n        /* \"#utility.yul\":6473:6506   */\n      tag_141\n        /* \"#utility.yul\":6501:6505   */\n      dup3\n        /* \"#utility.yul\":6493:6499   */\n      dup3\n        /* \"#utility.yul\":6473:6506   */\n      tag_56\n      jump\t// in\n    tag_141:\n        /* \"#utility.yul\":6383:6512   */\n      swap2\n      swap1\n      pop\n      jump\t// out\n        /* \"#utility.yul\":6518:6826   */\n    tag_58:\n        /* \"#utility.yul\":6580:6584   */\n      0x00\n        /* \"#utility.yul\":6670:6688   */\n      0xffffffffffffffff\n        /* \"#utility.yul\":6662:6668   */\n      dup3\n        /* \"#utility.yul\":6659:6689   */\n      gt\n        /* \"#utility.yul\":6656:6712   */\n      iszero\n      tag_143\n      jumpi\n        /* \"#utility.yul\":6692:6710   */\n      tag_144\n      tag_55\n      jump\t// in\n    tag_144:\n        /* \"#utility.yul\":6656:6712   */\n    tag_143:\n        /* \"#utility.yul\":6730:6759   */\n      tag_145\n        /* \"#utility.yul\":6752:6758   */\n      dup3\n        /* \"#utility.yul\":6730:6759   */\n      tag_47\n      jump\t// in\n    tag_145:\n        /* \"#utility.yul\":6722:6759   */\n      swap1\n      pop\n        /* \"#utility.yul\":6814:6818   */\n      0x20\n        /* \"#utility.yul\":6808:6812   */\n      dup2\n        /* \"#utility.yul\":6804:6819   */\n      add\n        /* \"#utility.yul\":6796:6819   */\n      swap1\n      pop\n        /* \"#utility.yul\":6518:6826   */\n      swap2\n      swap1\n      pop\n      jump\t// out\n        /* \"#utility.yul\":6832:6978   */\n    tag_59:\n        /* \"#utility.yul\":6929:6935   */\n      dup3\n        /* \"#utility.yul\":6924:6927   */\n      dup2\n        /* \"#utility.yul\":6919:6922   */\n      dup4\n        /* \"#utility.yul\":6906:6936   */\n      calldatacopy\n        /* \"#utility.yul\":6970:6971   */\n      0x00\n        /* \"#utility.yul\":6961:6967   */\n      dup4\n        /* \"#utility.yul\":6956:6959   */\n      dup4\n        /* \"#utility.yul\":6952:6968   */\n      add\n        /* \"#utility.yul\":6945:6972   */\n      mstore\n        /* \"#utility.yul\":6832:6978   */\n      pop\n      pop\n      pop\n      jump\t// out\n        /* \"#utility.yul\":6984:7409   */\n    tag_60:\n        /* \"#utility.yul\":7062:7067   */\n      0x00\n        /* \"#utility.yul\":7087:7153   */\n      tag_148\n        /* \"#utility.yul\":7103:7152   */\n      tag_149\n        /* \"#utility.yul\":7145:7151   */\n      dup5\n        /* \"#utility.yul\":7103:7152   */\n      tag_58\n      jump\t// in\n    tag_149:\n        /* \"#utility.yul\":7087:7153   */\n      tag_57\n      jump\t// in\n    tag_148:\n        /* \"#utility.yul\":7078:7153   */\n      swap1\n      pop\n        /* \"#utility.yul\":7176:7182   */\n      dup3\n        /* \"#utility.yul\":7169:7174   */\n      dup2\n        /* \"#utility.yul\":7162:7183   */\n      mstore\n        /* \"#utility.yul\":7214:7218   */\n      0x20\n        /* \"#utility.yul\":7207:7212   */\n      dup2\n        /* \"#utility.yul\":7203:7219   */\n      add\n        /* \"#utility.yul\":7252:7255   */\n      dup5\n        /* \"#utility.yul\":7243:7249   */\n      dup5\n        /* \"#utility.yul\":7238:7241   */\n      dup5\n        /* \"#utility.yul\":7234:7250   */\n      add\n        /* \"#utility.yul\":7231:7256   */\n      gt\n        /* \"#utility.yul\":7228:7340   */\n      iszero\n      tag_150\n      jumpi\n        /* \"#utility.yul\":7259:7338   */\n      tag_151\n      tag_54\n      jump\t// in\n    tag_151:\n        /* \"#utility.yul\":7228:7340   */\n    tag_150:\n        /* \"#utility.yul\":7349:7403   */\n      tag_152\n        /* \"#utility.yul\":7396:7402   */\n      dup5\n        /* \"#utility.yul\":7391:7394   */\n      dup3\n        /* \"#utility.yul\":7386:7389   */\n      dup6\n        /* \"#utility.yul\":7349:7403   */\n      tag_59\n      jump\t// in\n    tag_152:\n        /* \"#utility.yul\":7068:7409   */\n      pop\n        /* \"#utility.yul\":6984:7409   */\n      swap4\n      swap3\n      pop\n      pop\n      pop\n      jump\t// out\n        /* \"#utility.yul\":7429:7769   */\n    tag_61:\n        /* \"#utility.yul\":7485:7490   */\n      0x00\n        /* \"#utility.yul\":7534:7537   */\n      dup3\n        /* \"#utility.yul\":7527:7531   */\n      0x1f\n        /* \"#utility.yul\":7519:7525   */\n      dup4\n        /* \"#utility.yul\":7515:7532   */\n      add\n        /* \"#utility.yul\":7511:7538   */\n      slt\n        /* \"#utility.yul\":7501:7623   */\n      tag_154\n      jumpi\n        /* \"#utility.yul\":7542:7621   */\n      tag_155\n      tag_53\n      jump\t// in\n    tag_155:\n        /* \"#utility.yul\":7501:7623   */\n    tag_154:\n        /* \"#utility.yul\":7659:7665   */\n      dup2\n        /* \"#utility.yul\":7646:7666   */\n      calldataload\n        /* \"#utility.yul\":7684:7763   */\n      tag_156\n        /* \"#utility.yul\":7759:7762   */\n      dup5\n        /* \"#utility.yul\":7751:7757   */\n      dup3\n        /* \"#utility.yul\":7744:7748   */\n      0x20\n        /* \"#utility.yul\":7736:7742   */\n      dup7\n        /* \"#utility.yul\":7732:7749   */\n      add\n        /* \"#utility.yul\":7684:7763   */\n      tag_60\n      jump\t// in\n    tag_156:\n        /* \"#utility.yul\":7675:7763   */\n      swap2\n      pop\n        /* \"#utility.yul\":7491:7769   */\n      pop\n        /* \"#utility.yul\":7429:7769   */\n      swap3\n      swap2\n      pop\n      pop\n      jump\t// out\n        /* \"#utility.yul\":7775:8429   */\n    tag_13:\n        /* \"#utility.yul\":7853:7859   */\n      0x00\n        /* \"#utility.yul\":7861:7867   */\n      dup1\n        /* \"#utility.yul\":7910:7912   */\n      0x40\n        /* \"#utility.yul\":7898:7907   */\n      dup4\n        /* \"#utility.yul\":7889:7896   */\n      dup6\n        /* \"#utility.yul\":7885:7908   */\n      sub\n        /* \"#utility.yul\":7881:7913   */\n      slt\n        /* \"#utility.yul\":7878:7997   */\n      iszero\n      tag_158\n      jumpi\n        /* \"#utility.yul\":7916:7995   */\n      tag_159\n      tag_34\n      jump\t// in\n    tag_159:\n        /* \"#utility.yul\":7878:7997   */\n    tag_158:\n        /* \"#utility.yul\":8036:8037   */\n      0x00\n        /* \"#utility.yul\":8061:8114   */\n      tag_160\n        /* \"#utility.yul\":8106:8113   */\n      dup6\n        /* \"#utility.yul\":8097:8103   */\n      dup3\n        /* \"#utility.yul\":8086:8095   */\n      dup7\n        /* \"#utility.yul\":8082:8104   */\n      add\n        /* \"#utility.yul\":8061:8114   */\n      tag_39\n      jump\t// in\n    tag_160:\n        /* \"#utility.yul\":8051:8114   */\n      swap3\n      pop\n        /* \"#utility.yul\":8007:8124   */\n      pop\n        /* \"#utility.yul\":8191:8193   */\n      0x20\n        /* \"#utility.yul\":8180:8189   */\n      dup4\n        /* \"#utility.yul\":8176:8194   */\n      add\n        /* \"#utility.yul\":8163:8195   */\n      calldataload\n        /* \"#utility.yul\":8222:8240   */\n      0xffffffffffffffff\n        /* \"#utility.yul\":8214:8220   */\n      dup2\n        /* \"#utility.yul\":8211:8241   */\n      gt\n        /* \"#utility.yul\":8208:8325   */\n      iszero\n      tag_161\n      jumpi\n        /* \"#utility.yul\":8244:8323   */\n      tag_162\n      tag_35\n      jump\t// in\n    tag_162:\n        /* \"#utility.yul\":8208:8325   */\n    tag_161:\n        /* \"#utility.yul\":8349:8412   */\n      tag_163\n        /* \"#utility.yul\":8404:8411   */\n      dup6\n        /* \"#utility.yul\":8395:8401   */\n      dup3\n        /* \"#utility.yul\":8384:8393   */\n      dup7\n        /* \"#utility.yul\":8380:8402   */\n      add\n        /* \"#utility.yul\":8349:8412   */\n      tag_61\n      jump\t// in\n    tag_163:\n        /* \"#utility.yul\":8339:8412   */\n      swap2\n      pop\n        /* \"#utility.yul\":8134:8422   */\n      pop\n        /* \"#utility.yul\":7775:8429   */\n      swap3\n      pop\n      swap3\n      swap1\n      pop\n      jump\t// out\n        /* \"#utility.yul\":8435:8615   */\n    tag_62:\n        /* \"#utility.yul\":8483:8560   */\n      0x4e487b7100000000000000000000000000000000000000000000000000000000\n        /* \"#utility.yul\":8480:8481   */\n      0x00\n        /* \"#utility.yul\":8473:8561   */\n      mstore\n        /* \"#utility.yul\":8580:8584   */\n      0x22\n        /* \"#utility.yul\":8577:8578   */\n      0x04\n        /* \"#utility.yul\":8570:8585   */\n      mstore\n        /* \"#utility.yul\":8604:8608   */\n      0x24\n        /* \"#utility.yul\":8601:8602   */\n      0x00\n        /* \"#utility.yul\":8594:8609   */\n      revert\n        /* \"#utility.yul\":8621:8941   */\n    tag_20:\n        /* \"#utility.yul\":8665:8671   */\n      0x00\n        /* \"#utility.yul\":8702:8703   */\n      0x02\n        /* \"#utility.yul\":8696:8700   */\n      dup3\n        /* \"#utility.yul\":8692:8704   */\n      div\n        /* \"#utility.yul\":8682:8704   */\n      swap1\n      pop\n        /* \"#utility.yul\":8749:8750   */\n      0x01\n        /* \"#utility.yul\":8743:8747   */\n      dup3\n        /* \"#utility.yul\":8739:8751   */\n      and\n        /* \"#utility.yul\":8770:8788   */\n      dup1\n        /* \"#utility.yul\":8760:8841   */\n      tag_166\n      jumpi\n        /* \"#utility.yul\":8826:8830   */\n      0x7f\n        /* \"#utility.yul\":8818:8824   */\n      dup3\n        /* \"#utility.yul\":8814:8831   */\n      and\n        /* \"#utility.yul\":8804:8831   */\n      swap2\n      pop\n        /* \"#utility.yul\":8760:8841   */\n    tag_166:\n        /* \"#utility.yul\":8888:8890   */\n      0x20\n        /* \"#utility.yul\":8880:8886   */\n      dup3\n        /* \"#utility.yul\":8877:8891   */\n      lt\n        /* \"#utility.yul\":8857:8875   */\n      dup2\n        /* \"#utility.yul\":8854:8892   */\n      sub\n        /* \"#utility.yul\":8851:8935   */\n      tag_167\n      jumpi\n        /* \"#utility.yul\":8907:8925   */\n      tag_168\n      tag_62\n      jump\t// in\n    tag_168:\n        /* \"#utility.yul\":8851:8935   */\n    tag_167:\n        /* \"#utility.yul\":8672:8941   */\n      pop\n        /* \"#utility.yul\":8621:8941   */\n      swap2\n      swap1\n      pop\n      jump\t// out\n        /* \"#utility.yul\":8947:9088   */\n    tag_63:\n        /* \"#utility.yul\":8996:9000   */\n      0x00\n        /* \"#utility.yul\":9019:9022   */\n      dup2\n        /* \"#utility.yul\":9011:9022   */\n      swap1\n      pop\n        /* \"#utility.yul\":9042:9045   */\n      dup2\n        /* \"#utility.yul\":9039:9040   */\n      0x00\n        /* \"#utility.yul\":9032:9046   */\n      mstore\n        /* \"#utility.yul\":9076:9080   */\n      0x20\n        /* \"#utility.yul\":9073:9074   */\n      0x00\n        /* \"#utility.yul\":9063:9081   */\n      keccak256\n        /* \"#utility.yul\":9055:9081   */\n      swap1\n      pop\n        /* \"#utility.yul\":8947:9088   */\n      swap2\n      swap1\n      pop\n      jump\t// out\n        /* \"#utility.yul\":9094:9187   */\n    tag_64:\n        /* \"#utility.yul\":9131:9137   */\n      0x00\n        /* \"#utility.yul\":9178:9180   */\n      0x20\n        /* \"#utility.yul\":9173:9175   */\n      0x1f\n        /* \"#utility.yul\":9166:9171   */\n      dup4\n        /* \"#utility.yul\":9162:9176   */\n      add\n        /* \"#utility.yul\":9158:9181   */\n      div\n        /* \"#utility.yul\":9148:9181   */\n      swap1\n      pop\n        /* \"#utility.yul\":9094:9187   */\n      swap2\n      swap1\n      pop\n      jump\t// out\n        /* \"#utility.yul\":9193:9300   */\n    tag_65:\n        /* \"#utility.yul\":9237:9245   */\n      0x00\n        /* \"#utility.yul\":9287:9292   */\n      dup3\n        /* \"#utility.yul\":9281:9285   */\n      dup3\n        /* \"#utility.yul\":9277:9293   */\n      shl\n        /* \"#utility.yul\":9256:9293   */\n      swap1\n      pop\n        /* \"#utility.yul\":9193:9300   */\n      swap3\n      swap2\n      pop\n      pop\n      jump\t// out\n        /* \"#utility.yul\":9306:9699   */\n    tag_66:\n        /* \"#utility.yul\":9375:9381   */\n      0x00\n        /* \"#utility.yul\":9425:9426   */\n      0x08\n        /* \"#utility.yul\":9413:9423   */\n      dup4\n        /* \"#utility.yul\":9409:9427   */\n      mul\n        /* \"#utility.yul\":9448:9545   */\n      tag_173\n        /* \"#utility.yul\":9478:9544   */\n      0xffffffffffffffffffffffffffffffffffffffffffffffffffffffffffffffff\n        /* \"#utility.yul\":9467:9476   */\n      dup3\n        /* \"#utility.yul\":9448:9545   */\n      tag_65\n      jump\t// in\n    tag_173:\n        /* \"#utility.yul\":9566:9605   */\n      tag_174\n        /* \"#utility.yul\":9596:9604   */\n      dup7\n        /* \"#utility.yul\":9585:9594   */\n      dup4\n        /* \"#utility.yul\":9566:9605   */\n      tag_65\n      jump\t// in\n    tag_174:\n        /* \"#utility.yul\":9554:9605   */\n      swap6\n      pop\n        /* \"#utility.yul\":9638:9642   */\n      dup1\n        /* \"#utility.yul\":9634:9643   */\n      not\n        /* \"#utility.yul\":9627:9632   */\n      dup5\n        /* \"#utility.yul\":9623:9644   */\n      and\n        /* \"#utility.yul\":9614:9644   */\n      swap4\n      pop\n        /* \"#utility.yul\":9687:9691   */\n      dup1\n        /* \"#utility.yul\":9677:9685   */\n      dup7\n        /* \"#utility.yul\":9673:9692   */\n      and\n        /* \"#utility.yul\":9666:9671   */\n      dup5\n        /* \"#utility.yul\":9663:9693   */\n      or\n        /* \"#utility.yul\":9653:9693   */\n      swap3\n      pop\n        /* \"#utility.yul\":9382:9699   */\n      pop\n      pop\n        /* \"#utility.yul\":9306:9699   */\n      swap4\n      swap3\n      pop\n      pop\n      pop\n      jump\t// out\n        /* \"#utility.yul\":9705:9782   */\n    tag_67:\n        /* \"#utility.yul\":9742:9749   */\n      0x00\n        /* \"#utility.yul\":9771:9776   */\n      dup2\n        /* \"#utility.yul\":9760:9776   */\n      swap1\n      pop\n        /* \"#utility.yul\":9705:9782   */\n      swap2\n      swap1\n      pop\n      jump\t// out\n        /* \"#utility.yul\":9788:9848   */\n    tag_68:\n        /* \"#utility.yul\":9816:9819   */\n      0x00\n        /* \"#utility.yul\":9837:9842   */\n      dup2\n        /* \"#utility.yul\":9830:9842   */\n      swap1\n      pop\n        /* \"#utility.yul\":9788:9848   */\n      swap2\n      swap1\n      pop\n      jump\t// out\n        /* \"#utility.yul\":9854:9996   */\n    tag_69:\n        /* \"#utility.yul\":9904:9913   */\n      0x00\n        /* \"#utility.yul\":9937:9990   */\n      tag_178\n        /* \"#utility.yul\":9955:9989   */\n      tag_179\n        /* \"#utility.yul\":9964:9988   */\n      tag_180\n        /* \"#utility.yul\":9982:9987   */\n      dup5\n        /* \"#utility.yul\":9964:9988   */\n      tag_67\n      jump\t// in\n    tag_180:\n        /* \"#utility.yul\":9955:9989   */\n      tag_68\n      jump\t// in\n    tag_179:\n        /* \"#utility.yul\":9937:9990   */\n      tag_67\n      jump\t// in\n    tag_178:\n        /* \"#utility.yul\":9924:9990   */\n      swap1\n      pop\n        /* \"#utility.yul\":9854:9996   */\n      swap2\n      swap1\n      pop\n      jump\t// out\n        /* \"#utility.yul\":10002:10077   */\n    tag_70:\n        /* \"#utility.yul\":10045:10048   */\n      0x00\n        /* \"#utility.yul\":10066:10071   */\n      dup2\n        /* \"#utility.yul\":10059:10071   */\n      swap1\n      pop\n        /* \"#utility.yul\":10002:10077   */\n      swap2\n      swap1\n      pop\n      jump\t// out\n        /* \"#utility.yul\":10083:10352   */\n    tag_71:\n        /* \"#utility.yul\":10193:10232   */\n      tag_183\n        /* \"#utility.yul\":10224:10231   */\n      dup4\n        /* \"#utility.yul\":10193:10232   */\n      tag_69\n      jump\t// in\n    tag_183:\n        /* \"#utility.yul\":10254:10345   */\n      tag_184\n        /* \"#utility.yul\":10303:10344   */\n      tag_185\n        /* \"#utility.yul\":10327:10343   */\n      dup3\n        /* \"#utility.yul\":10303:10344   */\n      tag_70\n      jump\t// in\n    tag_185:\n        /* \"#utility.yul\":10295:10301   */\n      dup5\n        /* \"#utility.yul\":10288:10292   */\n      dup5\n        /* \"#utility.yul\":10282:10293   */\n      sload\n        /* \"#utility.yul\":10254:10345   */\n      tag_66\n      jump\t// in\n    tag_184:\n        /* \"#utility.yul\":10248:10252   */\n      dup3\n        /* \"#utility.yul\":10241:10346   */\n      sstore\n        /* \"#utility.yul\":10159:10352   */\n      pop\n        /* \"#utility.yul\":10083:10352   */\n      pop\n      pop\n      pop\n      jump\t// out\n        /* \"#utility.yul\":10358:10431   */\n    tag_72:\n        /* \"#utility.yul\":10403:10406   */\n      0x00\n        /* \"#utility.yul\":10358:10431   */\n      swap1\n      jump\t// out\n        /* \"#utility.yul\":10437:10626   */\n    tag_73:\n        /* \"#utility.yul\":10514:10546   */\n      tag_188\n      tag_72\n      jump\t// in\n    tag_188:\n        /* \"#utility.yul\":10555:10620   */\n      tag_189\n        /* \"#utility.yul\":10613:10619   */\n      dup2\n        /* \"#utility.yul\":10605:10611   */\n      dup5\n        /* \"#utility.yul\":10599:10603   */\n      dup5\n        /* \"#utility.yul\":10555:10620   */\n      tag_71\n      jump\t// in\n    tag_189:\n        /* \"#utility.yul\":10490:10626   */\n      pop\n        /* \"#utility.yul\":10437:10626   */\n      pop\n      pop\n      jump\t// out\n        /* \"#utility.yul\":10632:10818   */\n    tag_74:\n        /* \"#utility.yul\":10692:10812   */\n    tag_191:\n        /* \"#utility.yul\":10709:10712   */\n      dup2\n        /* \"#utility.yul\":10702:10707   */\n      dup2\n        /* \"#utility.yul\":10699:10713   */\n      lt\n        /* \"#utility.yul\":10692:10812   */\n      iszero\n      tag_193\n      jumpi\n        /* \"#utility.yul\":10763:10802   */\n      tag_194\n        /* \"#utility.yul\":10800:10801   */\n      0x00\n        /* \"#utility.yul\":10793:10798   */\n      dup3\n        /* \"#utility.yul\":10763:10802   */\n      tag_73\n      jump\t// in\n    tag_194:\n        /* \"#utility.yul\":10736:10737   */\n      0x01\n        /* \"#utility.yul\":10729:10734   */\n      dup2\n        /* \"#utility.yul\":10725:10738   */\n      add\n        /* \"#utility.yul\":10716:10738   */\n      swap1\n      pop\n        /* \"#utility.yul\":10692:10812   */\n      jump(tag_191)\n    tag_193:\n        /* \"#utility.yul\":10632:10818   */\n      pop\n      pop\n      jump\t// out\n        /* \"#utility.yul\":10824:11367   */\n    tag_75:\n        /* \"#utility.yul\":10925:10927   */\n      0x1f\n        /* \"#utility.yul\":10920:10923   */\n      dup3\n        /* \"#utility.yul\":10917:10928   */\n      gt\n        /* \"#utility.yul\":10914:11360   */\n      iszero\n      tag_196\n      jumpi\n        /* \"#utility.yul\":10959:10997   */\n      tag_197\n        /* \"#utility.yul\":10991:10996   */\n      dup2\n        /* \"#utility.yul\":10959:10997   */\n      tag_63\n      jump\t// in\n    tag_197:\n        /* \"#utility.yul\":11043:11072   */\n      tag_198\n        /* \"#utility.yul\":11061:11071   */\n      dup5\n        /* \"#utility.yul\":11043:11072   */\n      tag_64\n      jump\t// in\n    tag_198:\n        /* \"#utility.yul\":11033:11041   */\n      dup2\n        /* \"#utility.yul\":11029:11073   */\n      add\n        /* \"#utility.yul\":11226:11228   */\n      0x20\n        /* \"#utility.yul\":11214:11224   */\n      dup6\n        /* \"#utility.yul\":11211:11229   */\n      lt\n        /* \"#utility.yul\":11208:11257   */\n      iszero\n      tag_199\n      jumpi\n        /* \"#utility.yul\":11247:11255   */\n      dup2\n        /* \"#utility.yul\":11232:11255   */\n      swap1\n      pop\n        /* \"#utility.yul\":11208:11257   */\n    tag_199:\n        /* \"#utility.yul\":11270:11350   */\n      tag_200\n        /* \"#utility.yul\":11326:11348   */\n      tag_201\n        /* \"#utility.yul\":11344:11347   */\n      dup6\n        /* \"#utility.yul\":11326:11348   */\n      tag_64\n      jump\t// in\n    tag_201:\n        /* \"#utility.yul\":11316:11324   */\n      dup4\n        /* \"#utility.yul\":11312:11349   */\n      add\n        /* \"#utility.yul\":11299:11310   */\n      dup3\n        /* \"#utility.yul\":11270:11350   */\n      tag_74\n      jump\t// in\n    tag_200:\n        /* \"#utility.yul\":10929:11360   */\n      pop\n      pop\n        /* \"#utility.yul\":10914:11360   */\n    tag_196:\n        /* \"#utility.yul\":10824:11367   */\n      pop\n      pop\n      pop\n      jump\t// out\n        /* \"#utility.yul\":11373:11490   */\n    tag_76:\n        /* \"#utility.yul\":11427:11435   */\n      0x00\n        /* \"#utility.yul\":11477:11482   */\n      dup3\n        /* \"#utility.yul\":11471:11475   */\n      dup3\n        /* \"#utility.yul\":11467:11483   */\n      shr\n        /* \"#utility.yul\":11446:11483   */\n      swap1\n      pop\n        /* \"#utility.yul\":11373:11490   */\n      swap3\n      swap2\n      pop\n      pop\n      jump\t// out\n        /* \"#utility.yul\":11496:11665   */\n    tag_77:\n        /* \"#utility.yul\":11540:11546   */\n      0x00\n        /* \"#utility.yul\":11573:11624   */\n      tag_204\n        /* \"#utility.yul\":11621:11622   */\n      0x00\n        /* \"#utility.yul\":11617:11623   */\n      not\n        /* \"#utility.yul\":11609:11614   */\n      dup5\n        /* \"#utility.yul\":11606:11607   */\n      0x08\n        /* \"#utility.yul\":11602:11615   */\n      mul\n        /* \"#utility.yul\":11573:11624   */\n      tag_76\n      jump\t// in\n    tag_204:\n        /* \"#utility.yul\":11569:11625   */\n      not\n        /* \"#utility.yul\":11654:11658   */\n      dup1\n        /* \"#utility.yul\":11648:11652   */\n      dup4\n        /* \"#utility.yul\":11644:11659   */\n      and\n        /* \"#utility.yul\":11634:11659   */\n      swap2\n      pop\n        /* \"#utility.yul\":11547:11665   */\n      pop\n        /* \"#utility.yul\":11496:11665   */\n      swap3\n      swap2\n      pop\n      pop\n      jump\t// out\n        /* \"#utility.yul\":11670:11965   */\n    tag_78:\n        /* \"#utility.yul\":11746:11750   */\n      0x00\n        /* \"#utility.yul\":11892:11921   */\n      tag_206\n        /* \"#utility.yul\":11917:11920   */\n      dup4\n        /* \"#utility.yul\":11911:11915   */\n      dup4\n        /* \"#utility.yul\":11892:11921   */\n      tag_77\n      jump\t// in\n    tag_206:\n        /* \"#utility.yul\":11884:11921   */\n      swap2\n      pop\n        /* \"#utility.yul\":11954:11957   */\n      dup3\n        /* \"#utility.yul\":11951:11952   */\n      0x02\n        /* \"#utility.yul\":11947:11958   */\n      mul\n        /* \"#utility.yul\":11941:11945   */\n      dup3\n        /* \"#utility.yul\":11938:11959   */\n      or\n        /* \"#utility.yul\":11930:11959   */\n      swap1\n      pop\n        /* \"#utility.yul\":11670:11965   */\n      swap3\n      swap2\n      pop\n      pop\n      jump\t// out\n        /* \"#utility.yul\":11970:13365   */\n    tag_28:\n        /* \"#utility.yul\":12087:12124   */\n      tag_208\n        /* \"#utility.yul\":12120:12123   */\n      dup3\n        /* \"#utility.yul\":12087:12124   */\n      tag_44\n      jump\t// in\n    tag_208:\n        /* \"#utility.yul\":12189:12207   */\n      0xffffffffffffffff\n        /* \"#utility.yul\":12181:12187   */\n      dup2\n        /* \"#utility.yul\":12178:12208   */\n      gt\n        /* \"#utility.yul\":12175:12231   */\n      iszero\n      tag_209\n      jumpi\n        /* \"#utility.yul\":12211:12229   */\n      tag_210\n      tag_55\n      jump\t// in\n    tag_210:\n        /* \"#utility.yul\":12175:12231   */\n    tag_209:\n        /* \"#utility.yul\":12255:12293   */\n      tag_211\n        /* \"#utility.yul\":12287:12291   */\n      dup3\n        /* \"#utility.yul\":12281:12292   */\n      sload\n        /* \"#utility.yul\":12255:12293   */\n      tag_20\n      jump\t// in\n    tag_211:\n        /* \"#utility.yul\":12340:12407   */\n      tag_212\n        /* \"#utility.yul\":12400:12406   */\n      dup3\n        /* \"#utility.yul\":12392:12398   */\n      dup3\n        /* \"#utility.yul\":12386:12390   */\n      dup6\n        /* \"#utility.yul\":12340:12407   */\n      tag_75\n      jump\t// in\n    tag_212:\n        /* \"#utility.yul\":12434:12435   */\n      0x00\n        /* \"#utility.yul\":12458:12462   */\n      0x20\n        /* \"#utility.yul\":12445:12462   */\n      swap1\n      pop\n        /* \"#utility.yul\":12490:12492   */\n      0x1f\n        /* \"#utility.yul\":12482:12488   */\n      dup4\n        /* \"#utility.yul\":12479:12493   */\n      gt\n        /* \"#utility.yul\":12507:12508   */\n      0x01\n        /* \"#utility.yul\":12502:13120   */\n      dup2\n      eq\n      tag_214\n      jumpi\n        /* \"#utility.yul\":13164:13165   */\n      0x00\n        /* \"#utility.yul\":13181:13187   */\n      dup5\n        /* \"#utility.yul\":13178:13255   */\n      iszero\n      tag_215\n      jumpi\n        /* \"#utility.yul\":13230:13239   */\n      dup3\n        /* \"#utility.yul\":13225:13228   */\n      dup8\n        /* \"#utility.yul\":13221:13240   */\n      add\n        /* \"#utility.yul\":13215:13241   */\n      mload\n        /* \"#utility.yul\":13206:13241   */\n      swap1\n      pop\n        /* \"#utility.yul\":13178:13255   */\n    tag_215:\n        /* \"#utility.yul\":13281:13348   */\n      tag_216\n        /* \"#utility.yul\":13341:13347   */\n      dup6\n        /* \"#utility.yul\":13334:13339   */\n      dup3\n        /* \"#utility.yul\":13281:13348   */\n      tag_78\n      jump\t// in\n    tag_216:\n        /* \"#utility.yul\":13275:13279   */\n      dup7\n        /* \"#utility.yul\":13268:13349   */\n      sstore\n        /* \"#utility.yul\":13137:13359   */\n      pop\n        /* \"#utility.yul\":12472:13359   */\n      jump(tag_213)\n        /* \"#utility.yul\":12502:13120   */\n    tag_214:\n        /* \"#utility.yul\":12554:12558   */\n      0x1f\n        /* \"#utility.yul\":12550:12559   */\n      not\n        /* \"#utility.yul\":12542:12548   */\n      dup5\n        /* \"#utility.yul\":12538:12560   */\n      and\n        /* \"#utility.yul\":12588:12625   */\n      tag_217\n        /* \"#utility.yul\":12620:12624   */\n      dup7\n        /* \"#utility.yul\":12588:12625   */\n      tag_63\n      jump\t// in\n    tag_217:\n        /* \"#utility.yul\":12647:12648   */\n      0x00\n        /* \"#utility.yul\":12661:12869   */\n    tag_218:\n        /* \"#utility.yul\":12675:12682   */\n      dup3\n        /* \"#utility.yul\":12672:12673   */\n      dup2\n        /* \"#utility.yul\":12669:12683   */\n      lt\n        /* \"#utility.yul\":12661:12869   */\n      iszero\n      tag_220\n      jumpi\n        /* \"#utility.yul\":12754:12763   */\n      dup5\n        /* \"#utility.yul\":12749:12752   */\n      dup10\n        /* \"#utility.yul\":12745:12764   */\n      add\n        /* \"#utility.yul\":12739:12765   */\n      mload\n        /* \"#utility.yul\":12731:12737   */\n      dup3\n        /* \"#utility.yul\":12724:12766   */\n      sstore\n        /* \"#utility.yul\":12805:12806   */\n      0x01\n        /* \"#utility.yul\":12797:12803   */\n      dup3\n        /* \"#utility.yul\":12793:12807   */\n      add\n        /* \"#utility.yul\":12783:12807   */\n      swap2\n      pop\n        /* \"#utility.yul\":12852:12854   */\n      0x20\n        /* \"#utility.yul\":12841:12850   */\n      dup6\n        /* \"#utility.yul\":12837:12855   */\n      add\n        /* \"#utility.yul\":12824:12855   */\n      swap5\n      pop\n        /* \"#utility.yul\":12698:12702   */\n      0x20\n        /* \"#utility.yul\":12695:12696   */\n      dup2\n        /* \"#utility.yul\":12691:12703   */\n      add\n        /* \"#utility.yul\":12686:12703   */\n      swap1\n      pop\n        /* \"#utility.yul\":12661:12869   */\n      jump(tag_218)\n    tag_220:\n        /* \"#utility.yul\":12897:12903   */\n      dup7\n        /* \"#utility.yul\":12888:12895   */\n      dup4\n        /* \"#utility.yul\":12885:12904   */\n      lt\n        /* \"#utility.yul\":12882:13061   */\n      iszero\n      tag_221\n      jumpi\n        /* \"#utility.yul\":12955:12964   */\n      dup5\n        /* \"#utility.yul\":12950:12953   */\n      dup10\n        /* \"#utility.yul\":12946:12965   */\n      add\n        /* \"#utility.yul\":12940:12966   */\n      mload\n        /* \"#utility.yul\":12998:13046   */\n      tag_222\n        /* \"#utility.yul\":13040:13044   */\n      0x1f\n        /* \"#utility.yul\":13032:13038   */\n      dup10\n        /* \"#utility.yul\":13028:13045   */\n      and\n        /* \"#utility.yul\":13017:13026   */\n      dup3\n        /* \"#utility.yul\":12998:13046   */\n      tag_77\n      jump\t// in\n    tag_222:\n        /* \"#utility.yul\":12990:12996   */\n      dup4\n        /* \"#utility.yul\":12983:13047   */\n      sstore\n        /* \"#utility.yul\":12905:13061   */\n      pop\n        /* \"#utility.yul\":12882:13061   */\n    tag_221:\n        /* \"#utility.yul\":13107:13108   */\n      0x01\n        /* \"#utility.yul\":13103:13104   */\n      0x02\n        /* \"#utility.yul\":13095:13101   */\n      dup9\n        /* \"#utility.yul\":13091:13105   */\n      mul\n        /* \"#utility.yul\":13087:13109   */\n      add\n        /* \"#utility.yul\":13081:13085   */\n      dup9\n        /* \"#utility.yul\":13074:13110   */\n      sstore\n        /* \"#utility.yul\":12509:13120   */\n      pop\n      pop\n      pop\n        /* \"#utility.yul\":12472:13359   */\n    tag_213:\n      pop\n        /* \"#utility.yul\":12062:13365   */\n      pop\n      pop\n      pop\n        /* \"#utility.yul\":11970:13365   */\n      pop\n      pop\n      jump\t// out\n        /* \"#utility.yul\":13371:13540   */\n    tag_79:\n        /* \"#utility.yul\":13455:13466   */\n      0x00\n        /* \"#utility.yul\":13489:13495   */\n      dup3\n        /* \"#utility.yul\":13484:13487   */\n      dup3\n        /* \"#utility.yul\":13477:13496   */\n      mstore\n        /* \"#utility.yul\":13529:13533   */\n      0x20\n        /* \"#utility.yul\":13524:13527   */\n      dup3\n        /* \"#utility.yul\":13520:13534   */\n      add\n        /* \"#utility.yul\":13505:13534   */\n      swap1\n      pop\n        /* \"#utility.yul\":13371:13540   */\n      swap3\n      swap2\n      pop\n      pop\n      jump\t// out\n        /* \"#utility.yul\":13546:13923   */\n    tag_80:\n        /* \"#utility.yul\":13634:13637   */\n      0x00\n        /* \"#utility.yul\":13662:13701   */\n      tag_225\n        /* \"#utility.yul\":13695:13700   */\n      dup3\n        /* \"#utility.yul\":13662:13701   */\n      tag_44\n      jump\t// in\n    tag_225:\n        /* \"#utility.yul\":13717:13788   */\n      tag_226\n        /* \"#utility.yul\":13781:13787   */\n      dup2\n        /* \"#utility.yul\":13776:13779   */\n      dup6\n        /* \"#utility.yul\":13717:13788   */\n      tag_79\n      jump\t// in\n    tag_226:\n        /* \"#utility.yul\":13710:13788   */\n      swap4\n      pop\n        /* \"#utility.yul\":13797:13862   */\n      tag_227\n        /* \"#utility.yul\":13855:13861   */\n      dup2\n        /* \"#utility.yul\":13850:13853   */\n      dup6\n        /* \"#utility.yul\":13843:13847   */\n      0x20\n        /* \"#utility.yul\":13836:13841   */\n      dup7\n        /* \"#utility.yul\":13832:13848   */\n      add\n        /* \"#utility.yul\":13797:13862   */\n      tag_46\n      jump\t// in\n    tag_227:\n        /* \"#utility.yul\":13887:13916   */\n      tag_228\n        /* \"#utility.yul\":13909:13915   */\n      dup2\n        /* \"#utility.yul\":13887:13916   */\n      tag_47\n      jump\t// in\n    tag_228:\n        /* \"#utility.yul\":13882:13885   */\n      dup5\n        /* \"#utility.yul\":13878:13917   */\n      add\n        /* \"#utility.yul\":13871:13917   */\n      swap2\n      pop\n        /* \"#utility.yul\":13638:13923   */\n      pop\n        /* \"#utility.yul\":13546:13923   */\n      swap3\n      swap2\n      pop\n      pop\n      jump\t// out\n        /* \"#utility.yul\":13929:14242   */\n    tag_32:\n        /* \"#utility.yul\":14042:14046   */\n      0x00\n        /* \"#utility.yul\":14080:14082   */\n      0x20\n        /* \"#utility.yul\":14069:14078   */\n      dup3\n        /* \"#utility.yul\":14065:14083   */\n      add\n        /* \"#utility.yul\":14057:14083   */\n      swap1\n      pop\n        /* \"#utility.yul\":14129:14138   */\n      dup2\n        /* \"#utility.yul\":14123:14127   */\n      dup2\n        /* \"#utility.yul\":14119:14139   */\n      sub\n        /* \"#utility.yul\":14115:14116   */\n      0x00\n        /* \"#utility.yul\":14104:14113   */\n      dup4\n        /* \"#utility.yul\":14100:14117   */\n      add\n        /* \"#utility.yul\":14093:14140   */\n      mstore\n        /* \"#utility.yul\":14157:14235   */\n      tag_230\n        /* \"#utility.yul\":14230:14234   */\n      dup2\n        /* \"#utility.yul\":14221:14227   */\n      dup5\n        /* \"#utility.yul\":14157:14235   */\n      tag_80\n      jump\t// in\n    tag_230:\n        /* \"#utility.yul\":14149:14235   */\n      swap1\n      pop\n        /* \"#utility.yul\":13929:14242   */\n      swap3\n      swap2\n      pop\n      pop\n      jump\t// out\n\n    auxdata: 0xa264697066735822122056dbb491ee715f67997676aab711abfcee3e253ec82f3464ef2735a0d31cde0264736f6c63430008120033\n}\n",
				"bytecode": {
					"linkReferences": {},
					"object": "608060405234801561001057600080fd5b50610d77806100206000396000f3fe608060405234801561001057600080fd5b50600436106100365760003560e01c8063b2f713221461003b578063de6f24bb1461006b575b600080fd5b6100556004803603810190610050919061065c565b610087565b604051610062919061083a565b60405180910390f35b61008560048036038101906100809190610991565b61029f565b005b60606000803373ffffffffffffffffffffffffffffffffffffffff1673ffffffffffffffffffffffffffffffffffffffff16815260200190815260200160002060008373ffffffffffffffffffffffffffffffffffffffff1673ffffffffffffffffffffffffffffffffffffffff168152602001908152602001600020805480602002602001604051908101604052809291908181526020016000905b8282101561029457838290600052602060002090600302016040518060600160405290816000820160009054906101000a900473ffffffffffffffffffffffffffffffffffffffff1673ffffffffffffffffffffffffffffffffffffffff1673ffffffffffffffffffffffffffffffffffffffff1681526020016001820160009054906101000a900473ffffffffffffffffffffffffffffffffffffffff1673ffffffffffffffffffffffffffffffffffffffff1673ffffffffffffffffffffffffffffffffffffffff16815260200160028201805461020390610a1c565b80601f016020809104026020016040519081016040528092919081815260200182805461022f90610a1c565b801561027c5780601f106102515761010080835404028352916020019161027c565b820191906000526020600020905b81548152906001019060200180831161025f57829003601f168201915b50505050508152505081526020019060010190610124565b505050509050919050565b600060405180606001604052803373ffffffffffffffffffffffffffffffffffffffff1681526020018473ffffffffffffffffffffffffffffffffffffffff1681526020018381525090506000803373ffffffffffffffffffffffffffffffffffffffff1673ffffffffffffffffffffffffffffffffffffffff16815260200190815260200160002060008473ffffffffffffffffffffffffffffffffffffffff1673ffffffffffffffffffffffffffffffffffffffff16815260200190815260200160002081908060018154018082558091505060019003906000526020600020906003020160009091909190915060008201518160000160006101000a81548173ffffffffffffffffffffffffffffffffffffffff021916908373ffffffffffffffffffffffffffffffffffffffff16021790555060208201518160010160006101000a81548173ffffffffffffffffffffffffffffffffffffffff021916908373ffffffffffffffffffffffffffffffffffffffff16021790555060408201518160020190816104329190610c03565b5050506000808473ffffffffffffffffffffffffffffffffffffffff1673ffffffffffffffffffffffffffffffffffffffff16815260200190815260200160002060003373ffffffffffffffffffffffffffffffffffffffff1673ffffffffffffffffffffffffffffffffffffffff16815260200190815260200160002081908060018154018082558091505060019003906000526020600020906003020160009091909190915060008201518160000160006101000a81548173ffffffffffffffffffffffffffffffffffffffff021916908373ffffffffffffffffffffffffffffffffffffffff16021790555060208201518160010160006101000a81548173ffffffffffffffffffffffffffffffffffffffff021916908373ffffffffffffffffffffffffffffffffffffffff160217905550604082015181600201908161057d9190610c03565b5050508273ffffffffffffffffffffffffffffffffffffffff163373ffffffffffffffffffffffffffffffffffffffff167fe2cf7446a11cbcd14cd99ea3a1bb77fb7653a64f4064d660140b5100d001e13c846040516105dd9190610d1f565b60405180910390a3505050565b6000604051905090565b600080fd5b600080fd5b600073ffffffffffffffffffffffffffffffffffffffff82169050919050565b6000610629826105fe565b9050919050565b6106398161061e565b811461064457600080fd5b50565b60008135905061065681610630565b92915050565b600060208284031215610672576106716105f4565b5b600061068084828501610647565b91505092915050565b600081519050919050565b600082825260208201905092915050565b6000819050602082019050919050565b6106be8161061e565b82525050565b600081519050919050565b600082825260208201905092915050565b60005b838110156106fe5780820151818401526020810190506106e3565b60008484015250505050565b6000601f19601f8301169050919050565b6000610726826106c4565b61073081856106cf565b93506107408185602086016106e0565b6107498161070a565b840191505092915050565b600060608301600083015161076c60008601826106b5565b50602083015161077f60208601826106b5565b5060408301518482036040860152610797828261071b565b9150508091505092915050565b60006107b08383610754565b905092915050565b6000602082019050919050565b60006107d082610689565b6107da8185610694565b9350836020820285016107ec856106a5565b8060005b85811015610828578484038952815161080985826107a4565b9450610814836107b8565b925060208a019950506001810190506107f0565b50829750879550505050505092915050565b6000602082019050818103600083015261085481846107c5565b905092915050565b600080fd5b600080fd5b7f4e487b7100000000000000000000000000000000000000000000000000000000600052604160045260246000fd5b61089e8261070a565b810181811067ffffffffffffffff821117156108bd576108bc610866565b5b80604052505050565b60006108d06105ea565b90506108dc8282610895565b919050565b600067ffffffffffffffff8211156108fc576108fb610866565b5b6109058261070a565b9050602081019050919050565b82818337600083830152505050565b600061093461092f846108e1565b6108c6565b9050828152602081018484840111156109505761094f610861565b5b61095b848285610912565b509392505050565b600082601f8301126109785761097761085c565b5b8135610988848260208601610921565b91505092915050565b600080604083850312156109a8576109a76105f4565b5b60006109b685828601610647565b925050602083013567ffffffffffffffff8111156109d7576109d66105f9565b5b6109e385828601610963565b9150509250929050565b7f4e487b7100000000000000000000000000000000000000000000000000000000600052602260045260246000fd5b60006002820490506001821680610a3457607f821691505b602082108103610a4757610a466109ed565b5b50919050565b60008190508160005260206000209050919050565b60006020601f8301049050919050565b600082821b905092915050565b600060088302610aaf7fffffffffffffffffffffffffffffffffffffffffffffffffffffffffffffffff82610a72565b610ab98683610a72565b95508019841693508086168417925050509392505050565b6000819050919050565b6000819050919050565b6000610b00610afb610af684610ad1565b610adb565b610ad1565b9050919050565b6000819050919050565b610b1a83610ae5565b610b2e610b2682610b07565b848454610a7f565b825550505050565b600090565b610b43610b36565b610b4e818484610b11565b505050565b5b81811015610b7257610b67600082610b3b565b600181019050610b54565b5050565b601f821115610bb757610b8881610a4d565b610b9184610a62565b81016020851015610ba0578190505b610bb4610bac85610a62565b830182610b53565b50505b505050565b600082821c905092915050565b6000610bda60001984600802610bbc565b1980831691505092915050565b6000610bf38383610bc9565b9150826002028217905092915050565b610c0c826106c4565b67ffffffffffffffff811115610c2557610c24610866565b5b610c2f8254610a1c565b610c3a828285610b76565b600060209050601f831160018114610c6d5760008415610c5b578287015190505b610c658582610be7565b865550610ccd565b601f198416610c7b86610a4d565b60005b82811015610ca357848901518255600182019150602085019450602081019050610c7e565b86831015610cc05784890151610cbc601f891682610bc9565b8355505b6001600288020188555050505b505050505050565b600082825260208201905092915050565b6000610cf1826106c4565b610cfb8185610cd5565b9350610d0b8185602086016106e0565b610d148161070a565b840191505092915050565b60006020820190508181036000830152610d398184610ce6565b90509291505056fea264697066735822122056dbb491ee715f67997676aab711abfcee3e253ec82f3464ef2735a0d31cde0264736f6c63430008120033",
					"opcodes": "PUSH1 0x80 PUSH1 0x40 MSTORE CALLVALUE DUP1 ISZERO PUSH2 0x10 JUMPI PUSH1 0x0 DUP1 REVERT JUMPDEST POP PUSH2 0xD77 DUP1 PUSH2 0x20 PUSH1 0x0 CODECOPY PUSH1 0x0 RETURN INVALID PUSH1 0x80 PUSH1 0x40 MSTORE CALLVALUE DUP1 ISZERO PUSH2 0x10 JUMPI PUSH1 0x0 DUP1 REVERT JUMPDEST POP PUSH1 0x4 CALLDATASIZE LT PUSH2 0x36 JUMPI PUSH1 0x0 CALLDATALOAD PUSH1 0xE0 SHR DUP1 PUSH4 0xB2F71322 EQ PUSH2 0x3B JUMPI DUP1 PUSH4 0xDE6F24BB EQ PUSH2 0x6B JUMPI JUMPDEST PUSH1 0x0 DUP1 REVERT JUMPDEST PUSH2 0x55 PUSH1 0x4 DUP1 CALLDATASIZE SUB DUP2 ADD SWAP1 PUSH2 0x50 SWAP2 SWAP1 PUSH2 0x65C JUMP JUMPDEST PUSH2 0x87 JUMP JUMPDEST PUSH1 0x40 MLOAD PUSH2 0x62 SWAP2 SWAP1 PUSH2 0x83A JUMP JUMPDEST PUSH1 0x40 MLOAD DUP1 SWAP2 SUB SWAP1 RETURN JUMPDEST PUSH2 0x85 PUSH1 0x4 DUP1 CALLDATASIZE SUB DUP2 ADD SWAP1 PUSH2 0x80 SWAP2 SWAP1 PUSH2 0x991 JUMP JUMPDEST PUSH2 0x29F JUMP JUMPDEST STOP JUMPDEST PUSH1 0x60 PUSH1 0x0 DUP1 CALLER PUSH20 0xFFFFFFFFFFFFFFFFFFFFFFFFFFFFFFFFFFFFFFFF AND PUSH20 0xFFFFFFFFFFFFFFFFFFFFFFFFFFFFFFFFFFFFFFFF AND DUP2 MSTORE PUSH1 0x20 ADD SWAP1 DUP2 MSTORE PUSH1 0x20 ADD PUSH1 0x0 KECCAK256 PUSH1 0x0 DUP4 PUSH20 0xFFFFFFFFFFFFFFFFFFFFFFFFFFFFFFFFFFFFFFFF AND PUSH20 0xFFFFFFFFFFFFFFFFFFFFFFFFFFFFFFFFFFFFFFFF AND DUP2 MSTORE PUSH1 0x20 ADD SWAP1 DUP2 MSTORE PUSH1 0x20 ADD PUSH1 0x0 KECCAK256 DUP1 SLOAD DUP1 PUSH1 0x20 MUL PUSH1 0x20 ADD PUSH1 0x40 MLOAD SWAP1 DUP2 ADD PUSH1 0x40 MSTORE DUP1 SWAP3 SWAP2 SWAP1 DUP2 DUP2 MSTORE PUSH1 0x20 ADD PUSH1 0x0 SWAP1 JUMPDEST DUP3 DUP3 LT ISZERO PUSH2 0x294 JUMPI DUP4 DUP3 SWAP1 PUSH1 0x0 MSTORE PUSH1 0x20 PUSH1 0x0 KECCAK256 SWAP1 PUSH1 0x3 MUL ADD PUSH1 0x40 MLOAD DUP1 PUSH1 0x60 ADD PUSH1 0x40 MSTORE SWAP1 DUP2 PUSH1 0x0 DUP3 ADD PUSH1 0x0 SWAP1 SLOAD SWAP1 PUSH2 0x100 EXP SWAP1 DIV PUSH20 0xFFFFFFFFFFFFFFFFFFFFFFFFFFFFFFFFFFFFFFFF AND PUSH20 0xFFFFFFFFFFFFFFFFFFFFFFFFFFFFFFFFFFFFFFFF AND PUSH20 0xFFFFFFFFFFFFFFFFFFFFFFFFFFFFFFFFFFFFFFFF AND DUP2 MSTORE PUSH1 0x20 ADD PUSH1 0x1 DUP3 ADD PUSH1 0x0 SWAP1 SLOAD SWAP1 PUSH2 0x100 EXP SWAP1 DIV PUSH20 0xFFFFFFFFFFFFFFFFFFFFFFFFFFFFFFFFFFFFFFFF AND PUSH20 0xFFFFFFFFFFFFFFFFFFFFFFFFFFFFFFFFFFFFFFFF AND PUSH20 0xFFFFFFFFFFFFFFFFFFFFFFFFFFFFFFFFFFFFFFFF AND DUP2 MSTORE PUSH1 0x20 ADD PUSH1 0x2 DUP3 ADD DUP1 SLOAD PUSH2 0x203 SWAP1 PUSH2 0xA1C JUMP JUMPDEST DUP1 PUSH1 0x1F ADD PUSH1 0x20 DUP1 SWAP2 DIV MUL PUSH1 0x20 ADD PUSH1 0x40 MLOAD SWAP1 DUP2 ADD PUSH1 0x40 MSTORE DUP1 SWAP3 SWAP2 SWAP1 DUP2 DUP2 MSTORE PUSH1 0x20 ADD DUP3 DUP1 SLOAD PUSH2 0x22F SWAP1 PUSH2 0xA1C JUMP JUMPDEST DUP1 ISZERO PUSH2 0x27C JUMPI DUP1 PUSH1 0x1F LT PUSH2 0x251 JUMPI PUSH2 0x100 DUP1 DUP4 SLOAD DIV MUL DUP4 MSTORE SWAP2 PUSH1 0x20 ADD SWAP2 PUSH2 0x27C JUMP JUMPDEST DUP3 ADD SWAP2 SWAP1 PUSH1 0x0 MSTORE PUSH1 0x20 PUSH1 0x0 KECCAK256 SWAP1 JUMPDEST DUP2 SLOAD DUP2 MSTORE SWAP1 PUSH1 0x1 ADD SWAP1 PUSH1 0x20 ADD DUP1 DUP4 GT PUSH2 0x25F JUMPI DUP3 SWAP1 SUB PUSH1 0x1F AND DUP3 ADD SWAP2 JUMPDEST POP POP POP POP POP DUP2 MSTORE POP POP DUP2 MSTORE PUSH1 0x20 ADD SWAP1 PUSH1 0x1 ADD SWAP1 PUSH2 0x124 JUMP JUMPDEST POP POP POP POP SWAP1 POP SWAP2 SWAP1 POP JUMP JUMPDEST PUSH1 0x0 PUSH1 0x40 MLOAD DUP1 PUSH1 0x60 ADD PUSH1 0x40 MSTORE DUP1 CALLER PUSH20 0xFFFFFFFFFFFFFFFFFFFFFFFFFFFFFFFFFFFFFFFF AND DUP2 MSTORE PUSH1 0x20 ADD DUP5 PUSH20 0xFFFFFFFFFFFFFFFFFFFFFFFFFFFFFFFFFFFFFFFF AND DUP2 MSTORE PUSH1 0x20 ADD DUP4 DUP2 MSTORE POP SWAP1 POP PUSH1 0x0 DUP1 CALLER PUSH20 0xFFFFFFFFFFFFFFFFFFFFFFFFFFFFFFFFFFFFFFFF AND PUSH20 0xFFFFFFFFFFFFFFFFFFFFFFFFFFFFFFFFFFFFFFFF AND DUP2 MSTORE PUSH1 0x20 ADD SWAP1 DUP2 MSTORE PUSH1 0x20 ADD PUSH1 0x0 KECCAK256 PUSH1 0x0 DUP5 PUSH20 0xFFFFFFFFFFFFFFFFFFFFFFFFFFFFFFFFFFFFFFFF AND PUSH20 0xFFFFFFFFFFFFFFFFFFFFFFFFFFFFFFFFFFFFFFFF AND DUP2 MSTORE PUSH1 0x20 ADD SWAP1 DUP2 MSTORE PUSH1 0x20 ADD PUSH1 0x0 KECCAK256 DUP2 SWAP1 DUP1 PUSH1 0x1 DUP2 SLOAD ADD DUP1 DUP3 SSTORE DUP1 SWAP2 POP POP PUSH1 0x1 SWAP1 SUB SWAP1 PUSH1 0x0 MSTORE PUSH1 0x20 PUSH1 0x0 KECCAK256 SWAP1 PUSH1 0x3 MUL ADD PUSH1 0x0 SWAP1 SWAP2 SWAP1 SWAP2 SWAP1 SWAP2 POP PUSH1 0x0 DUP3 ADD MLOAD DUP2 PUSH1 0x0 ADD PUSH1 0x0 PUSH2 0x100 EXP DUP2 SLOAD DUP2 PUSH20 0xFFFFFFFFFFFFFFFFFFFFFFFFFFFFFFFFFFFFFFFF MUL NOT AND SWAP1 DUP4 PUSH20 0xFFFFFFFFFFFFFFFFFFFFFFFFFFFFFFFFFFFFFFFF AND MUL OR SWAP1 SSTORE POP PUSH1 0x20 DUP3 ADD MLOAD DUP2 PUSH1 0x1 ADD PUSH1 0x0 PUSH2 0x100 EXP DUP2 SLOAD DUP2 PUSH20 0xFFFFFFFFFFFFFFFFFFFFFFFFFFFFFFFFFFFFFFFF MUL NOT AND SWAP1 DUP4 PUSH20 0xFFFFFFFFFFFFFFFFFFFFFFFFFFFFFFFFFFFFFFFF AND MUL OR SWAP1 SSTORE POP PUSH1 0x40 DUP3 ADD MLOAD DUP2 PUSH1 0x2 ADD SWAP1 DUP2 PUSH2 0x432 SWAP2 SWAP1 PUSH2 0xC03 JUMP JUMPDEST POP POP POP PUSH1 0x0 DUP1 DUP5 PUSH20 0xFFFFFFFFFFFFFFFFFFFFFFFFFFFFFFFFFFFFFFFF AND PUSH20 0xFFFFFFFFFFFFFFFFFFFFFFFFFFFFFFFFFFFFFFFF AND DUP2 MSTORE PUSH1 0x20 ADD SWAP1 DUP2 MSTORE PUSH1 0x20 ADD PUSH1 0x0 KECCAK256 PUSH1 0x0 CALLER PUSH20 0xFFFFFFFFFFFFFFFFFFFFFFFFFFFFFFFFFFFFFFFF AND PUSH20 0xFFFFFFFFFFFFFFFFFFFFFFFFFFFFFFFFFFFFFFFF AND DUP2 MSTORE PUSH1 0x20 ADD SWAP1 DUP2 MSTORE PUSH1 0x20 ADD PUSH1 0x0 KECCAK256 DUP2 SWAP1 DUP1 PUSH1 0x1 DUP2 SLOAD ADD DUP1 DUP3 SSTORE DUP1 SWAP2 POP POP PUSH1 0x1 SWAP1 SUB SWAP1 PUSH1 0x0 MSTORE PUSH1 0x20 PUSH1 0x0 KECCAK256 SWAP1 PUSH1 0x3 MUL ADD PUSH1 0x0 SWAP1 SWAP2 SWAP1 SWAP2 SWAP1 SWAP2 POP PUSH1 0x0 DUP3 ADD MLOAD DUP2 PUSH1 0x0 ADD PUSH1 0x0 PUSH2 0x100 EXP DUP2 SLOAD DUP2 PUSH20 0xFFFFFFFFFFFFFFFFFFFFFFFFFFFFFFFFFFFFFFFF MUL NOT AND SWAP1 DUP4 PUSH20 0xFFFFFFFFFFFFFFFFFFFFFFFFFFFFFFFFFFFFFFFF AND MUL OR SWAP1 SSTORE POP PUSH1 0x20 DUP3 ADD MLOAD DUP2 PUSH1 0x1 ADD PUSH1 0x0 PUSH2 0x100 EXP DUP2 SLOAD DUP2 PUSH20 0xFFFFFFFFFFFFFFFFFFFFFFFFFFFFFFFFFFFFFFFF MUL NOT AND SWAP1 DUP4 PUSH20 0xFFFFFFFFFFFFFFFFFFFFFFFFFFFFFFFFFFFFFFFF AND MUL OR SWAP1 SSTORE POP PUSH1 0x40 DUP3 ADD MLOAD DUP2 PUSH1 0x2 ADD SWAP1 DUP2 PUSH2 0x57D SWAP2 SWAP1 PUSH2 0xC03 JUMP JUMPDEST POP POP POP DUP3 PUSH20 0xFFFFFFFFFFFFFFFFFFFFFFFFFFFFFFFFFFFFFFFF AND CALLER PUSH20 0xFFFFFFFFFFFFFFFFFFFFFFFFFFFFFFFFFFFFFFFF AND PUSH32 0xE2CF7446A11CBCD14CD99EA3A1BB77FB7653A64F4064D660140B5100D001E13C DUP5 PUSH1 0x40 MLOAD PUSH2 0x5DD SWAP2 SWAP1 PUSH2 0xD1F JUMP JUMPDEST PUSH1 0x40 MLOAD DUP1 SWAP2 SUB SWAP1 LOG3 POP POP POP JUMP JUMPDEST PUSH1 0x0 PUSH1 0x40 MLOAD SWAP1 POP SWAP1 JUMP JUMPDEST PUSH1 0x0 DUP1 REVERT JUMPDEST PUSH1 0x0 DUP1 REVERT JUMPDEST PUSH1 0x0 PUSH20 0xFFFFFFFFFFFFFFFFFFFFFFFFFFFFFFFFFFFFFFFF DUP3 AND SWAP1 POP SWAP2 SWAP1 POP JUMP JUMPDEST PUSH1 0x0 PUSH2 0x629 DUP3 PUSH2 0x5FE JUMP JUMPDEST SWAP1 POP SWAP2 SWAP1 POP JUMP JUMPDEST PUSH2 0x639 DUP2 PUSH2 0x61E JUMP JUMPDEST DUP2 EQ PUSH2 0x644 JUMPI PUSH1 0x0 DUP1 REVERT JUMPDEST POP JUMP JUMPDEST PUSH1 0x0 DUP2 CALLDATALOAD SWAP1 POP PUSH2 0x656 DUP2 PUSH2 0x630 JUMP JUMPDEST SWAP3 SWAP2 POP POP JUMP JUMPDEST PUSH1 0x0 PUSH1 0x20 DUP3 DUP5 SUB SLT ISZERO PUSH2 0x672 JUMPI PUSH2 0x671 PUSH2 0x5F4 JUMP JUMPDEST JUMPDEST PUSH1 0x0 PUSH2 0x680 DUP5 DUP3 DUP6 ADD PUSH2 0x647 JUMP JUMPDEST SWAP2 POP POP SWAP3 SWAP2 POP POP JUMP JUMPDEST PUSH1 0x0 DUP2 MLOAD SWAP1 POP SWAP2 SWAP1 POP JUMP JUMPDEST PUSH1 0x0 DUP3 DUP3 MSTORE PUSH1 0x20 DUP3 ADD SWAP1 POP SWAP3 SWAP2 POP POP JUMP JUMPDEST PUSH1 0x0 DUP2 SWAP1 POP PUSH1 0x20 DUP3 ADD SWAP1 POP SWAP2 SWAP1 POP JUMP JUMPDEST PUSH2 0x6BE DUP2 PUSH2 0x61E JUMP JUMPDEST DUP3 MSTORE POP POP JUMP JUMPDEST PUSH1 0x0 DUP2 MLOAD SWAP1 POP SWAP2 SWAP1 POP JUMP JUMPDEST PUSH1 0x0 DUP3 DUP3 MSTORE PUSH1 0x20 DUP3 ADD SWAP1 POP SWAP3 SWAP2 POP POP JUMP JUMPDEST PUSH1 0x0 JUMPDEST DUP4 DUP2 LT ISZERO PUSH2 0x6FE JUMPI DUP1 DUP3 ADD MLOAD DUP2 DUP5 ADD MSTORE PUSH1 0x20 DUP2 ADD SWAP1 POP PUSH2 0x6E3 JUMP JUMPDEST PUSH1 0x0 DUP5 DUP5 ADD MSTORE POP POP POP POP JUMP JUMPDEST PUSH1 0x0 PUSH1 0x1F NOT PUSH1 0x1F DUP4 ADD AND SWAP1 POP SWAP2 SWAP1 POP JUMP JUMPDEST PUSH1 0x0 PUSH2 0x726 DUP3 PUSH2 0x6C4 JUMP JUMPDEST PUSH2 0x730 DUP2 DUP6 PUSH2 0x6CF JUMP JUMPDEST SWAP4 POP PUSH2 0x740 DUP2 DUP6 PUSH1 0x20 DUP7 ADD PUSH2 0x6E0 JUMP JUMPDEST PUSH2 0x749 DUP2 PUSH2 0x70A JUMP JUMPDEST DUP5 ADD SWAP2 POP POP SWAP3 SWAP2 POP POP JUMP JUMPDEST PUSH1 0x0 PUSH1 0x60 DUP4 ADD PUSH1 0x0 DUP4 ADD MLOAD PUSH2 0x76C PUSH1 0x0 DUP7 ADD DUP3 PUSH2 0x6B5 JUMP JUMPDEST POP PUSH1 0x20 DUP4 ADD MLOAD PUSH2 0x77F PUSH1 0x20 DUP7 ADD DUP3 PUSH2 0x6B5 JUMP JUMPDEST POP PUSH1 0x40 DUP4 ADD MLOAD DUP5 DUP3 SUB PUSH1 0x40 DUP7 ADD MSTORE PUSH2 0x797 DUP3 DUP3 PUSH2 0x71B JUMP JUMPDEST SWAP2 POP POP DUP1 SWAP2 POP POP SWAP3 SWAP2 POP POP JUMP JUMPDEST PUSH1 0x0 PUSH2 0x7B0 DUP4 DUP4 PUSH2 0x754 JUMP JUMPDEST SWAP1 POP SWAP3 SWAP2 POP POP JUMP JUMPDEST PUSH1 0x0 PUSH1 0x20 DUP3 ADD SWAP1 POP SWAP2 SWAP1 POP JUMP JUMPDEST PUSH1 0x0 PUSH2 0x7D0 DUP3 PUSH2 0x689 JUMP JUMPDEST PUSH2 0x7DA DUP2 DUP6 PUSH2 0x694 JUMP JUMPDEST SWAP4 POP DUP4 PUSH1 0x20 DUP3 MUL DUP6 ADD PUSH2 0x7EC DUP6 PUSH2 0x6A5 JUMP JUMPDEST DUP1 PUSH1 0x0 JUMPDEST DUP6 DUP2 LT ISZERO PUSH2 0x828 JUMPI DUP5 DUP5 SUB DUP10 MSTORE DUP2 MLOAD PUSH2 0x809 DUP6 DUP3 PUSH2 0x7A4 JUMP JUMPDEST SWAP5 POP PUSH2 0x814 DUP4 PUSH2 0x7B8 JUMP JUMPDEST SWAP3 POP PUSH1 0x20 DUP11 ADD SWAP10 POP POP PUSH1 0x1 DUP2 ADD SWAP1 POP PUSH2 0x7F0 JUMP JUMPDEST POP DUP3 SWAP8 POP DUP8 SWAP6 POP POP POP POP POP POP SWAP3 SWAP2 POP POP JUMP JUMPDEST PUSH1 0x0 PUSH1 0x20 DUP3 ADD SWAP1 POP DUP2 DUP2 SUB PUSH1 0x0 DUP4 ADD MSTORE PUSH2 0x854 DUP2 DUP5 PUSH2 0x7C5 JUMP JUMPDEST SWAP1 POP SWAP3 SWAP2 POP POP JUMP JUMPDEST PUSH1 0x0 DUP1 REVERT JUMPDEST PUSH1 0x0 DUP1 REVERT JUMPDEST PUSH32 0x4E487B7100000000000000000000000000000000000000000000000000000000 PUSH1 0x0 MSTORE PUSH1 0x41 PUSH1 0x4 MSTORE PUSH1 0x24 PUSH1 0x0 REVERT JUMPDEST PUSH2 0x89E DUP3 PUSH2 0x70A JUMP JUMPDEST DUP2 ADD DUP2 DUP2 LT PUSH8 0xFFFFFFFFFFFFFFFF DUP3 GT OR ISZERO PUSH2 0x8BD JUMPI PUSH2 0x8BC PUSH2 0x866 JUMP JUMPDEST JUMPDEST DUP1 PUSH1 0x40 MSTORE POP POP POP JUMP JUMPDEST PUSH1 0x0 PUSH2 0x8D0 PUSH2 0x5EA JUMP JUMPDEST SWAP1 POP PUSH2 0x8DC DUP3 DUP3 PUSH2 0x895 JUMP JUMPDEST SWAP2 SWAP1 POP JUMP JUMPDEST PUSH1 0x0 PUSH8 0xFFFFFFFFFFFFFFFF DUP3 GT ISZERO PUSH2 0x8FC JUMPI PUSH2 0x8FB PUSH2 0x866 JUMP JUMPDEST JUMPDEST PUSH2 0x905 DUP3 PUSH2 0x70A JUMP JUMPDEST SWAP1 POP PUSH1 0x20 DUP2 ADD SWAP1 POP SWAP2 SWAP1 POP JUMP JUMPDEST DUP3 DUP2 DUP4 CALLDATACOPY PUSH1 0x0 DUP4 DUP4 ADD MSTORE POP POP POP JUMP JUMPDEST PUSH1 0x0 PUSH2 0x934 PUSH2 0x92F DUP5 PUSH2 0x8E1 JUMP JUMPDEST PUSH2 0x8C6 JUMP JUMPDEST SWAP1 POP DUP3 DUP2 MSTORE PUSH1 0x20 DUP2 ADD DUP5 DUP5 DUP5 ADD GT ISZERO PUSH2 0x950 JUMPI PUSH2 0x94F PUSH2 0x861 JUMP JUMPDEST JUMPDEST PUSH2 0x95B DUP5 DUP3 DUP6 PUSH2 0x912 JUMP JUMPDEST POP SWAP4 SWAP3 POP POP POP JUMP JUMPDEST PUSH1 0x0 DUP3 PUSH1 0x1F DUP4 ADD SLT PUSH2 0x978 JUMPI PUSH2 0x977 PUSH2 0x85C JUMP JUMPDEST JUMPDEST DUP2 CALLDATALOAD PUSH2 0x988 DUP5 DUP3 PUSH1 0x20 DUP7 ADD PUSH2 0x921 JUMP JUMPDEST SWAP2 POP POP SWAP3 SWAP2 POP POP JUMP JUMPDEST PUSH1 0x0 DUP1 PUSH1 0x40 DUP4 DUP6 SUB SLT ISZERO PUSH2 0x9A8 JUMPI PUSH2 0x9A7 PUSH2 0x5F4 JUMP JUMPDEST JUMPDEST PUSH1 0x0 PUSH2 0x9B6 DUP6 DUP3 DUP7 ADD PUSH2 0x647 JUMP JUMPDEST SWAP3 POP POP PUSH1 0x20 DUP4 ADD CALLDATALOAD PUSH8 0xFFFFFFFFFFFFFFFF DUP2 GT ISZERO PUSH2 0x9D7 JUMPI PUSH2 0x9D6 PUSH2 0x5F9 JUMP JUMPDEST JUMPDEST PUSH2 0x9E3 DUP6 DUP3 DUP7 ADD PUSH2 0x963 JUMP JUMPDEST SWAP2 POP POP SWAP3 POP SWAP3 SWAP1 POP JUMP JUMPDEST PUSH32 0x4E487B7100000000000000000000000000000000000000000000000000000000 PUSH1 0x0 MSTORE PUSH1 0x22 PUSH1 0x4 MSTORE PUSH1 0x24 PUSH1 0x0 REVERT JUMPDEST PUSH1 0x0 PUSH1 0x2 DUP3 DIV SWAP1 POP PUSH1 0x1 DUP3 AND DUP1 PUSH2 0xA34 JUMPI PUSH1 0x7F DUP3 AND SWAP2 POP JUMPDEST PUSH1 0x20 DUP3 LT DUP2 SUB PUSH2 0xA47 JUMPI PUSH2 0xA46 PUSH2 0x9ED JUMP JUMPDEST JUMPDEST POP SWAP2 SWAP1 POP JUMP JUMPDEST PUSH1 0x0 DUP2 SWAP1 POP DUP2 PUSH1 0x0 MSTORE PUSH1 0x20 PUSH1 0x0 KECCAK256 SWAP1 POP SWAP2 SWAP1 POP JUMP JUMPDEST PUSH1 0x0 PUSH1 0x20 PUSH1 0x1F DUP4 ADD DIV SWAP1 POP SWAP2 SWAP1 POP JUMP JUMPDEST PUSH1 0x0 DUP3 DUP3 SHL SWAP1 POP SWAP3 SWAP2 POP POP JUMP JUMPDEST PUSH1 0x0 PUSH1 0x8 DUP4 MUL PUSH2 0xAAF PUSH32 0xFFFFFFFFFFFFFFFFFFFFFFFFFFFFFFFFFFFFFFFFFFFFFFFFFFFFFFFFFFFFFFFF DUP3 PUSH2 0xA72 JUMP JUMPDEST PUSH2 0xAB9 DUP7 DUP4 PUSH2 0xA72 JUMP JUMPDEST SWAP6 POP DUP1 NOT DUP5 AND SWAP4 POP DUP1 DUP7 AND DUP5 OR SWAP3 POP POP POP SWAP4 SWAP3 POP POP POP JUMP JUMPDEST PUSH1 0x0 DUP2 SWAP1 POP SWAP2 SWAP1 POP JUMP JUMPDEST PUSH1 0x0 DUP2 SWAP1 POP SWAP2 SWAP1 POP JUMP JUMPDEST PUSH1 0x0 PUSH2 0xB00 PUSH2 0xAFB PUSH2 0xAF6 DUP5 PUSH2 0xAD1 JUMP JUMPDEST PUSH2 0xADB JUMP JUMPDEST PUSH2 0xAD1 JUMP JUMPDEST SWAP1 POP SWAP2 SWAP1 POP JUMP JUMPDEST PUSH1 0x0 DUP2 SWAP1 POP SWAP2 SWAP1 POP JUMP JUMPDEST PUSH2 0xB1A DUP4 PUSH2 0xAE5 JUMP JUMPDEST PUSH2 0xB2E PUSH2 0xB26 DUP3 PUSH2 0xB07 JUMP JUMPDEST DUP5 DUP5 SLOAD PUSH2 0xA7F JUMP JUMPDEST DUP3 SSTORE POP POP POP POP JUMP JUMPDEST PUSH1 0x0 SWAP1 JUMP JUMPDEST PUSH2 0xB43 PUSH2 0xB36 JUMP JUMPDEST PUSH2 0xB4E DUP2 DUP5 DUP5 PUSH2 0xB11 JUMP JUMPDEST POP POP POP JUMP JUMPDEST JUMPDEST DUP2 DUP2 LT ISZERO PUSH2 0xB72 JUMPI PUSH2 0xB67 PUSH1 0x0 DUP3 PUSH2 0xB3B JUMP JUMPDEST PUSH1 0x1 DUP2 ADD SWAP1 POP PUSH2 0xB54 JUMP JUMPDEST POP POP JUMP JUMPDEST PUSH1 0x1F DUP3 GT ISZERO PUSH2 0xBB7 JUMPI PUSH2 0xB88 DUP2 PUSH2 0xA4D JUMP JUMPDEST PUSH2 0xB91 DUP5 PUSH2 0xA62 JUMP JUMPDEST DUP2 ADD PUSH1 0x20 DUP6 LT ISZERO PUSH2 0xBA0 JUMPI DUP2 SWAP1 POP JUMPDEST PUSH2 0xBB4 PUSH2 0xBAC DUP6 PUSH2 0xA62 JUMP JUMPDEST DUP4 ADD DUP3 PUSH2 0xB53 JUMP JUMPDEST POP POP JUMPDEST POP POP POP JUMP JUMPDEST PUSH1 0x0 DUP3 DUP3 SHR SWAP1 POP SWAP3 SWAP2 POP POP JUMP JUMPDEST PUSH1 0x0 PUSH2 0xBDA PUSH1 0x0 NOT DUP5 PUSH1 0x8 MUL PUSH2 0xBBC JUMP JUMPDEST NOT DUP1 DUP4 AND SWAP2 POP POP SWAP3 SWAP2 POP POP JUMP JUMPDEST PUSH1 0x0 PUSH2 0xBF3 DUP4 DUP4 PUSH2 0xBC9 JUMP JUMPDEST SWAP2 POP DUP3 PUSH1 0x2 MUL DUP3 OR SWAP1 POP SWAP3 SWAP2 POP POP JUMP JUMPDEST PUSH2 0xC0C DUP3 PUSH2 0x6C4 JUMP JUMPDEST PUSH8 0xFFFFFFFFFFFFFFFF DUP2 GT ISZERO PUSH2 0xC25 JUMPI PUSH2 0xC24 PUSH2 0x866 JUMP JUMPDEST JUMPDEST PUSH2 0xC2F DUP3 SLOAD PUSH2 0xA1C JUMP JUMPDEST PUSH2 0xC3A DUP3 DUP3 DUP6 PUSH2 0xB76 JUMP JUMPDEST PUSH1 0x0 PUSH1 0x20 SWAP1 POP PUSH1 0x1F DUP4 GT PUSH1 0x1 DUP2 EQ PUSH2 0xC6D JUMPI PUSH1 0x0 DUP5 ISZERO PUSH2 0xC5B JUMPI DUP3 DUP8 ADD MLOAD SWAP1 POP JUMPDEST PUSH2 0xC65 DUP6 DUP3 PUSH2 0xBE7 JUMP JUMPDEST DUP7 SSTORE POP PUSH2 0xCCD JUMP JUMPDEST PUSH1 0x1F NOT DUP5 AND PUSH2 0xC7B DUP7 PUSH2 0xA4D JUMP JUMPDEST PUSH1 0x0 JUMPDEST DUP3 DUP2 LT ISZERO PUSH2 0xCA3 JUMPI DUP5 DUP10 ADD MLOAD DUP3 SSTORE PUSH1 0x1 DUP3 ADD SWAP2 POP PUSH1 0x20 DUP6 ADD SWAP5 POP PUSH1 0x20 DUP2 ADD SWAP1 POP PUSH2 0xC7E JUMP JUMPDEST DUP7 DUP4 LT ISZERO PUSH2 0xCC0 JUMPI DUP5 DUP10 ADD MLOAD PUSH2 0xCBC PUSH1 0x1F DUP10 AND DUP3 PUSH2 0xBC9 JUMP JUMPDEST DUP4 SSTORE POP JUMPDEST PUSH1 0x1 PUSH1 0x2 DUP9 MUL ADD DUP9 SSTORE POP POP POP JUMPDEST POP POP POP POP POP POP JUMP JUMPDEST PUSH1 0x0 DUP3 DUP3 MSTORE PUSH1 0x20 DUP3 ADD SWAP1 POP SWAP3 SWAP2 POP POP JUMP JUMPDEST PUSH1 0x0 PUSH2 0xCF1 DUP3 PUSH2 0x6C4 JUMP JUMPDEST PUSH2 0xCFB DUP2 DUP6 PUSH2 0xCD5 JUMP JUMPDEST SWAP4 POP PUSH2 0xD0B DUP2 DUP6 PUSH1 0x20 DUP7 ADD PUSH2 0x6E0 JUMP JUMPDEST PUSH2 0xD14 DUP2 PUSH2 0x70A JUMP JUMPDEST DUP5 ADD SWAP2 POP POP SWAP3 SWAP2 POP POP JUMP JUMPDEST PUSH1 0x0 PUSH1 0x20 DUP3 ADD SWAP1 POP DUP2 DUP2 SUB PUSH1 0x0 DUP4 ADD MSTORE PUSH2 0xD39 DUP2 DUP5 PUSH2 0xCE6 JUMP JUMPDEST SWAP1 POP SWAP3 SWAP2 POP POP JUMP INVALID LOG2 PUSH5 0x6970667358 0x22 SLT KECCAK256 JUMP 0xDB 0xB4 SWAP2 0xEE PUSH18 0x5F67997676AAB711ABFCEE3E253EC82F3464 0xEF 0x27 CALLDATALOAD LOG0 0xD3 SHR 0xDE MUL PUSH5 0x736F6C6343 STOP ADDMOD SLT STOP CALLER "
				},
				"gasEstimates": {
					"creation": {
						"codeDepositCost": "689400",
						"executionCost": "721",
						"totalCost": "690121"
					},
					"external": {
						"getMessages(address)": "infinite",
						"sendMessage(address,string)": "infinite"
					}
				},
				"methodIdentifiers": {
					"getMessages(address)": "b2f71322",
					"sendMessage(address,string)": "de6f24bb"
				}
			},
			"storageLayout": {
				"storage": [
					{
						"astId": 16,
						"contract": "contracts/ChatContract.sol:ChatContract",
						"label": "messages",
						"offset": 0,
						"slot": "0",
						"type": "t_mapping(t_address,t_mapping(t_address,t_array(t_struct(Message)8_storage)dyn_storage))"
					}
				],
				"types": {
					"t_address": {
						"encoding": "inplace",
						"label": "address",
						"numberOfBytes": "20"
					},
					"t_array(t_struct(Message)8_storage)dyn_storage": {
						"base": "t_struct(Message)8_storage",
						"encoding": "dynamic_array",
						"label": "struct ChatContract.Message[]",
						"numberOfBytes": "32"
					},
					"t_mapping(t_address,t_array(t_struct(Message)8_storage)dyn_storage)": {
						"encoding": "mapping",
						"key": "t_address",
						"label": "mapping(address => struct ChatContract.Message[])",
						"numberOfBytes": "32",
						"value": "t_array(t_struct(Message)8_storage)dyn_storage"
					},
					"t_mapping(t_address,t_mapping(t_address,t_array(t_struct(Message)8_storage)dyn_storage))": {
						"encoding": "mapping",
						"key": "t_address",
						"label": "mapping(address => mapping(address => struct ChatContract.Message[]))",
						"numberOfBytes": "32",
						"value": "t_mapping(t_address,t_array(t_struct(Message)8_storage)dyn_storage)"
					},
					"t_string_storage": {
						"encoding": "bytes",
						"label": "string",
						"numberOfBytes": "32"
					},
					"t_struct(Message)8_storage": {
						"encoding": "inplace",
						"label": "struct ChatContract.Message",
						"members": [
							{
								"astId": 3,
								"contract": "contracts/ChatContract.sol:ChatContract",
								"label": "sender",
								"offset": 0,
								"slot": "0",
								"type": "t_address"
							},
							{
								"astId": 5,
								"contract": "contracts/ChatContract.sol:ChatContract",
								"label": "receiver",
								"offset": 0,
								"slot": "1",
								"type": "t_address"
							},
							{
								"astId": 7,
								"contract": "contracts/ChatContract.sol:ChatContract",
								"label": "ipfsHash",
								"offset": 0,
								"slot": "2",
								"type": "t_string_storage"
							}
						],
						"numberOfBytes": "96"
					}
				}
			},
			"userdoc": {
				"kind": "user",
				"methods": {},
				"version": 1
			}
		}
	}
}