{
	"contracts/todo.sol": {
		"TodoList": {
			"abi": [
				{
					"anonymous": false,
					"inputs": [
						{
							"indexed": false,
							"internalType": "uint256",
							"name": "id",
							"type": "uint256"
						},
						{
							"indexed": false,
							"internalType": "bool",
							"name": "completed",
							"type": "bool"
						}
					],
					"name": "TaskCompleted",
					"type": "event"
				},
				{
					"anonymous": false,
					"inputs": [
						{
							"indexed": false,
							"internalType": "uint256",
							"name": "id",
							"type": "uint256"
						},
						{
							"indexed": false,
							"internalType": "string",
							"name": "content",
							"type": "string"
						},
						{
							"indexed": false,
							"internalType": "bool",
							"name": "completed",
							"type": "bool"
						}
					],
					"name": "TaskCreated",
					"type": "event"
				},
				{
					"inputs": [
						{
							"internalType": "string",
							"name": "_content",
							"type": "string"
						}
					],
					"name": "createTask",
					"outputs": [],
					"stateMutability": "nonpayable",
					"type": "function"
				},
				{
					"inputs": [],
					"name": "taskCount",
					"outputs": [
						{
							"internalType": "uint256",
							"name": "",
							"type": "uint256"
						}
					],
					"stateMutability": "view",
					"type": "function"
				},
				{
					"inputs": [
						{
							"internalType": "uint256",
							"name": "",
							"type": "uint256"
						}
					],
					"name": "tasks",
					"outputs": [
						{
							"internalType": "uint256",
							"name": "id",
							"type": "uint256"
						},
						{
							"internalType": "string",
							"name": "content",
							"type": "string"
						},
						{
							"internalType": "bool",
							"name": "completed",
							"type": "bool"
						}
					],
					"stateMutability": "view",
					"type": "function"
				},
				{
					"inputs": [
						{
							"internalType": "uint256",
							"name": "_id",
							"type": "uint256"
						}
					],
					"name": "toggleCompleted",
					"outputs": [],
					"stateMutability": "nonpayable",
					"type": "function"
				}
			],
			"devdoc": {
				"kind": "dev",
				"methods": {},
				"version": 1
			},
			"evm": {
				"assembly": "    /* \"contracts/todo.sol\":70:771  contract TodoList {... */\n  mstore(0x40, 0x80)\n  callvalue\n  dup1\n  iszero\n  tag_1\n  jumpi\n  0x00\n  dup1\n  revert\ntag_1:\n  pop\n  dataSize(sub_0)\n  dup1\n  dataOffset(sub_0)\n  0x00\n  codecopy\n  0x00\n  return\nstop\n\nsub_0: assembly {\n        /* \"contracts/todo.sol\":70:771  contract TodoList {... */\n      mstore(0x40, 0x80)\n      callvalue\n      dup1\n      iszero\n      tag_1\n      jumpi\n      0x00\n      dup1\n      revert\n    tag_1:\n      pop\n      jumpi(tag_2, lt(calldatasize, 0x04))\n      shr(0xe0, calldataload(0x00))\n      dup1\n      0x111002aa\n      eq\n      tag_3\n      jumpi\n      dup1\n      0x455f5024\n      eq\n      tag_4\n      jumpi\n      dup1\n      0x8d977672\n      eq\n      tag_5\n      jumpi\n      dup1\n      0xb6cb58a5\n      eq\n      tag_6\n      jumpi\n    tag_2:\n      0x00\n      dup1\n      revert\n        /* \"contracts/todo.sol\":385:579  function createTask(string memory _content) public {... */\n    tag_3:\n      tag_7\n      0x04\n      dup1\n      calldatasize\n      sub\n      dup2\n      add\n      swap1\n      tag_8\n      swap2\n      swap1\n      tag_9\n      jump\t// in\n    tag_8:\n      tag_10\n      jump\t// in\n    tag_7:\n      stop\n        /* \"contracts/todo.sol\":586:769  function toggleCompleted(uint256 _id) public {... */\n    tag_4:\n      tag_11\n      0x04\n      dup1\n      calldatasize\n      sub\n      dup2\n      add\n      swap1\n      tag_12\n      swap2\n      swap1\n      tag_13\n      jump\t// in\n    tag_12:\n      tag_14\n      jump\t// in\n    tag_11:\n      stop\n        /* \"contracts/todo.sol\":218:255  mapping(uint256 => Task) public tasks */\n    tag_5:\n      tag_15\n      0x04\n      dup1\n      calldatasize\n      sub\n      dup2\n      add\n      swap1\n      tag_16\n      swap2\n      swap1\n      tag_13\n      jump\t// in\n    tag_16:\n      tag_17\n      jump\t// in\n    tag_15:\n      mload(0x40)\n      tag_18\n      swap4\n      swap3\n      swap2\n      swap1\n      tag_19\n      jump\t// in\n    tag_18:\n      mload(0x40)\n      dup1\n      swap2\n      sub\n      swap1\n      return\n        /* \"contracts/todo.sol\":188:212  uint256 public taskCount */\n    tag_6:\n      tag_20\n      tag_21\n      jump\t// in\n    tag_20:\n      mload(0x40)\n      tag_22\n      swap2\n      swap1\n      tag_23\n      jump\t// in\n    tag_22:\n      mload(0x40)\n      dup1\n      swap2\n      sub\n      swap1\n      return\n        /* \"contracts/todo.sol\":385:579  function createTask(string memory _content) public {... */\n    tag_10:\n        /* \"contracts/todo.sol\":446:455  taskCount */\n      0x00\n      dup1\n        /* \"contracts/todo.sol\":446:457  taskCount++ */\n      dup2\n      sload\n      dup1\n      swap3\n      swap2\n      swap1\n      tag_25\n      swap1\n      tag_26\n      jump\t// in\n    tag_25:\n      swap2\n      swap1\n      pop\n      sstore\n      pop\n        /* \"contracts/todo.sol\":486:518  Task(taskCount, _content, false) */\n      mload(0x40)\n      dup1\n      0x60\n      add\n      0x40\n      mstore\n      dup1\n        /* \"contracts/todo.sol\":491:500  taskCount */\n      sload(0x00)\n        /* \"contracts/todo.sol\":486:518  Task(taskCount, _content, false) */\n      dup2\n      mstore\n      0x20\n      add\n        /* \"contracts/todo.sol\":502:510  _content */\n      dup3\n        /* \"contracts/todo.sol\":486:518  Task(taskCount, _content, false) */\n      dup2\n      mstore\n      0x20\n      add\n        /* \"contracts/todo.sol\":512:517  false */\n      0x00\n        /* \"contracts/todo.sol\":486:518  Task(taskCount, _content, false) */\n      iszero\n      iszero\n      dup2\n      mstore\n      pop\n        /* \"contracts/todo.sol\":467:472  tasks */\n      0x01\n        /* \"contracts/todo.sol\":467:483  tasks[taskCount] */\n      0x00\n        /* \"contracts/todo.sol\":473:482  taskCount */\n      dup1\n      sload\n        /* \"contracts/todo.sol\":467:483  tasks[taskCount] */\n      dup2\n      mstore\n      0x20\n      add\n      swap1\n      dup2\n      mstore\n      0x20\n      add\n      0x00\n      keccak256\n        /* \"contracts/todo.sol\":467:518  tasks[taskCount] = Task(taskCount, _content, false) */\n      0x00\n      dup3\n      add\n      mload\n      dup2\n      0x00\n      add\n      sstore\n      0x20\n      dup3\n      add\n      mload\n      dup2\n      0x01\n      add\n      swap1\n      dup2\n      tag_27\n      swap2\n      swap1\n      tag_28\n      jump\t// in\n    tag_27:\n      pop\n      0x40\n      dup3\n      add\n      mload\n      dup2\n      0x02\n      add\n      exp(0x0100, 0x00)\n      dup2\n      sload\n      dup2\n      0xff\n      mul\n      not\n      and\n      swap1\n      dup4\n      iszero\n      iszero\n      mul\n      or\n      swap1\n      sstore\n      pop\n      swap1\n      pop\n      pop\n        /* \"contracts/todo.sol\":533:572  TaskCreated(taskCount, _content, false) */\n      0x05d0fb833127fc08168556d0e7ca9554fc3f6bc843b3b7d2bf1c35aea6bab660\n        /* \"contracts/todo.sol\":545:554  taskCount */\n      sload(0x00)\n        /* \"contracts/todo.sol\":556:564  _content */\n      dup3\n        /* \"contracts/todo.sol\":566:571  false */\n      0x00\n        /* \"contracts/todo.sol\":533:572  TaskCreated(taskCount, _content, false) */\n      mload(0x40)\n      tag_29\n      swap4\n      swap3\n      swap2\n      swap1\n      tag_19\n      jump\t// in\n    tag_29:\n      mload(0x40)\n      dup1\n      swap2\n      sub\n      swap1\n      log1\n        /* \"contracts/todo.sol\":385:579  function createTask(string memory _content) public {... */\n      pop\n      jump\t// out\n        /* \"contracts/todo.sol\":586:769  function toggleCompleted(uint256 _id) public {... */\n    tag_14:\n        /* \"contracts/todo.sol\":641:658  Task storage task */\n      0x00\n        /* \"contracts/todo.sol\":661:666  tasks */\n      0x01\n        /* \"contracts/todo.sol\":661:671  tasks[_id] */\n      0x00\n        /* \"contracts/todo.sol\":667:670  _id */\n      dup4\n        /* \"contracts/todo.sol\":661:671  tasks[_id] */\n      dup2\n      mstore\n      0x20\n      add\n      swap1\n      dup2\n      mstore\n      0x20\n      add\n      0x00\n      keccak256\n        /* \"contracts/todo.sol\":641:671  Task storage task = tasks[_id] */\n      swap1\n      pop\n        /* \"contracts/todo.sol\":699:703  task */\n      dup1\n        /* \"contracts/todo.sol\":699:713  task.completed */\n      0x02\n      add\n      0x00\n      swap1\n      sload\n      swap1\n      0x0100\n      exp\n      swap1\n      div\n      0xff\n      and\n        /* \"contracts/todo.sol\":698:713  !task.completed */\n      iszero\n        /* \"contracts/todo.sol\":681:685  task */\n      dup2\n        /* \"contracts/todo.sol\":681:695  task.completed */\n      0x02\n      add\n      0x00\n        /* \"contracts/todo.sol\":681:713  task.completed = !task.completed */\n      0x0100\n      exp\n      dup2\n      sload\n      dup2\n      0xff\n      mul\n      not\n      and\n      swap1\n      dup4\n      iszero\n      iszero\n      mul\n      or\n      swap1\n      sstore\n      pop\n        /* \"contracts/todo.sol\":728:762  TaskCompleted(_id, task.completed) */\n      0xe21fa966ca5cd02748c0752352d18c48165e61cb55b4c29cccf924b5a95fcff1\n        /* \"contracts/todo.sol\":742:745  _id */\n      dup3\n        /* \"contracts/todo.sol\":747:751  task */\n      dup3\n        /* \"contracts/todo.sol\":747:761  task.completed */\n      0x02\n      add\n      0x00\n      swap1\n      sload\n      swap1\n      0x0100\n      exp\n      swap1\n      div\n      0xff\n      and\n        /* \"contracts/todo.sol\":728:762  TaskCompleted(_id, task.completed) */\n      mload(0x40)\n      tag_31\n      swap3\n      swap2\n      swap1\n      tag_32\n      jump\t// in\n    tag_31:\n      mload(0x40)\n      dup1\n      swap2\n      sub\n      swap1\n      log1\n        /* \"contracts/todo.sol\":631:769  {... */\n      pop\n        /* \"contracts/todo.sol\":586:769  function toggleCompleted(uint256 _id) public {... */\n      pop\n      jump\t// out\n        /* \"contracts/todo.sol\":218:255  mapping(uint256 => Task) public tasks */\n    tag_17:\n      mstore(0x20, 0x01)\n      dup1\n      0x00\n      mstore\n      keccak256(0x00, 0x40)\n      0x00\n      swap2\n      pop\n      swap1\n      pop\n      dup1\n      0x00\n      add\n      sload\n      swap1\n      dup1\n      0x01\n      add\n      dup1\n      sload\n      tag_33\n      swap1\n      tag_34\n      jump\t// in\n    tag_33:\n      dup1\n      0x1f\n      add\n      0x20\n      dup1\n      swap2\n      div\n      mul\n      0x20\n      add\n      mload(0x40)\n      swap1\n      dup2\n      add\n      0x40\n      mstore\n      dup1\n      swap3\n      swap2\n      swap1\n      dup2\n      dup2\n      mstore\n      0x20\n      add\n      dup3\n      dup1\n      sload\n      tag_35\n      swap1\n      tag_34\n      jump\t// in\n    tag_35:\n      dup1\n      iszero\n      tag_36\n      jumpi\n      dup1\n      0x1f\n      lt\n      tag_37\n      jumpi\n      0x0100\n      dup1\n      dup4\n      sload\n      div\n      mul\n      dup4\n      mstore\n      swap2\n      0x20\n      add\n      swap2\n      jump(tag_36)\n    tag_37:\n      dup3\n      add\n      swap2\n      swap1\n      0x00\n      mstore\n      keccak256(0x00, 0x20)\n      swap1\n    tag_38:\n      dup2\n      sload\n      dup2\n      mstore\n      swap1\n      0x01\n      add\n      swap1\n      0x20\n      add\n      dup1\n      dup4\n      gt\n      tag_38\n      jumpi\n      dup3\n      swap1\n      sub\n      0x1f\n      and\n      dup3\n      add\n      swap2\n    tag_36:\n      pop\n      pop\n      pop\n      pop\n      pop\n      swap1\n      dup1\n      0x02\n      add\n      0x00\n      swap1\n      sload\n      swap1\n      0x0100\n      exp\n      swap1\n      div\n      0xff\n      and\n      swap1\n      pop\n      dup4\n      jump\t// out\n        /* \"contracts/todo.sol\":188:212  uint256 public taskCount */\n    tag_21:\n      sload(0x00)\n      dup2\n      jump\t// out\n        /* \"#utility.yul\":7:82   */\n    tag_39:\n        /* \"#utility.yul\":40:46   */\n      0x00\n        /* \"#utility.yul\":73:75   */\n      0x40\n        /* \"#utility.yul\":67:76   */\n      mload\n        /* \"#utility.yul\":57:76   */\n      swap1\n      pop\n        /* \"#utility.yul\":7:82   */\n      swap1\n      jump\t// out\n        /* \"#utility.yul\":88:205   */\n    tag_40:\n        /* \"#utility.yul\":197:198   */\n      0x00\n        /* \"#utility.yul\":194:195   */\n      dup1\n        /* \"#utility.yul\":187:199   */\n      revert\n        /* \"#utility.yul\":211:328   */\n    tag_41:\n        /* \"#utility.yul\":320:321   */\n      0x00\n        /* \"#utility.yul\":317:318   */\n      dup1\n        /* \"#utility.yul\":310:322   */\n      revert\n        /* \"#utility.yul\":334:451   */\n    tag_42:\n        /* \"#utility.yul\":443:444   */\n      0x00\n        /* \"#utility.yul\":440:441   */\n      dup1\n        /* \"#utility.yul\":433:445   */\n      revert\n        /* \"#utility.yul\":457:574   */\n    tag_43:\n        /* \"#utility.yul\":566:567   */\n      0x00\n        /* \"#utility.yul\":563:564   */\n      dup1\n        /* \"#utility.yul\":556:568   */\n      revert\n        /* \"#utility.yul\":580:682   */\n    tag_44:\n        /* \"#utility.yul\":621:627   */\n      0x00\n        /* \"#utility.yul\":672:674   */\n      0x1f\n        /* \"#utility.yul\":668:675   */\n      not\n        /* \"#utility.yul\":663:665   */\n      0x1f\n        /* \"#utility.yul\":656:661   */\n      dup4\n        /* \"#utility.yul\":652:666   */\n      add\n        /* \"#utility.yul\":648:676   */\n      and\n        /* \"#utility.yul\":638:676   */\n      swap1\n      pop\n        /* \"#utility.yul\":580:682   */\n      swap2\n      swap1\n      pop\n      jump\t// out\n        /* \"#utility.yul\":688:868   */\n    tag_45:\n        /* \"#utility.yul\":736:813   */\n      0x4e487b7100000000000000000000000000000000000000000000000000000000\n        /* \"#utility.yul\":733:734   */\n      0x00\n        /* \"#utility.yul\":726:814   */\n      mstore\n        /* \"#utility.yul\":833:837   */\n      0x41\n        /* \"#utility.yul\":830:831   */\n      0x04\n        /* \"#utility.yul\":823:838   */\n      mstore\n        /* \"#utility.yul\":857:861   */\n      0x24\n        /* \"#utility.yul\":854:855   */\n      0x00\n        /* \"#utility.yul\":847:862   */\n      revert\n        /* \"#utility.yul\":874:1155   */\n    tag_46:\n        /* \"#utility.yul\":957:984   */\n      tag_88\n        /* \"#utility.yul\":979:983   */\n      dup3\n        /* \"#utility.yul\":957:984   */\n      tag_44\n      jump\t// in\n    tag_88:\n        /* \"#utility.yul\":949:955   */\n      dup2\n        /* \"#utility.yul\":945:985   */\n      add\n        /* \"#utility.yul\":1087:1093   */\n      dup2\n        /* \"#utility.yul\":1075:1085   */\n      dup2\n        /* \"#utility.yul\":1072:1094   */\n      lt\n        /* \"#utility.yul\":1051:1069   */\n      0xffffffffffffffff\n        /* \"#utility.yul\":1039:1049   */\n      dup3\n        /* \"#utility.yul\":1036:1070   */\n      gt\n        /* \"#utility.yul\":1033:1095   */\n      or\n        /* \"#utility.yul\":1030:1118   */\n      iszero\n      tag_89\n      jumpi\n        /* \"#utility.yul\":1098:1116   */\n      tag_90\n      tag_45\n      jump\t// in\n    tag_90:\n        /* \"#utility.yul\":1030:1118   */\n    tag_89:\n        /* \"#utility.yul\":1138:1148   */\n      dup1\n        /* \"#utility.yul\":1134:1136   */\n      0x40\n        /* \"#utility.yul\":1127:1149   */\n      mstore\n        /* \"#utility.yul\":917:1155   */\n      pop\n        /* \"#utility.yul\":874:1155   */\n      pop\n      pop\n      jump\t// out\n        /* \"#utility.yul\":1161:1290   */\n    tag_47:\n        /* \"#utility.yul\":1195:1201   */\n      0x00\n        /* \"#utility.yul\":1222:1242   */\n      tag_92\n      tag_39\n      jump\t// in\n    tag_92:\n        /* \"#utility.yul\":1212:1242   */\n      swap1\n      pop\n        /* \"#utility.yul\":1251:1284   */\n      tag_93\n        /* \"#utility.yul\":1279:1283   */\n      dup3\n        /* \"#utility.yul\":1271:1277   */\n      dup3\n        /* \"#utility.yul\":1251:1284   */\n      tag_46\n      jump\t// in\n    tag_93:\n        /* \"#utility.yul\":1161:1290   */\n      swap2\n      swap1\n      pop\n      jump\t// out\n        /* \"#utility.yul\":1296:1604   */\n    tag_48:\n        /* \"#utility.yul\":1358:1362   */\n      0x00\n        /* \"#utility.yul\":1448:1466   */\n      0xffffffffffffffff\n        /* \"#utility.yul\":1440:1446   */\n      dup3\n        /* \"#utility.yul\":1437:1467   */\n      gt\n        /* \"#utility.yul\":1434:1490   */\n      iszero\n      tag_95\n      jumpi\n        /* \"#utility.yul\":1470:1488   */\n      tag_96\n      tag_45\n      jump\t// in\n    tag_96:\n        /* \"#utility.yul\":1434:1490   */\n    tag_95:\n        /* \"#utility.yul\":1508:1537   */\n      tag_97\n        /* \"#utility.yul\":1530:1536   */\n      dup3\n        /* \"#utility.yul\":1508:1537   */\n      tag_44\n      jump\t// in\n    tag_97:\n        /* \"#utility.yul\":1500:1537   */\n      swap1\n      pop\n        /* \"#utility.yul\":1592:1596   */\n      0x20\n        /* \"#utility.yul\":1586:1590   */\n      dup2\n        /* \"#utility.yul\":1582:1597   */\n      add\n        /* \"#utility.yul\":1574:1597   */\n      swap1\n      pop\n        /* \"#utility.yul\":1296:1604   */\n      swap2\n      swap1\n      pop\n      jump\t// out\n        /* \"#utility.yul\":1610:1756   */\n    tag_49:\n        /* \"#utility.yul\":1707:1713   */\n      dup3\n        /* \"#utility.yul\":1702:1705   */\n      dup2\n        /* \"#utility.yul\":1697:1700   */\n      dup4\n        /* \"#utility.yul\":1684:1714   */\n      calldatacopy\n        /* \"#utility.yul\":1748:1749   */\n      0x00\n        /* \"#utility.yul\":1739:1745   */\n      dup4\n        /* \"#utility.yul\":1734:1737   */\n      dup4\n        /* \"#utility.yul\":1730:1746   */\n      add\n        /* \"#utility.yul\":1723:1750   */\n      mstore\n        /* \"#utility.yul\":1610:1756   */\n      pop\n      pop\n      pop\n      jump\t// out\n        /* \"#utility.yul\":1762:2187   */\n    tag_50:\n        /* \"#utility.yul\":1840:1845   */\n      0x00\n        /* \"#utility.yul\":1865:1931   */\n      tag_100\n        /* \"#utility.yul\":1881:1930   */\n      tag_101\n        /* \"#utility.yul\":1923:1929   */\n      dup5\n        /* \"#utility.yul\":1881:1930   */\n      tag_48\n      jump\t// in\n    tag_101:\n        /* \"#utility.yul\":1865:1931   */\n      tag_47\n      jump\t// in\n    tag_100:\n        /* \"#utility.yul\":1856:1931   */\n      swap1\n      pop\n        /* \"#utility.yul\":1954:1960   */\n      dup3\n        /* \"#utility.yul\":1947:1952   */\n      dup2\n        /* \"#utility.yul\":1940:1961   */\n      mstore\n        /* \"#utility.yul\":1992:1996   */\n      0x20\n        /* \"#utility.yul\":1985:1990   */\n      dup2\n        /* \"#utility.yul\":1981:1997   */\n      add\n        /* \"#utility.yul\":2030:2033   */\n      dup5\n        /* \"#utility.yul\":2021:2027   */\n      dup5\n        /* \"#utility.yul\":2016:2019   */\n      dup5\n        /* \"#utility.yul\":2012:2028   */\n      add\n        /* \"#utility.yul\":2009:2034   */\n      gt\n        /* \"#utility.yul\":2006:2118   */\n      iszero\n      tag_102\n      jumpi\n        /* \"#utility.yul\":2037:2116   */\n      tag_103\n      tag_43\n      jump\t// in\n    tag_103:\n        /* \"#utility.yul\":2006:2118   */\n    tag_102:\n        /* \"#utility.yul\":2127:2181   */\n      tag_104\n        /* \"#utility.yul\":2174:2180   */\n      dup5\n        /* \"#utility.yul\":2169:2172   */\n      dup3\n        /* \"#utility.yul\":2164:2167   */\n      dup6\n        /* \"#utility.yul\":2127:2181   */\n      tag_49\n      jump\t// in\n    tag_104:\n        /* \"#utility.yul\":1846:2187   */\n      pop\n        /* \"#utility.yul\":1762:2187   */\n      swap4\n      swap3\n      pop\n      pop\n      pop\n      jump\t// out\n        /* \"#utility.yul\":2207:2547   */\n    tag_51:\n        /* \"#utility.yul\":2263:2268   */\n      0x00\n        /* \"#utility.yul\":2312:2315   */\n      dup3\n        /* \"#utility.yul\":2305:2309   */\n      0x1f\n        /* \"#utility.yul\":2297:2303   */\n      dup4\n        /* \"#utility.yul\":2293:2310   */\n      add\n        /* \"#utility.yul\":2289:2316   */\n      slt\n        /* \"#utility.yul\":2279:2401   */\n      tag_106\n      jumpi\n        /* \"#utility.yul\":2320:2399   */\n      tag_107\n      tag_42\n      jump\t// in\n    tag_107:\n        /* \"#utility.yul\":2279:2401   */\n    tag_106:\n        /* \"#utility.yul\":2437:2443   */\n      dup2\n        /* \"#utility.yul\":2424:2444   */\n      calldataload\n        /* \"#utility.yul\":2462:2541   */\n      tag_108\n        /* \"#utility.yul\":2537:2540   */\n      dup5\n        /* \"#utility.yul\":2529:2535   */\n      dup3\n        /* \"#utility.yul\":2522:2526   */\n      0x20\n        /* \"#utility.yul\":2514:2520   */\n      dup7\n        /* \"#utility.yul\":2510:2527   */\n      add\n        /* \"#utility.yul\":2462:2541   */\n      tag_50\n      jump\t// in\n    tag_108:\n        /* \"#utility.yul\":2453:2541   */\n      swap2\n      pop\n        /* \"#utility.yul\":2269:2547   */\n      pop\n        /* \"#utility.yul\":2207:2547   */\n      swap3\n      swap2\n      pop\n      pop\n      jump\t// out\n        /* \"#utility.yul\":2553:3062   */\n    tag_9:\n        /* \"#utility.yul\":2622:2628   */\n      0x00\n        /* \"#utility.yul\":2671:2673   */\n      0x20\n        /* \"#utility.yul\":2659:2668   */\n      dup3\n        /* \"#utility.yul\":2650:2657   */\n      dup5\n        /* \"#utility.yul\":2646:2669   */\n      sub\n        /* \"#utility.yul\":2642:2674   */\n      slt\n        /* \"#utility.yul\":2639:2758   */\n      iszero\n      tag_110\n      jumpi\n        /* \"#utility.yul\":2677:2756   */\n      tag_111\n      tag_40\n      jump\t// in\n    tag_111:\n        /* \"#utility.yul\":2639:2758   */\n    tag_110:\n        /* \"#utility.yul\":2825:2826   */\n      0x00\n        /* \"#utility.yul\":2814:2823   */\n      dup3\n        /* \"#utility.yul\":2810:2827   */\n      add\n        /* \"#utility.yul\":2797:2828   */\n      calldataload\n        /* \"#utility.yul\":2855:2873   */\n      0xffffffffffffffff\n        /* \"#utility.yul\":2847:2853   */\n      dup2\n        /* \"#utility.yul\":2844:2874   */\n      gt\n        /* \"#utility.yul\":2841:2958   */\n      iszero\n      tag_112\n      jumpi\n        /* \"#utility.yul\":2877:2956   */\n      tag_113\n      tag_41\n      jump\t// in\n    tag_113:\n        /* \"#utility.yul\":2841:2958   */\n    tag_112:\n        /* \"#utility.yul\":2982:3045   */\n      tag_114\n        /* \"#utility.yul\":3037:3044   */\n      dup5\n        /* \"#utility.yul\":3028:3034   */\n      dup3\n        /* \"#utility.yul\":3017:3026   */\n      dup6\n        /* \"#utility.yul\":3013:3035   */\n      add\n        /* \"#utility.yul\":2982:3045   */\n      tag_51\n      jump\t// in\n    tag_114:\n        /* \"#utility.yul\":2972:3045   */\n      swap2\n      pop\n        /* \"#utility.yul\":2768:3055   */\n      pop\n        /* \"#utility.yul\":2553:3062   */\n      swap3\n      swap2\n      pop\n      pop\n      jump\t// out\n        /* \"#utility.yul\":3068:3145   */\n    tag_52:\n        /* \"#utility.yul\":3105:3112   */\n      0x00\n        /* \"#utility.yul\":3134:3139   */\n      dup2\n        /* \"#utility.yul\":3123:3139   */\n      swap1\n      pop\n        /* \"#utility.yul\":3068:3145   */\n      swap2\n      swap1\n      pop\n      jump\t// out\n        /* \"#utility.yul\":3151:3273   */\n    tag_53:\n        /* \"#utility.yul\":3224:3248   */\n      tag_117\n        /* \"#utility.yul\":3242:3247   */\n      dup2\n        /* \"#utility.yul\":3224:3248   */\n      tag_52\n      jump\t// in\n    tag_117:\n        /* \"#utility.yul\":3217:3222   */\n      dup2\n        /* \"#utility.yul\":3214:3249   */\n      eq\n        /* \"#utility.yul\":3204:3267   */\n      tag_118\n      jumpi\n        /* \"#utility.yul\":3263:3264   */\n      0x00\n        /* \"#utility.yul\":3260:3261   */\n      dup1\n        /* \"#utility.yul\":3253:3265   */\n      revert\n        /* \"#utility.yul\":3204:3267   */\n    tag_118:\n        /* \"#utility.yul\":3151:3273   */\n      pop\n      jump\t// out\n        /* \"#utility.yul\":3279:3418   */\n    tag_54:\n        /* \"#utility.yul\":3325:3330   */\n      0x00\n        /* \"#utility.yul\":3363:3369   */\n      dup2\n        /* \"#utility.yul\":3350:3370   */\n      calldataload\n        /* \"#utility.yul\":3341:3370   */\n      swap1\n      pop\n        /* \"#utility.yul\":3379:3412   */\n      tag_120\n        /* \"#utility.yul\":3406:3411   */\n      dup2\n        /* \"#utility.yul\":3379:3412   */\n      tag_53\n      jump\t// in\n    tag_120:\n        /* \"#utility.yul\":3279:3418   */\n      swap3\n      swap2\n      pop\n      pop\n      jump\t// out\n        /* \"#utility.yul\":3424:3753   */\n    tag_13:\n        /* \"#utility.yul\":3483:3489   */\n      0x00\n        /* \"#utility.yul\":3532:3534   */\n      0x20\n        /* \"#utility.yul\":3520:3529   */\n      dup3\n        /* \"#utility.yul\":3511:3518   */\n      dup5\n        /* \"#utility.yul\":3507:3530   */\n      sub\n        /* \"#utility.yul\":3503:3535   */\n      slt\n        /* \"#utility.yul\":3500:3619   */\n      iszero\n      tag_122\n      jumpi\n        /* \"#utility.yul\":3538:3617   */\n      tag_123\n      tag_40\n      jump\t// in\n    tag_123:\n        /* \"#utility.yul\":3500:3619   */\n    tag_122:\n        /* \"#utility.yul\":3658:3659   */\n      0x00\n        /* \"#utility.yul\":3683:3736   */\n      tag_124\n        /* \"#utility.yul\":3728:3735   */\n      dup5\n        /* \"#utility.yul\":3719:3725   */\n      dup3\n        /* \"#utility.yul\":3708:3717   */\n      dup6\n        /* \"#utility.yul\":3704:3726   */\n      add\n        /* \"#utility.yul\":3683:3736   */\n      tag_54\n      jump\t// in\n    tag_124:\n        /* \"#utility.yul\":3673:3736   */\n      swap2\n      pop\n        /* \"#utility.yul\":3629:3746   */\n      pop\n        /* \"#utility.yul\":3424:3753   */\n      swap3\n      swap2\n      pop\n      pop\n      jump\t// out\n        /* \"#utility.yul\":3759:3877   */\n    tag_55:\n        /* \"#utility.yul\":3846:3870   */\n      tag_126\n        /* \"#utility.yul\":3864:3869   */\n      dup2\n        /* \"#utility.yul\":3846:3870   */\n      tag_52\n      jump\t// in\n    tag_126:\n        /* \"#utility.yul\":3841:3844   */\n      dup3\n        /* \"#utility.yul\":3834:3871   */\n      mstore\n        /* \"#utility.yul\":3759:3877   */\n      pop\n      pop\n      jump\t// out\n        /* \"#utility.yul\":3883:3982   */\n    tag_56:\n        /* \"#utility.yul\":3935:3941   */\n      0x00\n        /* \"#utility.yul\":3969:3974   */\n      dup2\n        /* \"#utility.yul\":3963:3975   */\n      mload\n        /* \"#utility.yul\":3953:3975   */\n      swap1\n      pop\n        /* \"#utility.yul\":3883:3982   */\n      swap2\n      swap1\n      pop\n      jump\t// out\n        /* \"#utility.yul\":3988:4157   */\n    tag_57:\n        /* \"#utility.yul\":4072:4083   */\n      0x00\n        /* \"#utility.yul\":4106:4112   */\n      dup3\n        /* \"#utility.yul\":4101:4104   */\n      dup3\n        /* \"#utility.yul\":4094:4113   */\n      mstore\n        /* \"#utility.yul\":4146:4150   */\n      0x20\n        /* \"#utility.yul\":4141:4144   */\n      dup3\n        /* \"#utility.yul\":4137:4151   */\n      add\n        /* \"#utility.yul\":4122:4151   */\n      swap1\n      pop\n        /* \"#utility.yul\":3988:4157   */\n      swap3\n      swap2\n      pop\n      pop\n      jump\t// out\n        /* \"#utility.yul\":4163:4409   */\n    tag_58:\n        /* \"#utility.yul\":4244:4245   */\n      0x00\n        /* \"#utility.yul\":4254:4367   */\n    tag_130:\n        /* \"#utility.yul\":4268:4274   */\n      dup4\n        /* \"#utility.yul\":4265:4266   */\n      dup2\n        /* \"#utility.yul\":4262:4275   */\n      lt\n        /* \"#utility.yul\":4254:4367   */\n      iszero\n      tag_132\n      jumpi\n        /* \"#utility.yul\":4353:4354   */\n      dup1\n        /* \"#utility.yul\":4348:4351   */\n      dup3\n        /* \"#utility.yul\":4344:4355   */\n      add\n        /* \"#utility.yul\":4338:4356   */\n      mload\n        /* \"#utility.yul\":4334:4335   */\n      dup2\n        /* \"#utility.yul\":4329:4332   */\n      dup5\n        /* \"#utility.yul\":4325:4336   */\n      add\n        /* \"#utility.yul\":4318:4357   */\n      mstore\n        /* \"#utility.yul\":4290:4292   */\n      0x20\n        /* \"#utility.yul\":4287:4288   */\n      dup2\n        /* \"#utility.yul\":4283:4293   */\n      add\n        /* \"#utility.yul\":4278:4293   */\n      swap1\n      pop\n        /* \"#utility.yul\":4254:4367   */\n      jump(tag_130)\n    tag_132:\n        /* \"#utility.yul\":4401:4402   */\n      0x00\n        /* \"#utility.yul\":4392:4398   */\n      dup5\n        /* \"#utility.yul\":4387:4390   */\n      dup5\n        /* \"#utility.yul\":4383:4399   */\n      add\n        /* \"#utility.yul\":4376:4403   */\n      mstore\n        /* \"#utility.yul\":4225:4409   */\n      pop\n        /* \"#utility.yul\":4163:4409   */\n      pop\n      pop\n      pop\n      jump\t// out\n        /* \"#utility.yul\":4415:4792   */\n    tag_59:\n        /* \"#utility.yul\":4503:4506   */\n      0x00\n        /* \"#utility.yul\":4531:4570   */\n      tag_134\n        /* \"#utility.yul\":4564:4569   */\n      dup3\n        /* \"#utility.yul\":4531:4570   */\n      tag_56\n      jump\t// in\n    tag_134:\n        /* \"#utility.yul\":4586:4657   */\n      tag_135\n        /* \"#utility.yul\":4650:4656   */\n      dup2\n        /* \"#utility.yul\":4645:4648   */\n      dup6\n        /* \"#utility.yul\":4586:4657   */\n      tag_57\n      jump\t// in\n    tag_135:\n        /* \"#utility.yul\":4579:4657   */\n      swap4\n      pop\n        /* \"#utility.yul\":4666:4731   */\n      tag_136\n        /* \"#utility.yul\":4724:4730   */\n      dup2\n        /* \"#utility.yul\":4719:4722   */\n      dup6\n        /* \"#utility.yul\":4712:4716   */\n      0x20\n        /* \"#utility.yul\":4705:4710   */\n      dup7\n        /* \"#utility.yul\":4701:4717   */\n      add\n        /* \"#utility.yul\":4666:4731   */\n      tag_58\n      jump\t// in\n    tag_136:\n        /* \"#utility.yul\":4756:4785   */\n      tag_137\n        /* \"#utility.yul\":4778:4784   */\n      dup2\n        /* \"#utility.yul\":4756:4785   */\n      tag_44\n      jump\t// in\n    tag_137:\n        /* \"#utility.yul\":4751:4754   */\n      dup5\n        /* \"#utility.yul\":4747:4786   */\n      add\n        /* \"#utility.yul\":4740:4786   */\n      swap2\n      pop\n        /* \"#utility.yul\":4507:4792   */\n      pop\n        /* \"#utility.yul\":4415:4792   */\n      swap3\n      swap2\n      pop\n      pop\n      jump\t// out\n        /* \"#utility.yul\":4798:4888   */\n    tag_60:\n        /* \"#utility.yul\":4832:4839   */\n      0x00\n        /* \"#utility.yul\":4875:4880   */\n      dup2\n        /* \"#utility.yul\":4868:4881   */\n      iszero\n        /* \"#utility.yul\":4861:4882   */\n      iszero\n        /* \"#utility.yul\":4850:4882   */\n      swap1\n      pop\n        /* \"#utility.yul\":4798:4888   */\n      swap2\n      swap1\n      pop\n      jump\t// out\n        /* \"#utility.yul\":4894:5003   */\n    tag_61:\n        /* \"#utility.yul\":4975:4996   */\n      tag_140\n        /* \"#utility.yul\":4990:4995   */\n      dup2\n        /* \"#utility.yul\":4975:4996   */\n      tag_60\n      jump\t// in\n    tag_140:\n        /* \"#utility.yul\":4970:4973   */\n      dup3\n        /* \"#utility.yul\":4963:4997   */\n      mstore\n        /* \"#utility.yul\":4894:5003   */\n      pop\n      pop\n      jump\t// out\n        /* \"#utility.yul\":5009:5530   */\n    tag_19:\n        /* \"#utility.yul\":5172:5176   */\n      0x00\n        /* \"#utility.yul\":5210:5212   */\n      0x60\n        /* \"#utility.yul\":5199:5208   */\n      dup3\n        /* \"#utility.yul\":5195:5213   */\n      add\n        /* \"#utility.yul\":5187:5213   */\n      swap1\n      pop\n        /* \"#utility.yul\":5223:5294   */\n      tag_142\n        /* \"#utility.yul\":5291:5292   */\n      0x00\n        /* \"#utility.yul\":5280:5289   */\n      dup4\n        /* \"#utility.yul\":5276:5293   */\n      add\n        /* \"#utility.yul\":5267:5273   */\n      dup7\n        /* \"#utility.yul\":5223:5294   */\n      tag_55\n      jump\t// in\n    tag_142:\n        /* \"#utility.yul\":5341:5350   */\n      dup2\n        /* \"#utility.yul\":5335:5339   */\n      dup2\n        /* \"#utility.yul\":5331:5351   */\n      sub\n        /* \"#utility.yul\":5326:5328   */\n      0x20\n        /* \"#utility.yul\":5315:5324   */\n      dup4\n        /* \"#utility.yul\":5311:5329   */\n      add\n        /* \"#utility.yul\":5304:5352   */\n      mstore\n        /* \"#utility.yul\":5369:5447   */\n      tag_143\n        /* \"#utility.yul\":5442:5446   */\n      dup2\n        /* \"#utility.yul\":5433:5439   */\n      dup6\n        /* \"#utility.yul\":5369:5447   */\n      tag_59\n      jump\t// in\n    tag_143:\n        /* \"#utility.yul\":5361:5447   */\n      swap1\n      pop\n        /* \"#utility.yul\":5457:5523   */\n      tag_144\n        /* \"#utility.yul\":5519:5521   */\n      0x40\n        /* \"#utility.yul\":5508:5517   */\n      dup4\n        /* \"#utility.yul\":5504:5522   */\n      add\n        /* \"#utility.yul\":5495:5501   */\n      dup5\n        /* \"#utility.yul\":5457:5523   */\n      tag_61\n      jump\t// in\n    tag_144:\n        /* \"#utility.yul\":5009:5530   */\n      swap5\n      swap4\n      pop\n      pop\n      pop\n      pop\n      jump\t// out\n        /* \"#utility.yul\":5536:5758   */\n    tag_23:\n        /* \"#utility.yul\":5629:5633   */\n      0x00\n        /* \"#utility.yul\":5667:5669   */\n      0x20\n        /* \"#utility.yul\":5656:5665   */\n      dup3\n        /* \"#utility.yul\":5652:5670   */\n      add\n        /* \"#utility.yul\":5644:5670   */\n      swap1\n      pop\n        /* \"#utility.yul\":5680:5751   */\n      tag_146\n        /* \"#utility.yul\":5748:5749   */\n      0x00\n        /* \"#utility.yul\":5737:5746   */\n      dup4\n        /* \"#utility.yul\":5733:5750   */\n      add\n        /* \"#utility.yul\":5724:5730   */\n      dup5\n        /* \"#utility.yul\":5680:5751   */\n      tag_55\n      jump\t// in\n    tag_146:\n        /* \"#utility.yul\":5536:5758   */\n      swap3\n      swap2\n      pop\n      pop\n      jump\t// out\n        /* \"#utility.yul\":5764:5944   */\n    tag_62:\n        /* \"#utility.yul\":5812:5889   */\n      0x4e487b7100000000000000000000000000000000000000000000000000000000\n        /* \"#utility.yul\":5809:5810   */\n      0x00\n        /* \"#utility.yul\":5802:5890   */\n      mstore\n        /* \"#utility.yul\":5909:5913   */\n      0x11\n        /* \"#utility.yul\":5906:5907   */\n      0x04\n        /* \"#utility.yul\":5899:5914   */\n      mstore\n        /* \"#utility.yul\":5933:5937   */\n      0x24\n        /* \"#utility.yul\":5930:5931   */\n      0x00\n        /* \"#utility.yul\":5923:5938   */\n      revert\n        /* \"#utility.yul\":5950:6183   */\n    tag_26:\n        /* \"#utility.yul\":5989:5992   */\n      0x00\n        /* \"#utility.yul\":6012:6036   */\n      tag_149\n        /* \"#utility.yul\":6030:6035   */\n      dup3\n        /* \"#utility.yul\":6012:6036   */\n      tag_52\n      jump\t// in\n    tag_149:\n        /* \"#utility.yul\":6003:6036   */\n      swap2\n      pop\n        /* \"#utility.yul\":6058:6124   */\n      0xffffffffffffffffffffffffffffffffffffffffffffffffffffffffffffffff\n        /* \"#utility.yul\":6051:6056   */\n      dup3\n        /* \"#utility.yul\":6048:6125   */\n      sub\n        /* \"#utility.yul\":6045:6148   */\n      tag_150\n      jumpi\n        /* \"#utility.yul\":6128:6146   */\n      tag_151\n      tag_62\n      jump\t// in\n    tag_151:\n        /* \"#utility.yul\":6045:6148   */\n    tag_150:\n        /* \"#utility.yul\":6175:6176   */\n      0x01\n        /* \"#utility.yul\":6168:6173   */\n      dup3\n        /* \"#utility.yul\":6164:6177   */\n      add\n        /* \"#utility.yul\":6157:6177   */\n      swap1\n      pop\n        /* \"#utility.yul\":5950:6183   */\n      swap2\n      swap1\n      pop\n      jump\t// out\n        /* \"#utility.yul\":6189:6369   */\n    tag_63:\n        /* \"#utility.yul\":6237:6314   */\n      0x4e487b7100000000000000000000000000000000000000000000000000000000\n        /* \"#utility.yul\":6234:6235   */\n      0x00\n        /* \"#utility.yul\":6227:6315   */\n      mstore\n        /* \"#utility.yul\":6334:6338   */\n      0x22\n        /* \"#utility.yul\":6331:6332   */\n      0x04\n        /* \"#utility.yul\":6324:6339   */\n      mstore\n        /* \"#utility.yul\":6358:6362   */\n      0x24\n        /* \"#utility.yul\":6355:6356   */\n      0x00\n        /* \"#utility.yul\":6348:6363   */\n      revert\n        /* \"#utility.yul\":6375:6695   */\n    tag_34:\n        /* \"#utility.yul\":6419:6425   */\n      0x00\n        /* \"#utility.yul\":6456:6457   */\n      0x02\n        /* \"#utility.yul\":6450:6454   */\n      dup3\n        /* \"#utility.yul\":6446:6458   */\n      div\n        /* \"#utility.yul\":6436:6458   */\n      swap1\n      pop\n        /* \"#utility.yul\":6503:6504   */\n      0x01\n        /* \"#utility.yul\":6497:6501   */\n      dup3\n        /* \"#utility.yul\":6493:6505   */\n      and\n        /* \"#utility.yul\":6524:6542   */\n      dup1\n        /* \"#utility.yul\":6514:6595   */\n      tag_154\n      jumpi\n        /* \"#utility.yul\":6580:6584   */\n      0x7f\n        /* \"#utility.yul\":6572:6578   */\n      dup3\n        /* \"#utility.yul\":6568:6585   */\n      and\n        /* \"#utility.yul\":6558:6585   */\n      swap2\n      pop\n        /* \"#utility.yul\":6514:6595   */\n    tag_154:\n        /* \"#utility.yul\":6642:6644   */\n      0x20\n        /* \"#utility.yul\":6634:6640   */\n      dup3\n        /* \"#utility.yul\":6631:6645   */\n      lt\n        /* \"#utility.yul\":6611:6629   */\n      dup2\n        /* \"#utility.yul\":6608:6646   */\n      sub\n        /* \"#utility.yul\":6605:6689   */\n      tag_155\n      jumpi\n        /* \"#utility.yul\":6661:6679   */\n      tag_156\n      tag_63\n      jump\t// in\n    tag_156:\n        /* \"#utility.yul\":6605:6689   */\n    tag_155:\n        /* \"#utility.yul\":6426:6695   */\n      pop\n        /* \"#utility.yul\":6375:6695   */\n      swap2\n      swap1\n      pop\n      jump\t// out\n        /* \"#utility.yul\":6701:6842   */\n    tag_64:\n        /* \"#utility.yul\":6750:6754   */\n      0x00\n        /* \"#utility.yul\":6773:6776   */\n      dup2\n        /* \"#utility.yul\":6765:6776   */\n      swap1\n      pop\n        /* \"#utility.yul\":6796:6799   */\n      dup2\n        /* \"#utility.yul\":6793:6794   */\n      0x00\n        /* \"#utility.yul\":6786:6800   */\n      mstore\n        /* \"#utility.yul\":6830:6834   */\n      0x20\n        /* \"#utility.yul\":6827:6828   */\n      0x00\n        /* \"#utility.yul\":6817:6835   */\n      keccak256\n        /* \"#utility.yul\":6809:6835   */\n      swap1\n      pop\n        /* \"#utility.yul\":6701:6842   */\n      swap2\n      swap1\n      pop\n      jump\t// out\n        /* \"#utility.yul\":6848:6941   */\n    tag_65:\n        /* \"#utility.yul\":6885:6891   */\n      0x00\n        /* \"#utility.yul\":6932:6934   */\n      0x20\n        /* \"#utility.yul\":6927:6929   */\n      0x1f\n        /* \"#utility.yul\":6920:6925   */\n      dup4\n        /* \"#utility.yul\":6916:6930   */\n      add\n        /* \"#utility.yul\":6912:6935   */\n      div\n        /* \"#utility.yul\":6902:6935   */\n      swap1\n      pop\n        /* \"#utility.yul\":6848:6941   */\n      swap2\n      swap1\n      pop\n      jump\t// out\n        /* \"#utility.yul\":6947:7054   */\n    tag_66:\n        /* \"#utility.yul\":6991:6999   */\n      0x00\n        /* \"#utility.yul\":7041:7046   */\n      dup3\n        /* \"#utility.yul\":7035:7039   */\n      dup3\n        /* \"#utility.yul\":7031:7047   */\n      shl\n        /* \"#utility.yul\":7010:7047   */\n      swap1\n      pop\n        /* \"#utility.yul\":6947:7054   */\n      swap3\n      swap2\n      pop\n      pop\n      jump\t// out\n        /* \"#utility.yul\":7060:7453   */\n    tag_67:\n        /* \"#utility.yul\":7129:7135   */\n      0x00\n        /* \"#utility.yul\":7179:7180   */\n      0x08\n        /* \"#utility.yul\":7167:7177   */\n      dup4\n        /* \"#utility.yul\":7163:7181   */\n      mul\n        /* \"#utility.yul\":7202:7299   */\n      tag_161\n        /* \"#utility.yul\":7232:7298   */\n      0xffffffffffffffffffffffffffffffffffffffffffffffffffffffffffffffff\n        /* \"#utility.yul\":7221:7230   */\n      dup3\n        /* \"#utility.yul\":7202:7299   */\n      tag_66\n      jump\t// in\n    tag_161:\n        /* \"#utility.yul\":7320:7359   */\n      tag_162\n        /* \"#utility.yul\":7350:7358   */\n      dup7\n        /* \"#utility.yul\":7339:7348   */\n      dup4\n        /* \"#utility.yul\":7320:7359   */\n      tag_66\n      jump\t// in\n    tag_162:\n        /* \"#utility.yul\":7308:7359   */\n      swap6\n      pop\n        /* \"#utility.yul\":7392:7396   */\n      dup1\n        /* \"#utility.yul\":7388:7397   */\n      not\n        /* \"#utility.yul\":7381:7386   */\n      dup5\n        /* \"#utility.yul\":7377:7398   */\n      and\n        /* \"#utility.yul\":7368:7398   */\n      swap4\n      pop\n        /* \"#utility.yul\":7441:7445   */\n      dup1\n        /* \"#utility.yul\":7431:7439   */\n      dup7\n        /* \"#utility.yul\":7427:7446   */\n      and\n        /* \"#utility.yul\":7420:7425   */\n      dup5\n        /* \"#utility.yul\":7417:7447   */\n      or\n        /* \"#utility.yul\":7407:7447   */\n      swap3\n      pop\n        /* \"#utility.yul\":7136:7453   */\n      pop\n      pop\n        /* \"#utility.yul\":7060:7453   */\n      swap4\n      swap3\n      pop\n      pop\n      pop\n      jump\t// out\n        /* \"#utility.yul\":7459:7519   */\n    tag_68:\n        /* \"#utility.yul\":7487:7490   */\n      0x00\n        /* \"#utility.yul\":7508:7513   */\n      dup2\n        /* \"#utility.yul\":7501:7513   */\n      swap1\n      pop\n        /* \"#utility.yul\":7459:7519   */\n      swap2\n      swap1\n      pop\n      jump\t// out\n        /* \"#utility.yul\":7525:7667   */\n    tag_69:\n        /* \"#utility.yul\":7575:7584   */\n      0x00\n        /* \"#utility.yul\":7608:7661   */\n      tag_165\n        /* \"#utility.yul\":7626:7660   */\n      tag_166\n        /* \"#utility.yul\":7635:7659   */\n      tag_167\n        /* \"#utility.yul\":7653:7658   */\n      dup5\n        /* \"#utility.yul\":7635:7659   */\n      tag_52\n      jump\t// in\n    tag_167:\n        /* \"#utility.yul\":7626:7660   */\n      tag_68\n      jump\t// in\n    tag_166:\n        /* \"#utility.yul\":7608:7661   */\n      tag_52\n      jump\t// in\n    tag_165:\n        /* \"#utility.yul\":7595:7661   */\n      swap1\n      pop\n        /* \"#utility.yul\":7525:7667   */\n      swap2\n      swap1\n      pop\n      jump\t// out\n        /* \"#utility.yul\":7673:7748   */\n    tag_70:\n        /* \"#utility.yul\":7716:7719   */\n      0x00\n        /* \"#utility.yul\":7737:7742   */\n      dup2\n        /* \"#utility.yul\":7730:7742   */\n      swap1\n      pop\n        /* \"#utility.yul\":7673:7748   */\n      swap2\n      swap1\n      pop\n      jump\t// out\n        /* \"#utility.yul\":7754:8023   */\n    tag_71:\n        /* \"#utility.yul\":7864:7903   */\n      tag_170\n        /* \"#utility.yul\":7895:7902   */\n      dup4\n        /* \"#utility.yul\":7864:7903   */\n      tag_69\n      jump\t// in\n    tag_170:\n        /* \"#utility.yul\":7925:8016   */\n      tag_171\n        /* \"#utility.yul\":7974:8015   */\n      tag_172\n        /* \"#utility.yul\":7998:8014   */\n      dup3\n        /* \"#utility.yul\":7974:8015   */\n      tag_70\n      jump\t// in\n    tag_172:\n        /* \"#utility.yul\":7966:7972   */\n      dup5\n        /* \"#utility.yul\":7959:7963   */\n      dup5\n        /* \"#utility.yul\":7953:7964   */\n      sload\n        /* \"#utility.yul\":7925:8016   */\n      tag_67\n      jump\t// in\n    tag_171:\n        /* \"#utility.yul\":7919:7923   */\n      dup3\n        /* \"#utility.yul\":7912:8017   */\n      sstore\n        /* \"#utility.yul\":7830:8023   */\n      pop\n        /* \"#utility.yul\":7754:8023   */\n      pop\n      pop\n      pop\n      jump\t// out\n        /* \"#utility.yul\":8029:8102   */\n    tag_72:\n        /* \"#utility.yul\":8074:8077   */\n      0x00\n        /* \"#utility.yul\":8029:8102   */\n      swap1\n      jump\t// out\n        /* \"#utility.yul\":8108:8297   */\n    tag_73:\n        /* \"#utility.yul\":8185:8217   */\n      tag_175\n      tag_72\n      jump\t// in\n    tag_175:\n        /* \"#utility.yul\":8226:8291   */\n      tag_176\n        /* \"#utility.yul\":8284:8290   */\n      dup2\n        /* \"#utility.yul\":8276:8282   */\n      dup5\n        /* \"#utility.yul\":8270:8274   */\n      dup5\n        /* \"#utility.yul\":8226:8291   */\n      tag_71\n      jump\t// in\n    tag_176:\n        /* \"#utility.yul\":8161:8297   */\n      pop\n        /* \"#utility.yul\":8108:8297   */\n      pop\n      pop\n      jump\t// out\n        /* \"#utility.yul\":8303:8489   */\n    tag_74:\n        /* \"#utility.yul\":8363:8483   */\n    tag_178:\n        /* \"#utility.yul\":8380:8383   */\n      dup2\n        /* \"#utility.yul\":8373:8378   */\n      dup2\n        /* \"#utility.yul\":8370:8384   */\n      lt\n        /* \"#utility.yul\":8363:8483   */\n      iszero\n      tag_180\n      jumpi\n        /* \"#utility.yul\":8434:8473   */\n      tag_181\n        /* \"#utility.yul\":8471:8472   */\n      0x00\n        /* \"#utility.yul\":8464:8469   */\n      dup3\n        /* \"#utility.yul\":8434:8473   */\n      tag_73\n      jump\t// in\n    tag_181:\n        /* \"#utility.yul\":8407:8408   */\n      0x01\n        /* \"#utility.yul\":8400:8405   */\n      dup2\n        /* \"#utility.yul\":8396:8409   */\n      add\n        /* \"#utility.yul\":8387:8409   */\n      swap1\n      pop\n        /* \"#utility.yul\":8363:8483   */\n      jump(tag_178)\n    tag_180:\n        /* \"#utility.yul\":8303:8489   */\n      pop\n      pop\n      jump\t// out\n        /* \"#utility.yul\":8495:9038   */\n    tag_75:\n        /* \"#utility.yul\":8596:8598   */\n      0x1f\n        /* \"#utility.yul\":8591:8594   */\n      dup3\n        /* \"#utility.yul\":8588:8599   */\n      gt\n        /* \"#utility.yul\":8585:9031   */\n      iszero\n      tag_183\n      jumpi\n        /* \"#utility.yul\":8630:8668   */\n      tag_184\n        /* \"#utility.yul\":8662:8667   */\n      dup2\n        /* \"#utility.yul\":8630:8668   */\n      tag_64\n      jump\t// in\n    tag_184:\n        /* \"#utility.yul\":8714:8743   */\n      tag_185\n        /* \"#utility.yul\":8732:8742   */\n      dup5\n        /* \"#utility.yul\":8714:8743   */\n      tag_65\n      jump\t// in\n    tag_185:\n        /* \"#utility.yul\":8704:8712   */\n      dup2\n        /* \"#utility.yul\":8700:8744   */\n      add\n        /* \"#utility.yul\":8897:8899   */\n      0x20\n        /* \"#utility.yul\":8885:8895   */\n      dup6\n        /* \"#utility.yul\":8882:8900   */\n      lt\n        /* \"#utility.yul\":8879:8928   */\n      iszero\n      tag_186\n      jumpi\n        /* \"#utility.yul\":8918:8926   */\n      dup2\n        /* \"#utility.yul\":8903:8926   */\n      swap1\n      pop\n        /* \"#utility.yul\":8879:8928   */\n    tag_186:\n        /* \"#utility.yul\":8941:9021   */\n      tag_187\n        /* \"#utility.yul\":8997:9019   */\n      tag_188\n        /* \"#utility.yul\":9015:9018   */\n      dup6\n        /* \"#utility.yul\":8997:9019   */\n      tag_65\n      jump\t// in\n    tag_188:\n        /* \"#utility.yul\":8987:8995   */\n      dup4\n        /* \"#utility.yul\":8983:9020   */\n      add\n        /* \"#utility.yul\":8970:8981   */\n      dup3\n        /* \"#utility.yul\":8941:9021   */\n      tag_74\n      jump\t// in\n    tag_187:\n        /* \"#utility.yul\":8600:9031   */\n      pop\n      pop\n        /* \"#utility.yul\":8585:9031   */\n    tag_183:\n        /* \"#utility.yul\":8495:9038   */\n      pop\n      pop\n      pop\n      jump\t// out\n        /* \"#utility.yul\":9044:9161   */\n    tag_76:\n        /* \"#utility.yul\":9098:9106   */\n      0x00\n        /* \"#utility.yul\":9148:9153   */\n      dup3\n        /* \"#utility.yul\":9142:9146   */\n      dup3\n        /* \"#utility.yul\":9138:9154   */\n      shr\n        /* \"#utility.yul\":9117:9154   */\n      swap1\n      pop\n        /* \"#utility.yul\":9044:9161   */\n      swap3\n      swap2\n      pop\n      pop\n      jump\t// out\n        /* \"#utility.yul\":9167:9336   */\n    tag_77:\n        /* \"#utility.yul\":9211:9217   */\n      0x00\n        /* \"#utility.yul\":9244:9295   */\n      tag_191\n        /* \"#utility.yul\":9292:9293   */\n      0x00\n        /* \"#utility.yul\":9288:9294   */\n      not\n        /* \"#utility.yul\":9280:9285   */\n      dup5\n        /* \"#utility.yul\":9277:9278   */\n      0x08\n        /* \"#utility.yul\":9273:9286   */\n      mul\n        /* \"#utility.yul\":9244:9295   */\n      tag_76\n      jump\t// in\n    tag_191:\n        /* \"#utility.yul\":9240:9296   */\n      not\n        /* \"#utility.yul\":9325:9329   */\n      dup1\n        /* \"#utility.yul\":9319:9323   */\n      dup4\n        /* \"#utility.yul\":9315:9330   */\n      and\n        /* \"#utility.yul\":9305:9330   */\n      swap2\n      pop\n        /* \"#utility.yul\":9218:9336   */\n      pop\n        /* \"#utility.yul\":9167:9336   */\n      swap3\n      swap2\n      pop\n      pop\n      jump\t// out\n        /* \"#utility.yul\":9341:9636   */\n    tag_78:\n        /* \"#utility.yul\":9417:9421   */\n      0x00\n        /* \"#utility.yul\":9563:9592   */\n      tag_193\n        /* \"#utility.yul\":9588:9591   */\n      dup4\n        /* \"#utility.yul\":9582:9586   */\n      dup4\n        /* \"#utility.yul\":9563:9592   */\n      tag_77\n      jump\t// in\n    tag_193:\n        /* \"#utility.yul\":9555:9592   */\n      swap2\n      pop\n        /* \"#utility.yul\":9625:9628   */\n      dup3\n        /* \"#utility.yul\":9622:9623   */\n      0x02\n        /* \"#utility.yul\":9618:9629   */\n      mul\n        /* \"#utility.yul\":9612:9616   */\n      dup3\n        /* \"#utility.yul\":9609:9630   */\n      or\n        /* \"#utility.yul\":9601:9630   */\n      swap1\n      pop\n        /* \"#utility.yul\":9341:9636   */\n      swap3\n      swap2\n      pop\n      pop\n      jump\t// out\n        /* \"#utility.yul\":9641:11036   */\n    tag_28:\n        /* \"#utility.yul\":9758:9795   */\n      tag_195\n        /* \"#utility.yul\":9791:9794   */\n      dup3\n        /* \"#utility.yul\":9758:9795   */\n      tag_56\n      jump\t// in\n    tag_195:\n        /* \"#utility.yul\":9860:9878   */\n      0xffffffffffffffff\n        /* \"#utility.yul\":9852:9858   */\n      dup2\n        /* \"#utility.yul\":9849:9879   */\n      gt\n        /* \"#utility.yul\":9846:9902   */\n      iszero\n      tag_196\n      jumpi\n        /* \"#utility.yul\":9882:9900   */\n      tag_197\n      tag_45\n      jump\t// in\n    tag_197:\n        /* \"#utility.yul\":9846:9902   */\n    tag_196:\n        /* \"#utility.yul\":9926:9964   */\n      tag_198\n        /* \"#utility.yul\":9958:9962   */\n      dup3\n        /* \"#utility.yul\":9952:9963   */\n      sload\n        /* \"#utility.yul\":9926:9964   */\n      tag_34\n      jump\t// in\n    tag_198:\n        /* \"#utility.yul\":10011:10078   */\n      tag_199\n        /* \"#utility.yul\":10071:10077   */\n      dup3\n        /* \"#utility.yul\":10063:10069   */\n      dup3\n        /* \"#utility.yul\":10057:10061   */\n      dup6\n        /* \"#utility.yul\":10011:10078   */\n      tag_75\n      jump\t// in\n    tag_199:\n        /* \"#utility.yul\":10105:10106   */\n      0x00\n        /* \"#utility.yul\":10129:10133   */\n      0x20\n        /* \"#utility.yul\":10116:10133   */\n      swap1\n      pop\n        /* \"#utility.yul\":10161:10163   */\n      0x1f\n        /* \"#utility.yul\":10153:10159   */\n      dup4\n        /* \"#utility.yul\":10150:10164   */\n      gt\n        /* \"#utility.yul\":10178:10179   */\n      0x01\n        /* \"#utility.yul\":10173:10791   */\n      dup2\n      eq\n      tag_201\n      jumpi\n        /* \"#utility.yul\":10835:10836   */\n      0x00\n        /* \"#utility.yul\":10852:10858   */\n      dup5\n        /* \"#utility.yul\":10849:10926   */\n      iszero\n      tag_202\n      jumpi\n        /* \"#utility.yul\":10901:10910   */\n      dup3\n        /* \"#utility.yul\":10896:10899   */\n      dup8\n        /* \"#utility.yul\":10892:10911   */\n      add\n        /* \"#utility.yul\":10886:10912   */\n      mload\n        /* \"#utility.yul\":10877:10912   */\n      swap1\n      pop\n        /* \"#utility.yul\":10849:10926   */\n    tag_202:\n        /* \"#utility.yul\":10952:11019   */\n      tag_203\n        /* \"#utility.yul\":11012:11018   */\n      dup6\n        /* \"#utility.yul\":11005:11010   */\n      dup3\n        /* \"#utility.yul\":10952:11019   */\n      tag_78\n      jump\t// in\n    tag_203:\n        /* \"#utility.yul\":10946:10950   */\n      dup7\n        /* \"#utility.yul\":10939:11020   */\n      sstore\n        /* \"#utility.yul\":10808:11030   */\n      pop\n        /* \"#utility.yul\":10143:11030   */\n      jump(tag_200)\n        /* \"#utility.yul\":10173:10791   */\n    tag_201:\n        /* \"#utility.yul\":10225:10229   */\n      0x1f\n        /* \"#utility.yul\":10221:10230   */\n      not\n        /* \"#utility.yul\":10213:10219   */\n      dup5\n        /* \"#utility.yul\":10209:10231   */\n      and\n        /* \"#utility.yul\":10259:10296   */\n      tag_204\n        /* \"#utility.yul\":10291:10295   */\n      dup7\n        /* \"#utility.yul\":10259:10296   */\n      tag_64\n      jump\t// in\n    tag_204:\n        /* \"#utility.yul\":10318:10319   */\n      0x00\n        /* \"#utility.yul\":10332:10540   */\n    tag_205:\n        /* \"#utility.yul\":10346:10353   */\n      dup3\n        /* \"#utility.yul\":10343:10344   */\n      dup2\n        /* \"#utility.yul\":10340:10354   */\n      lt\n        /* \"#utility.yul\":10332:10540   */\n      iszero\n      tag_207\n      jumpi\n        /* \"#utility.yul\":10425:10434   */\n      dup5\n        /* \"#utility.yul\":10420:10423   */\n      dup10\n        /* \"#utility.yul\":10416:10435   */\n      add\n        /* \"#utility.yul\":10410:10436   */\n      mload\n        /* \"#utility.yul\":10402:10408   */\n      dup3\n        /* \"#utility.yul\":10395:10437   */\n      sstore\n        /* \"#utility.yul\":10476:10477   */\n      0x01\n        /* \"#utility.yul\":10468:10474   */\n      dup3\n        /* \"#utility.yul\":10464:10478   */\n      add\n        /* \"#utility.yul\":10454:10478   */\n      swap2\n      pop\n        /* \"#utility.yul\":10523:10525   */\n      0x20\n        /* \"#utility.yul\":10512:10521   */\n      dup6\n        /* \"#utility.yul\":10508:10526   */\n      add\n        /* \"#utility.yul\":10495:10526   */\n      swap5\n      pop\n        /* \"#utility.yul\":10369:10373   */\n      0x20\n        /* \"#utility.yul\":10366:10367   */\n      dup2\n        /* \"#utility.yul\":10362:10374   */\n      add\n        /* \"#utility.yul\":10357:10374   */\n      swap1\n      pop\n        /* \"#utility.yul\":10332:10540   */\n      jump(tag_205)\n    tag_207:\n        /* \"#utility.yul\":10568:10574   */\n      dup7\n        /* \"#utility.yul\":10559:10566   */\n      dup4\n        /* \"#utility.yul\":10556:10575   */\n      lt\n        /* \"#utility.yul\":10553:10732   */\n      iszero\n      tag_208\n      jumpi\n        /* \"#utility.yul\":10626:10635   */\n      dup5\n        /* \"#utility.yul\":10621:10624   */\n      dup10\n        /* \"#utility.yul\":10617:10636   */\n      add\n        /* \"#utility.yul\":10611:10637   */\n      mload\n        /* \"#utility.yul\":10669:10717   */\n      tag_209\n        /* \"#utility.yul\":10711:10715   */\n      0x1f\n        /* \"#utility.yul\":10703:10709   */\n      dup10\n        /* \"#utility.yul\":10699:10716   */\n      and\n        /* \"#utility.yul\":10688:10697   */\n      dup3\n        /* \"#utility.yul\":10669:10717   */\n      tag_77\n      jump\t// in\n    tag_209:\n        /* \"#utility.yul\":10661:10667   */\n      dup4\n        /* \"#utility.yul\":10654:10718   */\n      sstore\n        /* \"#utility.yul\":10576:10732   */\n      pop\n        /* \"#utility.yul\":10553:10732   */\n    tag_208:\n        /* \"#utility.yul\":10778:10779   */\n      0x01\n        /* \"#utility.yul\":10774:10775   */\n      0x02\n        /* \"#utility.yul\":10766:10772   */\n      dup9\n        /* \"#utility.yul\":10762:10776   */\n      mul\n        /* \"#utility.yul\":10758:10780   */\n      add\n        /* \"#utility.yul\":10752:10756   */\n      dup9\n        /* \"#utility.yul\":10745:10781   */\n      sstore\n        /* \"#utility.yul\":10180:10791   */\n      pop\n      pop\n      pop\n        /* \"#utility.yul\":10143:11030   */\n    tag_200:\n      pop\n        /* \"#utility.yul\":9733:11036   */\n      pop\n      pop\n      pop\n        /* \"#utility.yul\":9641:11036   */\n      pop\n      pop\n      jump\t// out\n        /* \"#utility.yul\":11042:11362   */\n    tag_32:\n        /* \"#utility.yul\":11157:11161   */\n      0x00\n        /* \"#utility.yul\":11195:11197   */\n      0x40\n        /* \"#utility.yul\":11184:11193   */\n      dup3\n        /* \"#utility.yul\":11180:11198   */\n      add\n        /* \"#utility.yul\":11172:11198   */\n      swap1\n      pop\n        /* \"#utility.yul\":11208:11279   */\n      tag_211\n        /* \"#utility.yul\":11276:11277   */\n      0x00\n        /* \"#utility.yul\":11265:11274   */\n      dup4\n        /* \"#utility.yul\":11261:11278   */\n      add\n        /* \"#utility.yul\":11252:11258   */\n      dup6\n        /* \"#utility.yul\":11208:11279   */\n      tag_55\n      jump\t// in\n    tag_211:\n        /* \"#utility.yul\":11289:11355   */\n      tag_212\n        /* \"#utility.yul\":11351:11353   */\n      0x20\n        /* \"#utility.yul\":11340:11349   */\n      dup4\n        /* \"#utility.yul\":11336:11354   */\n      add\n        /* \"#utility.yul\":11327:11333   */\n      dup5\n        /* \"#utility.yul\":11289:11355   */\n      tag_61\n      jump\t// in\n    tag_212:\n        /* \"#utility.yul\":11042:11362   */\n      swap4\n      swap3\n      pop\n      pop\n      pop\n      jump\t// out\n\n    auxdata: 0xa2646970667358221220123afc6d75ed9c6323169f5a4d0bfb43422c3af5f747376d2f63081491cb126264736f6c63430008120033\n}\n",
				"bytecode": {
					"linkReferences": {},
					"object": "608060405234801561001057600080fd5b506109bc806100206000396000f3fe608060405234801561001057600080fd5b506004361061004c5760003560e01c8063111002aa14610051578063455f50241461006d5780638d97767214610089578063b6cb58a5146100bb575b600080fd5b61006b6004803603810190610066919061045a565b6100d9565b005b610087600480360381019061008291906104d9565b6101a8565b005b6100a3600480360381019061009e91906104d9565b61023b565b6040516100b2939291906105af565b60405180910390f35b6100c36102fa565b6040516100d091906105ed565b60405180910390f35b6000808154809291906100eb90610637565b919050555060405180606001604052806000548152602001828152602001600015158152506001600080548152602001908152602001600020600082015181600001556020820151816001019081610143919061088b565b5060408201518160020160006101000a81548160ff0219169083151502179055509050507f05d0fb833127fc08168556d0e7ca9554fc3f6bc843b3b7d2bf1c35aea6bab66060005482600060405161019d939291906105af565b60405180910390a150565b60006001600083815260200190815260200160002090508060020160009054906101000a900460ff16158160020160006101000a81548160ff0219169083151502179055507fe21fa966ca5cd02748c0752352d18c48165e61cb55b4c29cccf924b5a95fcff1828260020160009054906101000a900460ff1660405161022f92919061095d565b60405180910390a15050565b6001602052806000526040600020600091509050806000015490806001018054610264906106ae565b80601f0160208091040260200160405190810160405280929190818152602001828054610290906106ae565b80156102dd5780601f106102b2576101008083540402835291602001916102dd565b820191906000526020600020905b8154815290600101906020018083116102c057829003601f168201915b5050505050908060020160009054906101000a900460ff16905083565b60005481565b6000604051905090565b600080fd5b600080fd5b600080fd5b600080fd5b6000601f19601f8301169050919050565b7f4e487b7100000000000000000000000000000000000000000000000000000000600052604160045260246000fd5b6103678261031e565b810181811067ffffffffffffffff821117156103865761038561032f565b5b80604052505050565b6000610399610300565b90506103a5828261035e565b919050565b600067ffffffffffffffff8211156103c5576103c461032f565b5b6103ce8261031e565b9050602081019050919050565b82818337600083830152505050565b60006103fd6103f8846103aa565b61038f565b90508281526020810184848401111561041957610418610319565b5b6104248482856103db565b509392505050565b600082601f83011261044157610440610314565b5b81356104518482602086016103ea565b91505092915050565b6000602082840312156104705761046f61030a565b5b600082013567ffffffffffffffff81111561048e5761048d61030f565b5b61049a8482850161042c565b91505092915050565b6000819050919050565b6104b6816104a3565b81146104c157600080fd5b50565b6000813590506104d3816104ad565b92915050565b6000602082840312156104ef576104ee61030a565b5b60006104fd848285016104c4565b91505092915050565b61050f816104a3565b82525050565b600081519050919050565b600082825260208201905092915050565b60005b8381101561054f578082015181840152602081019050610534565b60008484015250505050565b600061056682610515565b6105708185610520565b9350610580818560208601610531565b6105898161031e565b840191505092915050565b60008115159050919050565b6105a981610594565b82525050565b60006060820190506105c46000830186610506565b81810360208301526105d6818561055b565b90506105e560408301846105a0565b949350505050565b60006020820190506106026000830184610506565b92915050565b7f4e487b7100000000000000000000000000000000000000000000000000000000600052601160045260246000fd5b6000610642826104a3565b91507fffffffffffffffffffffffffffffffffffffffffffffffffffffffffffffffff820361067457610673610608565b5b600182019050919050565b7f4e487b7100000000000000000000000000000000000000000000000000000000600052602260045260246000fd5b600060028204905060018216806106c657607f821691505b6020821081036106d9576106d861067f565b5b50919050565b60008190508160005260206000209050919050565b60006020601f8301049050919050565b600082821b905092915050565b6000600883026107417fffffffffffffffffffffffffffffffffffffffffffffffffffffffffffffffff82610704565b61074b8683610704565b95508019841693508086168417925050509392505050565b6000819050919050565b600061078861078361077e846104a3565b610763565b6104a3565b9050919050565b6000819050919050565b6107a28361076d565b6107b66107ae8261078f565b848454610711565b825550505050565b600090565b6107cb6107be565b6107d6818484610799565b505050565b5b818110156107fa576107ef6000826107c3565b6001810190506107dc565b5050565b601f82111561083f57610810816106df565b610819846106f4565b81016020851015610828578190505b61083c610834856106f4565b8301826107db565b50505b505050565b600082821c905092915050565b600061086260001984600802610844565b1980831691505092915050565b600061087b8383610851565b9150826002028217905092915050565b61089482610515565b67ffffffffffffffff8111156108ad576108ac61032f565b5b6108b782546106ae565b6108c28282856107fe565b600060209050601f8311600181146108f557600084156108e3578287015190505b6108ed858261086f565b865550610955565b601f198416610903866106df565b60005b8281101561092b57848901518255600182019150602085019450602081019050610906565b868310156109485784890151610944601f891682610851565b8355505b6001600288020188555050505b505050505050565b60006040820190506109726000830185610506565b61097f60208301846105a0565b939250505056fea2646970667358221220123afc6d75ed9c6323169f5a4d0bfb43422c3af5f747376d2f63081491cb126264736f6c63430008120033",
					"opcodes": "PUSH1 0x80 PUSH1 0x40 MSTORE CALLVALUE DUP1 ISZERO PUSH2 0x10 JUMPI PUSH1 0x0 DUP1 REVERT JUMPDEST POP PUSH2 0x9BC DUP1 PUSH2 0x20 PUSH1 0x0 CODECOPY PUSH1 0x0 RETURN INVALID PUSH1 0x80 PUSH1 0x40 MSTORE CALLVALUE DUP1 ISZERO PUSH2 0x10 JUMPI PUSH1 0x0 DUP1 REVERT JUMPDEST POP PUSH1 0x4 CALLDATASIZE LT PUSH2 0x4C JUMPI PUSH1 0x0 CALLDATALOAD PUSH1 0xE0 SHR DUP1 PUSH4 0x111002AA EQ PUSH2 0x51 JUMPI DUP1 PUSH4 0x455F5024 EQ PUSH2 0x6D JUMPI DUP1 PUSH4 0x8D977672 EQ PUSH2 0x89 JUMPI DUP1 PUSH4 0xB6CB58A5 EQ PUSH2 0xBB JUMPI JUMPDEST PUSH1 0x0 DUP1 REVERT JUMPDEST PUSH2 0x6B PUSH1 0x4 DUP1 CALLDATASIZE SUB DUP2 ADD SWAP1 PUSH2 0x66 SWAP2 SWAP1 PUSH2 0x45A JUMP JUMPDEST PUSH2 0xD9 JUMP JUMPDEST STOP JUMPDEST PUSH2 0x87 PUSH1 0x4 DUP1 CALLDATASIZE SUB DUP2 ADD SWAP1 PUSH2 0x82 SWAP2 SWAP1 PUSH2 0x4D9 JUMP JUMPDEST PUSH2 0x1A8 JUMP JUMPDEST STOP JUMPDEST PUSH2 0xA3 PUSH1 0x4 DUP1 CALLDATASIZE SUB DUP2 ADD SWAP1 PUSH2 0x9E SWAP2 SWAP1 PUSH2 0x4D9 JUMP JUMPDEST PUSH2 0x23B JUMP JUMPDEST PUSH1 0x40 MLOAD PUSH2 0xB2 SWAP4 SWAP3 SWAP2 SWAP1 PUSH2 0x5AF JUMP JUMPDEST PUSH1 0x40 MLOAD DUP1 SWAP2 SUB SWAP1 RETURN JUMPDEST PUSH2 0xC3 PUSH2 0x2FA JUMP JUMPDEST PUSH1 0x40 MLOAD PUSH2 0xD0 SWAP2 SWAP1 PUSH2 0x5ED JUMP JUMPDEST PUSH1 0x40 MLOAD DUP1 SWAP2 SUB SWAP1 RETURN JUMPDEST PUSH1 0x0 DUP1 DUP2 SLOAD DUP1 SWAP3 SWAP2 SWAP1 PUSH2 0xEB SWAP1 PUSH2 0x637 JUMP JUMPDEST SWAP2 SWAP1 POP SSTORE POP PUSH1 0x40 MLOAD DUP1 PUSH1 0x60 ADD PUSH1 0x40 MSTORE DUP1 PUSH1 0x0 SLOAD DUP2 MSTORE PUSH1 0x20 ADD DUP3 DUP2 MSTORE PUSH1 0x20 ADD PUSH1 0x0 ISZERO ISZERO DUP2 MSTORE POP PUSH1 0x1 PUSH1 0x0 DUP1 SLOAD DUP2 MSTORE PUSH1 0x20 ADD SWAP1 DUP2 MSTORE PUSH1 0x20 ADD PUSH1 0x0 KECCAK256 PUSH1 0x0 DUP3 ADD MLOAD DUP2 PUSH1 0x0 ADD SSTORE PUSH1 0x20 DUP3 ADD MLOAD DUP2 PUSH1 0x1 ADD SWAP1 DUP2 PUSH2 0x143 SWAP2 SWAP1 PUSH2 0x88B JUMP JUMPDEST POP PUSH1 0x40 DUP3 ADD MLOAD DUP2 PUSH1 0x2 ADD PUSH1 0x0 PUSH2 0x100 EXP DUP2 SLOAD DUP2 PUSH1 0xFF MUL NOT AND SWAP1 DUP4 ISZERO ISZERO MUL OR SWAP1 SSTORE POP SWAP1 POP POP PUSH32 0x5D0FB833127FC08168556D0E7CA9554FC3F6BC843B3B7D2BF1C35AEA6BAB660 PUSH1 0x0 SLOAD DUP3 PUSH1 0x0 PUSH1 0x40 MLOAD PUSH2 0x19D SWAP4 SWAP3 SWAP2 SWAP1 PUSH2 0x5AF JUMP JUMPDEST PUSH1 0x40 MLOAD DUP1 SWAP2 SUB SWAP1 LOG1 POP JUMP JUMPDEST PUSH1 0x0 PUSH1 0x1 PUSH1 0x0 DUP4 DUP2 MSTORE PUSH1 0x20 ADD SWAP1 DUP2 MSTORE PUSH1 0x20 ADD PUSH1 0x0 KECCAK256 SWAP1 POP DUP1 PUSH1 0x2 ADD PUSH1 0x0 SWAP1 SLOAD SWAP1 PUSH2 0x100 EXP SWAP1 DIV PUSH1 0xFF AND ISZERO DUP2 PUSH1 0x2 ADD PUSH1 0x0 PUSH2 0x100 EXP DUP2 SLOAD DUP2 PUSH1 0xFF MUL NOT AND SWAP1 DUP4 ISZERO ISZERO MUL OR SWAP1 SSTORE POP PUSH32 0xE21FA966CA5CD02748C0752352D18C48165E61CB55B4C29CCCF924B5A95FCFF1 DUP3 DUP3 PUSH1 0x2 ADD PUSH1 0x0 SWAP1 SLOAD SWAP1 PUSH2 0x100 EXP SWAP1 DIV PUSH1 0xFF AND PUSH1 0x40 MLOAD PUSH2 0x22F SWAP3 SWAP2 SWAP1 PUSH2 0x95D JUMP JUMPDEST PUSH1 0x40 MLOAD DUP1 SWAP2 SUB SWAP1 LOG1 POP POP JUMP JUMPDEST PUSH1 0x1 PUSH1 0x20 MSTORE DUP1 PUSH1 0x0 MSTORE PUSH1 0x40 PUSH1 0x0 KECCAK256 PUSH1 0x0 SWAP2 POP SWAP1 POP DUP1 PUSH1 0x0 ADD SLOAD SWAP1 DUP1 PUSH1 0x1 ADD DUP1 SLOAD PUSH2 0x264 SWAP1 PUSH2 0x6AE JUMP JUMPDEST DUP1 PUSH1 0x1F ADD PUSH1 0x20 DUP1 SWAP2 DIV MUL PUSH1 0x20 ADD PUSH1 0x40 MLOAD SWAP1 DUP2 ADD PUSH1 0x40 MSTORE DUP1 SWAP3 SWAP2 SWAP1 DUP2 DUP2 MSTORE PUSH1 0x20 ADD DUP3 DUP1 SLOAD PUSH2 0x290 SWAP1 PUSH2 0x6AE JUMP JUMPDEST DUP1 ISZERO PUSH2 0x2DD JUMPI DUP1 PUSH1 0x1F LT PUSH2 0x2B2 JUMPI PUSH2 0x100 DUP1 DUP4 SLOAD DIV MUL DUP4 MSTORE SWAP2 PUSH1 0x20 ADD SWAP2 PUSH2 0x2DD JUMP JUMPDEST DUP3 ADD SWAP2 SWAP1 PUSH1 0x0 MSTORE PUSH1 0x20 PUSH1 0x0 KECCAK256 SWAP1 JUMPDEST DUP2 SLOAD DUP2 MSTORE SWAP1 PUSH1 0x1 ADD SWAP1 PUSH1 0x20 ADD DUP1 DUP4 GT PUSH2 0x2C0 JUMPI DUP3 SWAP1 SUB PUSH1 0x1F AND DUP3 ADD SWAP2 JUMPDEST POP POP POP POP POP SWAP1 DUP1 PUSH1 0x2 ADD PUSH1 0x0 SWAP1 SLOAD SWAP1 PUSH2 0x100 EXP SWAP1 DIV PUSH1 0xFF AND SWAP1 POP DUP4 JUMP JUMPDEST PUSH1 0x0 SLOAD DUP2 JUMP JUMPDEST PUSH1 0x0 PUSH1 0x40 MLOAD SWAP1 POP SWAP1 JUMP JUMPDEST PUSH1 0x0 DUP1 REVERT JUMPDEST PUSH1 0x0 DUP1 REVERT JUMPDEST PUSH1 0x0 DUP1 REVERT JUMPDEST PUSH1 0x0 DUP1 REVERT JUMPDEST PUSH1 0x0 PUSH1 0x1F NOT PUSH1 0x1F DUP4 ADD AND SWAP1 POP SWAP2 SWAP1 POP JUMP JUMPDEST PUSH32 0x4E487B7100000000000000000000000000000000000000000000000000000000 PUSH1 0x0 MSTORE PUSH1 0x41 PUSH1 0x4 MSTORE PUSH1 0x24 PUSH1 0x0 REVERT JUMPDEST PUSH2 0x367 DUP3 PUSH2 0x31E JUMP JUMPDEST DUP2 ADD DUP2 DUP2 LT PUSH8 0xFFFFFFFFFFFFFFFF DUP3 GT OR ISZERO PUSH2 0x386 JUMPI PUSH2 0x385 PUSH2 0x32F JUMP JUMPDEST JUMPDEST DUP1 PUSH1 0x40 MSTORE POP POP POP JUMP JUMPDEST PUSH1 0x0 PUSH2 0x399 PUSH2 0x300 JUMP JUMPDEST SWAP1 POP PUSH2 0x3A5 DUP3 DUP3 PUSH2 0x35E JUMP JUMPDEST SWAP2 SWAP1 POP JUMP JUMPDEST PUSH1 0x0 PUSH8 0xFFFFFFFFFFFFFFFF DUP3 GT ISZERO PUSH2 0x3C5 JUMPI PUSH2 0x3C4 PUSH2 0x32F JUMP JUMPDEST JUMPDEST PUSH2 0x3CE DUP3 PUSH2 0x31E JUMP JUMPDEST SWAP1 POP PUSH1 0x20 DUP2 ADD SWAP1 POP SWAP2 SWAP1 POP JUMP JUMPDEST DUP3 DUP2 DUP4 CALLDATACOPY PUSH1 0x0 DUP4 DUP4 ADD MSTORE POP POP POP JUMP JUMPDEST PUSH1 0x0 PUSH2 0x3FD PUSH2 0x3F8 DUP5 PUSH2 0x3AA JUMP JUMPDEST PUSH2 0x38F JUMP JUMPDEST SWAP1 POP DUP3 DUP2 MSTORE PUSH1 0x20 DUP2 ADD DUP5 DUP5 DUP5 ADD GT ISZERO PUSH2 0x419 JUMPI PUSH2 0x418 PUSH2 0x319 JUMP JUMPDEST JUMPDEST PUSH2 0x424 DUP5 DUP3 DUP6 PUSH2 0x3DB JUMP JUMPDEST POP SWAP4 SWAP3 POP POP POP JUMP JUMPDEST PUSH1 0x0 DUP3 PUSH1 0x1F DUP4 ADD SLT PUSH2 0x441 JUMPI PUSH2 0x440 PUSH2 0x314 JUMP JUMPDEST JUMPDEST DUP2 CALLDATALOAD PUSH2 0x451 DUP5 DUP3 PUSH1 0x20 DUP7 ADD PUSH2 0x3EA JUMP JUMPDEST SWAP2 POP POP SWAP3 SWAP2 POP POP JUMP JUMPDEST PUSH1 0x0 PUSH1 0x20 DUP3 DUP5 SUB SLT ISZERO PUSH2 0x470 JUMPI PUSH2 0x46F PUSH2 0x30A JUMP JUMPDEST JUMPDEST PUSH1 0x0 DUP3 ADD CALLDATALOAD PUSH8 0xFFFFFFFFFFFFFFFF DUP2 GT ISZERO PUSH2 0x48E JUMPI PUSH2 0x48D PUSH2 0x30F JUMP JUMPDEST JUMPDEST PUSH2 0x49A DUP5 DUP3 DUP6 ADD PUSH2 0x42C JUMP JUMPDEST SWAP2 POP POP SWAP3 SWAP2 POP POP JUMP JUMPDEST PUSH1 0x0 DUP2 SWAP1 POP SWAP2 SWAP1 POP JUMP JUMPDEST PUSH2 0x4B6 DUP2 PUSH2 0x4A3 JUMP JUMPDEST DUP2 EQ PUSH2 0x4C1 JUMPI PUSH1 0x0 DUP1 REVERT JUMPDEST POP JUMP JUMPDEST PUSH1 0x0 DUP2 CALLDATALOAD SWAP1 POP PUSH2 0x4D3 DUP2 PUSH2 0x4AD JUMP JUMPDEST SWAP3 SWAP2 POP POP JUMP JUMPDEST PUSH1 0x0 PUSH1 0x20 DUP3 DUP5 SUB SLT ISZERO PUSH2 0x4EF JUMPI PUSH2 0x4EE PUSH2 0x30A JUMP JUMPDEST JUMPDEST PUSH1 0x0 PUSH2 0x4FD DUP5 DUP3 DUP6 ADD PUSH2 0x4C4 JUMP JUMPDEST SWAP2 POP POP SWAP3 SWAP2 POP POP JUMP JUMPDEST PUSH2 0x50F DUP2 PUSH2 0x4A3 JUMP JUMPDEST DUP3 MSTORE POP POP JUMP JUMPDEST PUSH1 0x0 DUP2 MLOAD SWAP1 POP SWAP2 SWAP1 POP JUMP JUMPDEST PUSH1 0x0 DUP3 DUP3 MSTORE PUSH1 0x20 DUP3 ADD SWAP1 POP SWAP3 SWAP2 POP POP JUMP JUMPDEST PUSH1 0x0 JUMPDEST DUP4 DUP2 LT ISZERO PUSH2 0x54F JUMPI DUP1 DUP3 ADD MLOAD DUP2 DUP5 ADD MSTORE PUSH1 0x20 DUP2 ADD SWAP1 POP PUSH2 0x534 JUMP JUMPDEST PUSH1 0x0 DUP5 DUP5 ADD MSTORE POP POP POP POP JUMP JUMPDEST PUSH1 0x0 PUSH2 0x566 DUP3 PUSH2 0x515 JUMP JUMPDEST PUSH2 0x570 DUP2 DUP6 PUSH2 0x520 JUMP JUMPDEST SWAP4 POP PUSH2 0x580 DUP2 DUP6 PUSH1 0x20 DUP7 ADD PUSH2 0x531 JUMP JUMPDEST PUSH2 0x589 DUP2 PUSH2 0x31E JUMP JUMPDEST DUP5 ADD SWAP2 POP POP SWAP3 SWAP2 POP POP JUMP JUMPDEST PUSH1 0x0 DUP2 ISZERO ISZERO SWAP1 POP SWAP2 SWAP1 POP JUMP JUMPDEST PUSH2 0x5A9 DUP2 PUSH2 0x594 JUMP JUMPDEST DUP3 MSTORE POP POP JUMP JUMPDEST PUSH1 0x0 PUSH1 0x60 DUP3 ADD SWAP1 POP PUSH2 0x5C4 PUSH1 0x0 DUP4 ADD DUP7 PUSH2 0x506 JUMP JUMPDEST DUP2 DUP2 SUB PUSH1 0x20 DUP4 ADD MSTORE PUSH2 0x5D6 DUP2 DUP6 PUSH2 0x55B JUMP JUMPDEST SWAP1 POP PUSH2 0x5E5 PUSH1 0x40 DUP4 ADD DUP5 PUSH2 0x5A0 JUMP JUMPDEST SWAP5 SWAP4 POP POP POP POP JUMP JUMPDEST PUSH1 0x0 PUSH1 0x20 DUP3 ADD SWAP1 POP PUSH2 0x602 PUSH1 0x0 DUP4 ADD DUP5 PUSH2 0x506 JUMP JUMPDEST SWAP3 SWAP2 POP POP JUMP JUMPDEST PUSH32 0x4E487B7100000000000000000000000000000000000000000000000000000000 PUSH1 0x0 MSTORE PUSH1 0x11 PUSH1 0x4 MSTORE PUSH1 0x24 PUSH1 0x0 REVERT JUMPDEST PUSH1 0x0 PUSH2 0x642 DUP3 PUSH2 0x4A3 JUMP JUMPDEST SWAP2 POP PUSH32 0xFFFFFFFFFFFFFFFFFFFFFFFFFFFFFFFFFFFFFFFFFFFFFFFFFFFFFFFFFFFFFFFF DUP3 SUB PUSH2 0x674 JUMPI PUSH2 0x673 PUSH2 0x608 JUMP JUMPDEST JUMPDEST PUSH1 0x1 DUP3 ADD SWAP1 POP SWAP2 SWAP1 POP JUMP JUMPDEST PUSH32 0x4E487B7100000000000000000000000000000000000000000000000000000000 PUSH1 0x0 MSTORE PUSH1 0x22 PUSH1 0x4 MSTORE PUSH1 0x24 PUSH1 0x0 REVERT JUMPDEST PUSH1 0x0 PUSH1 0x2 DUP3 DIV SWAP1 POP PUSH1 0x1 DUP3 AND DUP1 PUSH2 0x6C6 JUMPI PUSH1 0x7F DUP3 AND SWAP2 POP JUMPDEST PUSH1 0x20 DUP3 LT DUP2 SUB PUSH2 0x6D9 JUMPI PUSH2 0x6D8 PUSH2 0x67F JUMP JUMPDEST JUMPDEST POP SWAP2 SWAP1 POP JUMP JUMPDEST PUSH1 0x0 DUP2 SWAP1 POP DUP2 PUSH1 0x0 MSTORE PUSH1 0x20 PUSH1 0x0 KECCAK256 SWAP1 POP SWAP2 SWAP1 POP JUMP JUMPDEST PUSH1 0x0 PUSH1 0x20 PUSH1 0x1F DUP4 ADD DIV SWAP1 POP SWAP2 SWAP1 POP JUMP JUMPDEST PUSH1 0x0 DUP3 DUP3 SHL SWAP1 POP SWAP3 SWAP2 POP POP JUMP JUMPDEST PUSH1 0x0 PUSH1 0x8 DUP4 MUL PUSH2 0x741 PUSH32 0xFFFFFFFFFFFFFFFFFFFFFFFFFFFFFFFFFFFFFFFFFFFFFFFFFFFFFFFFFFFFFFFF DUP3 PUSH2 0x704 JUMP JUMPDEST PUSH2 0x74B DUP7 DUP4 PUSH2 0x704 JUMP JUMPDEST SWAP6 POP DUP1 NOT DUP5 AND SWAP4 POP DUP1 DUP7 AND DUP5 OR SWAP3 POP POP POP SWAP4 SWAP3 POP POP POP JUMP JUMPDEST PUSH1 0x0 DUP2 SWAP1 POP SWAP2 SWAP1 POP JUMP JUMPDEST PUSH1 0x0 PUSH2 0x788 PUSH2 0x783 PUSH2 0x77E DUP5 PUSH2 0x4A3 JUMP JUMPDEST PUSH2 0x763 JUMP JUMPDEST PUSH2 0x4A3 JUMP JUMPDEST SWAP1 POP SWAP2 SWAP1 POP JUMP JUMPDEST PUSH1 0x0 DUP2 SWAP1 POP SWAP2 SWAP1 POP JUMP JUMPDEST PUSH2 0x7A2 DUP4 PUSH2 0x76D JUMP JUMPDEST PUSH2 0x7B6 PUSH2 0x7AE DUP3 PUSH2 0x78F JUMP JUMPDEST DUP5 DUP5 SLOAD PUSH2 0x711 JUMP JUMPDEST DUP3 SSTORE POP POP POP POP JUMP JUMPDEST PUSH1 0x0 SWAP1 JUMP JUMPDEST PUSH2 0x7CB PUSH2 0x7BE JUMP JUMPDEST PUSH2 0x7D6 DUP2 DUP5 DUP5 PUSH2 0x799 JUMP JUMPDEST POP POP POP JUMP JUMPDEST JUMPDEST DUP2 DUP2 LT ISZERO PUSH2 0x7FA JUMPI PUSH2 0x7EF PUSH1 0x0 DUP3 PUSH2 0x7C3 JUMP JUMPDEST PUSH1 0x1 DUP2 ADD SWAP1 POP PUSH2 0x7DC JUMP JUMPDEST POP POP JUMP JUMPDEST PUSH1 0x1F DUP3 GT ISZERO PUSH2 0x83F JUMPI PUSH2 0x810 DUP2 PUSH2 0x6DF JUMP JUMPDEST PUSH2 0x819 DUP5 PUSH2 0x6F4 JUMP JUMPDEST DUP2 ADD PUSH1 0x20 DUP6 LT ISZERO PUSH2 0x828 JUMPI DUP2 SWAP1 POP JUMPDEST PUSH2 0x83C PUSH2 0x834 DUP6 PUSH2 0x6F4 JUMP JUMPDEST DUP4 ADD DUP3 PUSH2 0x7DB JUMP JUMPDEST POP POP JUMPDEST POP POP POP JUMP JUMPDEST PUSH1 0x0 DUP3 DUP3 SHR SWAP1 POP SWAP3 SWAP2 POP POP JUMP JUMPDEST PUSH1 0x0 PUSH2 0x862 PUSH1 0x0 NOT DUP5 PUSH1 0x8 MUL PUSH2 0x844 JUMP JUMPDEST NOT DUP1 DUP4 AND SWAP2 POP POP SWAP3 SWAP2 POP POP JUMP JUMPDEST PUSH1 0x0 PUSH2 0x87B DUP4 DUP4 PUSH2 0x851 JUMP JUMPDEST SWAP2 POP DUP3 PUSH1 0x2 MUL DUP3 OR SWAP1 POP SWAP3 SWAP2 POP POP JUMP JUMPDEST PUSH2 0x894 DUP3 PUSH2 0x515 JUMP JUMPDEST PUSH8 0xFFFFFFFFFFFFFFFF DUP2 GT ISZERO PUSH2 0x8AD JUMPI PUSH2 0x8AC PUSH2 0x32F JUMP JUMPDEST JUMPDEST PUSH2 0x8B7 DUP3 SLOAD PUSH2 0x6AE JUMP JUMPDEST PUSH2 0x8C2 DUP3 DUP3 DUP6 PUSH2 0x7FE JUMP JUMPDEST PUSH1 0x0 PUSH1 0x20 SWAP1 POP PUSH1 0x1F DUP4 GT PUSH1 0x1 DUP2 EQ PUSH2 0x8F5 JUMPI PUSH1 0x0 DUP5 ISZERO PUSH2 0x8E3 JUMPI DUP3 DUP8 ADD MLOAD SWAP1 POP JUMPDEST PUSH2 0x8ED DUP6 DUP3 PUSH2 0x86F JUMP JUMPDEST DUP7 SSTORE POP PUSH2 0x955 JUMP JUMPDEST PUSH1 0x1F NOT DUP5 AND PUSH2 0x903 DUP7 PUSH2 0x6DF JUMP JUMPDEST PUSH1 0x0 JUMPDEST DUP3 DUP2 LT ISZERO PUSH2 0x92B JUMPI DUP5 DUP10 ADD MLOAD DUP3 SSTORE PUSH1 0x1 DUP3 ADD SWAP2 POP PUSH1 0x20 DUP6 ADD SWAP5 POP PUSH1 0x20 DUP2 ADD SWAP1 POP PUSH2 0x906 JUMP JUMPDEST DUP7 DUP4 LT ISZERO PUSH2 0x948 JUMPI DUP5 DUP10 ADD MLOAD PUSH2 0x944 PUSH1 0x1F DUP10 AND DUP3 PUSH2 0x851 JUMP JUMPDEST DUP4 SSTORE POP JUMPDEST PUSH1 0x1 PUSH1 0x2 DUP9 MUL ADD DUP9 SSTORE POP POP POP JUMPDEST POP POP POP POP POP POP JUMP JUMPDEST PUSH1 0x0 PUSH1 0x40 DUP3 ADD SWAP1 POP PUSH2 0x972 PUSH1 0x0 DUP4 ADD DUP6 PUSH2 0x506 JUMP JUMPDEST PUSH2 0x97F PUSH1 0x20 DUP4 ADD DUP5 PUSH2 0x5A0 JUMP JUMPDEST SWAP4 SWAP3 POP POP POP JUMP INVALID LOG2 PUSH5 0x6970667358 0x22 SLT KECCAK256 SLT GASPRICE 0xFC PUSH14 0x75ED9C6323169F5A4D0BFB43422C GASPRICE CREATE2 0xF7 SELFBALANCE CALLDATACOPY PUSH14 0x2F63081491CB126264736F6C6343 STOP ADDMOD SLT STOP CALLER "
				},
				"gasEstimates": {
					"creation": {
						"codeDepositCost": "498400",
						"executionCost": "530",
						"totalCost": "498930"
					},
					"external": {
						"createTask(string)": "infinite",
						"taskCount()": "2473",
						"tasks(uint256)": "infinite",
						"toggleCompleted(uint256)": "infinite"
					}
				},
				"methodIdentifiers": {
					"createTask(string)": "111002aa",
					"taskCount()": "b6cb58a5",
					"tasks(uint256)": "8d977672",
					"toggleCompleted(uint256)": "455f5024"
				}
			},
			"storageLayout": {
				"storage": [
					{
						"astId": 10,
						"contract": "contracts/todo.sol:TodoList",
						"label": "taskCount",
						"offset": 0,
						"slot": "0",
						"type": "t_uint256"
					},
					{
						"astId": 15,
						"contract": "contracts/todo.sol:TodoList",
						"label": "tasks",
						"offset": 0,
						"slot": "1",
						"type": "t_mapping(t_uint256,t_struct(Task)8_storage)"
					}
				],
				"types": {
					"t_bool": {
						"encoding": "inplace",
						"label": "bool",
						"numberOfBytes": "1"
					},
					"t_mapping(t_uint256,t_struct(Task)8_storage)": {
						"encoding": "mapping",
						"key": "t_uint256",
						"label": "mapping(uint256 => struct TodoList.Task)",
						"numberOfBytes": "32",
						"value": "t_struct(Task)8_storage"
					},
					"t_string_storage": {
						"encoding": "bytes",
						"label": "string",
						"numberOfBytes": "32"
					},
					"t_struct(Task)8_storage": {
						"encoding": "inplace",
						"label": "struct TodoList.Task",
						"members": [
							{
								"astId": 3,
								"contract": "contracts/todo.sol:TodoList",
								"label": "id",
								"offset": 0,
								"slot": "0",
								"type": "t_uint256"
							},
							{
								"astId": 5,
								"contract": "contracts/todo.sol:TodoList",
								"label": "content",
								"offset": 0,
								"slot": "1",
								"type": "t_string_storage"
							},
							{
								"astId": 7,
								"contract": "contracts/todo.sol:TodoList",
								"label": "completed",
								"offset": 0,
								"slot": "2",
								"type": "t_bool"
							}
						],
						"numberOfBytes": "96"
					},
					"t_uint256": {
						"encoding": "inplace",
						"label": "uint256",
						"numberOfBytes": "32"
					}
				}
			},
			"userdoc": {
				"kind": "user",
				"methods": {},
				"version": 1
			}
		}
	}
}